:020000040800F2
:10000000E84F0020A1010008AD200008AD02000863
:10001000A920000803040008E12C000800000000EB
:100020000000000000000000000000008521000822
:100030004306000800000000F301000887210008C3
:10004000BB010008BB010008BB010008BB010008A0
:10005000BB010008BB010008BB010008BB01000890
:10006000BB010008BB010008BB010008BB01000880
:10007000BB010008BB010008BB010008BB01000870
:1000800009040008CD040008BB010008BB010008FA
:10009000BB010008BB010008BB010008BB01000850
:1000A000BB010008BB010008BB010008BB01000840
:1000B000BB010008BB010008BB010008BB01000830
:1000C000BB010008BB010008BB010008BB01000820
:1000D000BB010008BB010008712C0008BB0100082F
:1000E000BB010008BB010008BB010008BB01000800
:1000F000BB010008BB010008BB010008BB010008F0
:10010000BB010008BB010008BB010008BB010008DF
:10011000BB010008BB010008BB010008BB010008CF
:10012000BB010008BB010008BB010008BB010008BF
:10013000BB010008BB010008BB010008BB010008AF
:10014000BB010008BB010008BB010008BB0100089F
:10015000BB010008BB010008BB010008BB0100088F
:10016000BB010008BB010008BB010008BB0100087F
:10017000BB010008BB010008BB0100080000000033
:10018000BB010008BB010008DFF810D000F022F925
:1001900000480047F9030008AFF30080E84F002053
:1001A0000648804706480047FEE7FEE7FEE7FEE711
:1001B000FEE7FEE7FEE7FEE7FEE7FEE74D2200086A
:1001C00089010008EFF3108072B6704780F3108841
:1001D0007047444A1368012B04D04FF001031360A9
:1001E000414A1060414A116041484FF0805101601E
:1001F0007047EFF3108272B63A48016851B34FF07E
:10020000000101603848016891B1EFF309811EF0E7
:10021000100F08BF21ED108B21E9F00F4FF0000403
:100220001EF0100F08BF012441F8044D0068016062
:100230002E490968096808C9B1E8F00F002B18BFFA
:10024000B1EC108B81F309884EF0100E002B18BF13
:100250002EF0100E82F310884EF0040E70472349E2
:100260000860EFF3148222F0040282F314881E491E
:100270004FF0000008601B494FF0010008601D4866
:100280001D49D0F8002041EA0201016018484FF0F2
:100290008051016019480068006880F3088861B6E1
:1002A00062B6BFF34F8FBFF36F8F70471EF0040F1E
:1002B0000CBFEFF30880EFF3098020E9F00F40F85E
:1002C00004ED40F804ED1EF0040F0CBF80F3088825
:1002D00080F3098800B503F0FBF95DF804EB4EF0FC
:1002E000040E7047A0000020980000209C00002011
:1002F00004ED00E020ED00E00000FFFF08ED00E06D
:100300002DE9F05F0546002092469B46884606464A
:10031000814640241BE0284641464746224600F0DD
:1003200048F853465A46C01A914110D31146184610
:10033000224600F02FF82D1A67EB01084F4622469F
:100340000120002100F026F817EB00094E41201E85
:10035000A4F10104DFDC484631462A464346BDE8A5
:10036000F09FD2B201E000F8012B491EFBD270478A
:100370000022F6E710B513460A4604461946FFF771
:10038000F0FF204610BD421C10F8011B0029FBD1D4
:10039000801A7047202A04DB203A00FA02F100207C
:1003A00070479140C2F1200320FA03F319439040B3
:1003B0007047202A04DB203A21FA02F0002170471E
:1003C00021FA02F3D040C2F12002914008431946BD
:1003D00070470000064C074D06E0E06840F001035E
:1003E00094E8070098471034AC42F6D3FFF7D0FEEC
:1003F000005000082050000810B504F006FA002054
:1004000010BD00BFFEE7000010B52D4800682D4963
:10041000884205D92B485438006800F480601BE0FE
:10042000274800682849884205D926485838006876
:1004300000F4806010E02248006823496039884257
:1004400005D92148B838406800F4806004E01E48AF
:10045000B838006800F4806010B1002004F032FC6D
:10046000174800681749884205D91648543800686B
:1004700000F400601BE0124800681349884205D967
:1004800010485838006800F4006010E00C4800681C
:100490000D496039884205D90B48B838406800F4E6
:1004A000006004E00848B838006800F4006010B14B
:1004B000002004F0B7FB024800F032F910BD000044
:1004C0000401002058640240B860024010B517488B
:1004D00000681749884205D915485438006800F467
:1004E00000101BE0114800681249884205D91048E5
:1004F0005838006800F4001010E00C4800680D49FE
:100500006039884205D90B48B838406800F40010BB
:1005100004E00848B838006800F4001010B100206A
:1005200004F028FC014800F0FBF810BD6401002035
:1005300058640240B8600240014608781038182319
:10054000B0FBF3F20848805CC865032A05D9086847
:100550006FF30900001D886503E008686FF3090068
:100560008865886D70470000684E000801460020CD
:100570008A6A8B69CBB932B1012A0DD0022A03D025
:10058000032A10D10EE000BFCB6A03F08073B3F1F1
:10059000807F00D1012007E0CB6AB3F1C07F00D19A
:1005A000012001E000E000BF34E08B69B3F5005F9B
:1005B0001AD132B1012A07D0022A03D0032A11D15D
:1005C0000AE000BF01200EE0CB6A03F08073B3F1B4
:1005D000807F00D1012006E0CB6AB3F1C07F00D15B
:1005E000012000E000BF15E032B1012A05D0022A47
:1005F00004D0032A0CD103E000BF00BF012008E0B3
:10060000CB6A03F08073B3F1807F00D1012000E05A
:1006100000BF00BF704730B50468246824F480240C
:1006200005682C60046863608468402C04D1046809
:10063000A2600468E16003E00468A1600468E2600D
:1006400030BD704772B600BFFEE770B50446A56DB9
:1006500000F04EFB064694F83500022808D08020B2
:10066000606500BF002084F8340000BF012070BD29
:100670002068006820F01600216808602068406942
:1006800020F0800021684861206C08B9A06C28B176
:100690002068006820F00800216808602068006871
:1006A00020F001002168086010E000F021FB801BB1
:1006B00005280BD920206065032084F8350000BF91
:1006C000002084F8340000BF0320D0E720680068D1
:1006D00000F001000028E8D194F85C103F20884029
:1006E000A860012084F8350000BF002084F83400A1
:1006F00000BF00BFBBE7014691F83500022803D0D8
:100700008020486501207047052081F83500086881
:10071000006820F001000A6810600020F3E7000084
:10072000F8B50446002000908C4800684FF416513C
:10073000B0FBF1F7A56D2E6894F85C100820884096
:10074000304098B12068006800F0040070B1206863
:10075000006820F004002168086094F85C1008200C
:100760008840A860606D40F00100606594F85C10FE
:1007700001208840304068B12068406900F0800066
:1007800040B194F85C1001208840A860606D40F092
:100790000200606594F85C1004208840304068B125
:1007A0002068006800F0020040B194F85C1004205A
:1007B0008840A860606D40F00400606594F85C10AB
:1007C00010208840304078B32068006800F00800AE
:1007D00050B394F85C1010208840A860206800682E
:1007E00000F4802080B12068006800F4002028B95F
:1007F000206CC8B12046216C884715E0A06C98B1E8
:100800002046A16C88470FE02068006800F48070E3
:1008100028B92068006820F0080021680860206C72
:1008200010B12046216C884794F85C102020884045
:100830003040002865D02068006800F010000028D3
:100840005FD094F85C1020208840A86094F83500B0
:10085000052828D12068006820F01600216808606B
:100860002068406920F0800021684861206C08B948
:10087000A06C28B12068006820F00800216808609A
:1008800094F85C103F208840A860012084F835006F
:1008900000BF002084F8340000BF206D10B1204656
:1008A000216D8847F8BD2068006800F4802080B181
:1008B0002068006800F4002028B9606C10B1204660
:1008C000616C88471DE0E06BD8B12046E16B88473A
:1008D00017E02068006800F4807068B9206800683C
:1008E00020F0100021680860012084F8350000BF66
:1008F000002084F8340000BFE06B10B12046E16BAB
:100900008847606D38B3606D00F00100F0B10520DC
:1009100084F835002068006820F001002168086034
:1009200000BF0098401C0090B84200D905E0206844
:10093000006800F001000028F3D100BF012084F816
:10094000350000BF002084F8340000BFE06C10B117
:100950002046E16C884700BFA4E700000C0000209F
:100960002DE9F0410446002500F0C2F9074614B90C
:100970000120BDE8F081606A00B100BF022084F868
:10098000350000BF002084F8340000BF20680068F4
:1009900020F00100216808600AE000F0A9F9C01BFE
:1009A000052805D920206065032084F83500E0E79C
:1009B0002068006800F001000028EED1206805687A
:1009C00021480540D4E901010843E1680843216951
:1009D000084361690843A1690843E1690843216A42
:1009E00008430543606A042803D1D4E90B01084396
:1009F0000543206805602068456925F00705606AA1
:100A00000543606A04280DD1A06A0543E06A48B135
:100A10002046FFF7ABFD28B140206065012084F837
:100A20003500A6E7206845612046FFF785FD0646AC
:100A300094F85C103F208840B06000206065012081
:100A400084F83500002094E73F8010F02DE9F0474E
:100A500004460D4616461F464FF00008D4F858903D
:100A600000BF94F83400012802D10220BDE8F087CD
:100A7000012084F8340000BF94F83500012825D106
:100A8000022084F83500002060653B463246294646
:100A90002046FFF7C0FD94F85C103F208840C9F85D
:100AA00008002068006840F0160021680860206C8B
:100AB00028B12068006840F00800216808602068BC
:100AC000006840F001002168086006E000BF0020D7
:100AD00084F8340000BF4FF002084046C6E700002B
:100AE000F8B502460B460025002400200021D6E080
:100AF000012606FA01F51E6806EA0504AC4274D127
:100B00001E7906F00306012E04D01E7906F00306B6
:100B1000022E13D190684F000326BE40B0434F0011
:100B2000DE68BE4030439060506801268E40B0437E
:100B30001E79C6F300168E40304350601E7906F0D1
:100B40000306032E09D0D0684F000326BE40B043F1
:100B50004F009E68BE403043D0601E7906F0030609
:100B6000022E13D1CF0802F1200656F827004E07B7
:100B7000F70E0F26BE40B0434F07FF0E1E69BE4062
:100B80003043CF0802F1200646F8270010684F00D6
:100B90000326BE40B0431E7906F003064F00BE4058
:100BA000304310605E6806F44036002E76D000BFF9
:100BB000002600963C4E366846F480463A4F3E602A
:100BC0003E46366806F48046009600BF00BF374EAA
:100BD0008F0856F827008E07370F0F26BE40B04308
:100BE000334EB24202D1002624E057E0314EB242E9
:100BF00001D101261EE0304EB24201D1022619E099
:100C00002E4EB24201D1032614E02D4EB24201D144
:100C100004260FE02B4EB24201D105260AE02A4EEF
:100C2000B24201D1062605E0284EB24201D1072684
:100C300000E008268F073F0FBE4030431B4E8F0851
:100C400046F82700224E3068A0435E6806F48016FE
:100C500006B120431E4E3060361D3068A0435E68EA
:100C600006F4001606B12043194E361D3060184EAA
:100C7000361F3068A0435E6806F4003606B1204394
:100C8000134E361F3060361F3068A0435E6806F48E
:100C9000803606B120430E4E083E3060491C1029B4
:100CA000FFF426AFF8BD0000443802400838014088
:100CB000000002400004024000080240000C024014
:100CC000001002400014024000180240001C0240C4
:100CD000083C0140024613690B400BB1012000E0C3
:100CE000002070470AB1816101E00B048361704705
:100CF00001480068704700000000002003480068B9
:100D00000349097808440149086070470000002041
:100D10000800002010B50D48006840F400700B4931
:100D200008600846006840F4806008600846006873
:100D300040F480700860032000F0A2F80F2000F05B
:100D400007F800F02BF8002010BD0000003C024026
:100D500070B504460E4800784FF47A71B1FBF0F09C
:100D60000C490968B1FBF0F5284600F03FFC08B1DA
:100D7000012070BD102C07D200222146501E00F029
:100D800041F80548046001E00120F2E70020F0E7A7
:100D9000080000200C0000200400002008B500BF5F
:100DA000002000900E48006840F480400C49086024
:100DB0000846006800F48040009000BF00BF00BFFC
:100DC00000200090081F006840F08050091F086054
:100DD0000846006800F08050009000BF00BF08BDCA
:100DE0004438024001460846002809DB00F01F0392
:100DF00001229A4043099B0003F1E023C3F800213C
:100E000000BF70472DE9F05F80460D46164600276B
:100E100001F068FF074639462A46334601F00700CD
:100E2000C0F1070ABAF1040F02D94FF0040A01E039
:100E3000C0F1070AD14600F1040ABAF1070F02D245
:100E40004FF0000A01E0A0F1030AD4464FF0010A76
:100E50000AFA09FAAAF1010A0AEA020A0AFA0CFADB
:100E60004FF0010B0BFA0CFBABF1010B0BEA030B80
:100E70004AEA0B042146404601F03CFFBDE8F09FE2
:100E800000BF00F00702064B19684FF6FF03194038
:100E9000044B0B4343EA0221014B196000BF70472A
:100EA0000CED00E00000FA0570B504460D460CB9E3
:100EB000012070BD5848006800F00700A84209D220
:100EC00055490D700846006800F00700A84201D09F
:100ED0000120EEE7207800F0020002281DD12078E2
:100EE00000F00400042805D14C48006840F4E050AC
:100EF0004A490860207800F00800082805D14748D2
:100F0000006840F46040454908604448006820F0AB
:100F1000F000A168084341490860207800F0010012
:100F2000A8B36068012807D13C4808380068C0F3BE
:100F30004040B8B90120BCE76068022802D0606870
:100F4000032807D1354808380068C0F3406048B925
:100F50000120AEE7314808380068C0F3400008B906
:100F60000120A6E72D48006820F0030061680843CF
:100F70002A490860FFF7BCFE064609E0FFF7B8FE05
:100F8000801B41F28831884202D9032091E707E0B3
:100F90002248006800F00C006168B0EB810FEDD1D1
:100FA0001D48006800F00700A84209D91A490D70D1
:100FB0000846006800F00700A84201D0012078E749
:100FC000207800F00400042807D11448006820F4B9
:100FD000E050E168084311490860207800F00800FB
:100FE000082808D10D48006820F46040216940EAD3
:100FF000C1000A49086000F03FF808490968C1F3D8
:101000000311074A515CC840064908600648006859
:10101000FFF79EFE00204CE7003C024008380240EB
:10102000704E00080C0000200400002001480068F9
:10103000704700000C00002000B5FFF7F7FF0449DF
:101040000968C1F38221034A515CC84000BD000019
:1010500008380240804E000800B5FFF7E7FF04495A
:101060000968C1F34231034A515CC84000BD000029
:1010700008380240804E00082DE9F0470024002582
:101080000026A1462548006800F00C0020B1042885
:1010900005D008283AD105E0DFF8849039E0DFF880
:1010A000849036E01D48001F006800F03F041B4894
:1010B000001F006800F4800078B11A481749091F22
:1010C0000968C1F38811A0FB017001462246002384
:1010D0003846FFF715F905460EE011480F49091F7C
:1010E0000968C1F38811A0FB017001462246002364
:1010F0003846FFF705F905460848001F0068C0F3A9
:101100000140401C4600B5FBF6F902E0DFF8109004
:1011100000BF00BF4846BDE8F08700000838024025
:101120000024F40000127A00F8B504460CB901203E
:10113000F8BD207800F00100002874D0F94800685C
:1011400000F00C0004280DD0F648006800F00C00F8
:10115000082813D1F348001F006800F48000B0F5A0
:10116000800F0BD1EF4808380068C0F340400028DA
:1011700059D06068002856D10120D9E700BF6068C7
:10118000B0F5803F08D1E7480838006840F4803067
:10119000E449083908601EE06068B0F5A02F0DD161
:1011A000E0480838006840F48020DE4908390860CB
:1011B0000846006840F4803008600CE0D9480838E0
:1011C000006820F48030D749083908600846006874
:1011D00020F48020086000BF606890B1FFF788FDB0
:1011E000054606E0FFF784FD401B642801D9032073
:1011F0009EE7CC4808380068C0F340400028F1D092
:1012000011E0FFF775FD054606E0FFF771FD401B95
:10121000642801D903208BE7C24808380068C0F36E
:1012200040400028F1D1207800F0020002285FD170
:10123000BC48006800F00C0058B1BA48006800F0E3
:101240000C0008281CD1B748001F006800F480007B
:10125000B0B9B44808380068C0F3400020B1E06875
:10126000012801D0012063E7AE480838006820F06B
:10127000F800216940EAC100AA490839086037E04E
:10128000E06800B30120A8490860FFF731FD05467A
:1012900006E0FFF72DFD401B022801D9032047E798
:1012A000A04808380068C0F340000028F1D09D48ED
:1012B0000838006820F0F800216940EAC100994927
:1012C0000839086014E0002097490860FFF710FD16
:1012D000054606E0FFF70CFD401B022801D903205C
:1012E00026E7904808380068C0F340000028F1D194
:1012F000207800F0080008282CD16069A8B10120EE
:101300008A490860FFF7F4FC054606E0FFF7F0FCA9
:10131000401B022801D903200AE782486C3000688C
:10132000C0F340000028F1D014E000207F4908609D
:10133000FFF7DEFC054606E0FFF7DAFC401B02285B
:1013400001D90320F4E677486C300068C0F3400010
:101350000028F1D1207800F00400042870D1002783
:1013600070483830006800F0805090B900BF00200D
:1013700000906C483830006840F08050694938313E
:1013800008600846006800F08050009000BF00BF71
:1013900001276748006800F48070B0B964480068AD
:1013A00040F4807062490860FFF7A2FC054606E041
:1013B000FFF79EFC401B022801D90320B8E65C48D9
:1013C000006800F480700028F2D000BFA0680128F7
:1013D00008D154486830006840F001005149683134
:1013E00008601DE0A06805280DD14E4868300068EF
:1013F00040F004004B49683108600846006840F03E
:10140000010008600CE047486830006820F00100E7
:101410004449683108600846006820F0040008600C
:1014200000BFA068A8B1FFF763FC054609E0FFF71D
:101430005FFC401B41F28831884202D9032077E6E5
:1014400026E0384868300068C0F340000028EED03D
:1014500013E0FFF74DFC054608E0FFF749FC401B91
:1014600041F28831884201D9032061E62D48683075
:101470000068C0F340000028EFD1012F07D12948B0
:101480003830006820F0805026493831086000BFAD
:10149000A069002845D02348006800F00C00082807
:1014A0005DD0A069022845D100201F490866FFF7DA
:1014B0001FFC054606E0FFF71BFC401B022801D974
:1014C000032035E6174808380068C0F3406000285C
:1014D000F1D1D4E907010843616A40EA8111012290
:1014E000A06AC2EB500041EA00412C20005D41EAB5
:1014F00000600C49091F086001200B490866FFF7CE
:10150000F7FB054606E0FFF7F3FB401B022801D975
:1015100003200DE6034808380068C0F34060002847
:10152000F1D049E00838024000004742800E4742AF
:1015300000700040002021490866FFF7D9FB0546EE
:1015400006E0FFF7D5FB401B022801D90320EFE599
:101550001B480068C0F340600028F2D12CE0A0696D
:10156000012800D1E4E51648001D0668A06901289D
:1015700020D006F48001E06981421BD106F03F01D2
:10158000206A814216D147F6C0703040616AB0EBE4
:10159000811F0FD106F440310122A06AC2EB500036
:1015A000B1EB004F06D106F070612C20005DB1EB6D
:1015B000006F01D00120BBE50020B9E500004742E3
:1015C00000380240042808D14FF0E021096941F0B9
:1015D00004014FF0E022116107E04FF0E0210969BA
:1015E00021F004014FF0E0221161704770B504460C
:1015F0002546681EB0F1807F01D301200FE0681EF0
:101600004FF0E02148610F214FF0FF3001F072FBF5
:1016100000204FF0E021886107200861002070BDA4
:10162000704770472DE9F84F044620680568206828
:10163000C668206847694FF00009CA4605F00F09DF
:10164000B9F1000F0AD105F0200038B106F02000F2
:1016500020B1204601F0E2F8BDE8F88FB9F1000FA3
:101660007CD007F0010018B906F49070002875D0FE
:1016700005F0010030B106F4807018B1206C40F024
:101680000100206405F0040030B107F0010018B13A
:10169000206C40F00200206405F0020030B107F039
:1016A000010018B1206C40F00400206405F008002F
:1016B00048B106F0200010B907F0010018B1206C05
:1016C00040F008002064206C002846D005F020007F
:1016D00028B106F0200010B1204601F09FF82068E4
:1016E0004069C0F3801A206C00F0080010B9BAF10C
:1016F000000F2DD0204601F038F82068406900F036
:101700004000402820D100BF00BF2168143151E8BB
:10171000001F21F040002168143141E80002002A36
:10172000F3D100BFA06B50B17548A16B0865A06BE9
:10173000FEF7E1FF88B1A06B016D88470DE0204600
:10174000FFF76FFF09E009E02046FFF76AFF04E0BA
:101750002046FFF766FF002020647DE7206B01280C
:1017600076D105F01000002872D006F01000002895
:10177000FAD000BF00200090206800680090206828
:101780004068009000BF00BF2068406900F0400042
:1017900040285ED1A06B006840681FFA80F8B8F15D
:1017A000000F54D0A08D404551DDA4F82E80A06BD1
:1017B000C069B0F5807F43D000BF00BF21680C3105
:1017C00051E8001F21F4807021680C3141E80002CB
:1017D000002AF3D100BF00BF00BF2168143151E8D7
:1017E000001F21F001002168143141E80002002AA5
:1017F000F3D100BF00BF00BF2168143151E8001FC2
:1018000021F040002168143141E80002002AF3D1A0
:1018100000BF202084F83E000020206300BF00BFEE
:1018200021680C3151E8001F21F0100021680C31B3
:1018300041E80002002AF3D100BFA06BFEF705FFCC
:10184000A08DE28D801A81B22046FFF7E9FE03E702
:1018500040E0A08DE18D401A1FFA80F8E08DC0B302
:10186000B8F1000F35D000BF00BF21680C3151E83E
:10187000001F21F4907021680C3141E80002002A19
:10188000F3D100BF00BF00BF2168143151E8001F31
:1018900021F001002168143141E80002002AF3D14F
:1018A00000BF202084F83E000020206300BF00BF5E
:1018B00021680C3151E8001F21F0100021680C3123
:1018C00041E80002002AF3D100BF41462046FFF75D
:1018D000A7FEC1E605F0800030B106F0800018B127
:1018E000204601F095F9B7E605F0400030B106F06A
:1018F000400018B1204600F06EFFADE600BFABE639
:10190000D125000810B504460CB9012010BDA0690E
:1019100000B100E000BF94F83D0028B9002084F831
:101920003C00204600F028F8242084F83D00206880
:10193000C06820F400502168C860204600F0EAFF2B
:101940002068006920F4904021680861206840699F
:1019500020F02A00216848612068C06840F40050E7
:101960002168C86000202064202084F83D0084F8AD
:101970003E000020CAE7000010B586B004461421DE
:1019800001A8FEF7F5FC3E492068884276D100BFE9
:10199000002000903B48006840F40030394908605E
:1019A0000846006800F40030009000BF00BF00BF90
:1019B0000020009033481038006840F001003149A1
:1019C000103908600846006800F00100009000BF70
:1019D00000BF0C2001900220029000200390032001
:1019E00004900720059001A92748FFF779F82748B8
:1019F000274908604FF0006048600021244881605A
:101A0000C1604FF4806101610021416181614FF447
:101A10008071C161002101624162FEF7A1FF08B13E
:101A2000FEF710FE00BF1A48A063846300BF17488A
:101A30001830184908604FF0006048604021154890
:101A400081600021C1604FF480610161002141612A
:101A50008161C16101624162FEF782FF08B1FEF758
:101A6000F1FD00BF0B486063846300BF0022114694
:101A70002620FFF7C7F92620FFF7B4F906B010BDFE
:101A800000440040403802400000024088600240AC
:101A9000040100206401002070B504460D4616467E
:101AA00094F83E00202816D105B10EB9012070BD72
:101AB00000BF94F83C00012801D10220F7E7012083
:101AC00084F83C0000BF00202063324629462046AF
:101AD00001F036F8EBE70220E9E7704770470000B5
:101AE000F7B50446154694F83D00202846D10198E4
:101AF00000B10DB90120FEBD00BF94F83C000128E3
:101B000001D10220F7E7012084F83C0000BF0198D2
:101B10002062A584E58400202064212084F83D0013
:101B20001748616BC8631748616B08641648616B9E
:101B3000C8640020616B086501AE23681A1D316816
:101B40002B46606BFEF782FF6FF040002168086053
:101B500000BF002084F83C0000BF00BF00BF216828
:101B6000143151E8001F41F080002168143141E830
:101B70000002002AF3D100BF0020BCE70220BAE730
:101B8000052700085D270008E52500087047704715
:101B90001FB5304B0FCB8DE80F0000231A462E499E
:101BA0002E4801F06BFB012300222B492C4801F049
:101BB00065FB0223002228492A4801F05FFB03232A
:101BC00001222549284801F059FB00242BE05DF84B
:101BD0002400264A002101F02DFA5DF82400244A51
:101BE000012101F027FA5DF82400224A022101F0C8
:101BF00021FA5DF82400204A032101F01BFA5DF868
:101C000024001E4A042101F015FA5DF824001C4A44
:101C1000052101F00FFA5DF824001A4A062101F0AF
:101C200009FA601CC4B2042CD1DB002405E05DF885
:101C3000240001F041FB601CC4B2042CF7DB04203B
:101C400000F036FA044605231A460F4900F07EFBE1
:101C50001FBD0000DC4F000819210008384B002090
:101C6000644B0020904B0020BC4B0020B51D0008A9
:101C70006D1E00080D1E0008C51E00088D1C000802
:101C80004D1D0008ED1C0008D44F000870B5054636
:101C90002C79042C04DB214604A001F06DFE03E046
:101CA00021460BA001F068FE70BD00006B65792035
:101CB000696420257520646F75626C6520636C69AA
:101CC000636B20696E76616C69640D0A0000000028
:101CD0006B657920696420257520646F75626C6579
:101CE00020636C69636B0D0A0000000070B5054647
:101CF0002C79042C04DB214604A001F03DFE03E016
:101D000021460BA001F038FE70BD00006B65792004
:101D10006964202575206C6F6E672070726573731F
:101D200020686F6C6420696E76616C69640D0A00CE
:101D30006B6579206964202575206C6F6E67207053
:101D40007265737320686F6C640D0A0070B5054688
:101D50002C79042C04DB214604A001F00DFE03E0E5
:101D600021460CA001F008FE70BD00006B657920D3
:101D70006964202575206C6F6E67207072657373BF
:101D800020737461727420696E76616C69640D0AE7
:101D9000000000006B6579206964202575206C6F58
:101DA0006E672070726573732073746172740D0AAC
:101DB0000000000070B505462C79042C04DB214698
:101DC00004A001F0D9FD03E021460AA001F0D4FDF2
:101DD00070BD00006B6579206964202575207072E4
:101DE00065737320646F776E20696E76616C6964C9
:101DF0000D0A00006B6579206964202575207072DA
:101E000065737320646F776E0D0A000070B5054628
:101E10002C79042C04DB214604A001F0ADFD03E085
:101E200021460BA001F0A8FD70BD00006B65792074
:101E30006964202575207072657373207265706502
:101E4000617420696E76616C69640D0A000000009F
:101E50006B65792069642025752070726573732025
:101E60007265706561740D0A0000000070B505466A
:101E70002C79042C04DB214604A001F07DFD03E055
:101E800021460AA001F078FD70BD00006B65792045
:101E900069642025752070726573732075702069E0
:101EA0006E76616C69640D0A000000006B65792034
:101EB00069642025752070726573732075700D0A32
:101EC0000000000070B505462C79042C04DB214687
:101ED00004A001F051FD03E021460BA001F04CFDF0
:101EE00070BD00006B6579206964202575207369D9
:101EF000676E616C20636C69636B20696E76616CE0
:101F000069640D0A000000006B6579206964202572
:101F100075207369676E616C20636C69636B0D0A71
:101F20000000000008B500BF002000900E480068C7
:101F300040F400100C4908600846006800F40010E6
:101F4000009000BF00BF002211461020FEF75AFF8C
:101F50001020FEF747FF002211461120FEF752FF26
:101F60001120FEF73FFF08BD3038024000B587B0B2
:101F7000142102A8FEF7FCF900BF002001903848A8
:101F8000006840F01000364908600846006800F01C
:101F90001000019000BF00BF00BF00200190084664
:101FA000006840F0040008600846006800F0040083
:101FB000019000BF00BF00BF0020019008460068EC
:101FC00040F0200008600846006800F02000019002
:101FD00000BF00BF00BF002001900846006840F02D
:101FE000800008600846006800F08000019000BF93
:101FF00000BF00BF002001900846006840F00100CB
:1020000008600846006800F00100019000BF00BFB2
:1020100001224FF4C0611348FEF764FE1C200290B9
:10202000002003900120049002A90F48FEF758FDFC
:102030004FF4C060029001200390049002200590AC
:1020400002A90848FEF74CFD0120029000200390F1
:102050000220049002A90548FEF742FD07B000BD2A
:1020600030380240001402400010024000000240DC
:1020700010B50B480B4908604FF4E130486000216F
:1020800008488160C16001610C21416100218161CA
:10209000C161FFF737FC08B1FEF7D4FA10BD0000AC
:1020A00000440040C000002000BFFEE700BFFEE784
:1020B0000146002005290ED2DFE801F003050709DB
:1020C0000B00064808E0064806E0064804E006481B
:1020D00002E0064800E000BF00BF7047A8000020F3
:1020E000AC000020B0000020B4000020B8000020A8
:1020F00010B5FEF79BFF4FF47A71B0FBF1F4204668
:10210000FFF774FA0420FFF75DFA00221146501E13
:10211000FEF778FE10BD000010B5044634B1012C66
:1021200009D0022C0CD0032C14D10EE010210C4845
:10213000FEF7D0FD10BD08210948FEF7CBFDF9E7F9
:1021400004210748FEF7C6FDF4E701210548FEF724
:10215000C1FDEFE7214604A001F00EFC0020E9E7F5
:1021600000100240000002406B6579206964206F16
:102170007574206F662072616E67652025750D0A83
:1021800000000000704710B501F0DCFBFEF7B6FD63
:1021900001F0DAFF10BD000000B593B0302107A8B0
:1021A000FEF7E6F8142102A8FEF7E2F800BF0020CF
:1021B00001902448006840F0805022490860084699
:1021C000006800F08050019000BF00BF00BF0020F9
:1021D00001901D48006840F480401B490860084693
:1021E000006800F48040019000BF00BF012007900C
:1021F0000004089002200D9041050E9104210F91DA
:10220000A8211091022111910421129107A8FEF733
:102210008BFF08B1FEF716FA0F2002900220039000
:10222000002004904FF4A05005904FF48050069089
:10223000052102A8FEF738FE08B1FEF703FA13B035
:1022400000BD0000403802400070004003480068B4
:1022500040F47000014908607047000088ED00E01C
:102260002DE9F04105460F4600240DB9BDE8F08187
:102270002C6854B3206840B320684068B84205D346
:1022800020684068C01B2168486002E00020216887
:10229000486015E0206886682146284600F01DF851
:1022A0001EB901202168087005E0334632462146F8
:1022B000284600F04BF8606808B1606880472C68D9
:1022C0001CB1206840680028E4D000BFCEE700B908
:1022D00070470021016000BFFAE710B109B10A6838
:1022E00002B970470A681278012A02D0022A29D15D
:1022F00003E000220B681A7025E00A68D26832B148
:102300000A6812690B68DB681B681A6102E00A68D8
:10231000126902600A68126982B10A68D2680B68A1
:102320001B691B68DA600A681269126852680B68D8
:102330005B681A440B681B691B685A6000220B68B3
:102340001A7000E000BF00BF00BFCAE72DE9FF41DF
:1023500006460C461F46002516B10CB1206808B988
:10236000BDE8FF812068007810B101282CD100E081
:1023700000BF356835B900202168C8602168086150
:10238000346018E006E0286840680299081A029054
:1023900028680569286840B1286840680299884221
:1023A00003D8286800690028EDD102AB2A462146EF
:1023B000304600F00DF80298216848602068876078
:1023C00002202168087000E000BF00BF00BFC7E71F
:1023D00030B5146864681D68AC4202D91468E468BA
:1023E00024B3146864681D68AC420CD80C68E260C1
:1023F00000240D682C61146821611C6815686D68E3
:10240000641B1C6020E01468E4680D68EC600C68D4
:1024100022610C68E468246821611468E160146832
:1024200064681D68641B15686C600DE000240D680D
:10243000EC600C6822611468E160146864681D68CF
:10244000641B15686C60016030BD000010B505218B
:102450000148FFF705FF10BDA800002010B50020BF
:10246000FFF726FE0446FFF732FF0020FFF720FEAD
:1024700004464FF47A731A460149FFF767FF10BD0F
:10248000AC4F000810B505210148FFF7E9FE10BD6B
:10249000AC00002010B50120FFF70AFE0446FFF74C
:1024A00016FF0120FFF704FE04464FF47A731A4624
:1024B0000149FFF74BFF10BDB44F000810B50A21CA
:1024C0000148FFF7CDFE10BDB000002010B502207E
:1024D000FFF7EEFD0446FFF7FAFE0220FFF7E8FDE6
:1024E00004464FF47A731A460149FFF72FFF10BDD7
:1024F000BC4F000810B505210148FFF7B1FE10BD23
:10250000B400002010B50320FFF7D2FD0446FFF70A
:10251000DEFE0320FFF7CCFD04464FF47A731A4623
:102520000149FFF713FF10BDC44F000810B5052186
:102530000148FFF795FE10BDB800002010B504203B
:10254000FFF7B6FD0446FFF7C2FE0420FFF7B0FD1B
:1025500004464FF47A731A460149FFF7F7FE10BD9F
:10256000CC4F000810B500F0BDFE10BD10B502A0A4
:1025700001F002FA10BD00007461736B310D0A00A6
:1025800010B502A001F0F8F910BD00007461736B82
:10259000320D0A0010B502A001F0EEF910BD0000E6
:1025A0007461736B330D0A0010B502A001F0E4F9F9
:1025B00010BD00007461736B340D0A0010B502A0E9
:1025C00001F0DAF910BD00007461736B350D0A007B
:1025D00070B50546AC6B0020E085E0842046FFF72F
:1025E00020F870BD70B506460025B46B20684069C0
:1025F000C0F3C01594F83D00212805D125B1002075
:10260000E084204600F0F7F820684069C0F38015A8
:1026100094F83E00222805D125B10020E08520460F
:1026200000F0A3F8206C40F0100020642046FEF774
:10263000F8FF70BD70B50546AC6B2868006800F403
:102640008070002842D1E08500BF00BF21680C31B6
:1026500051E8001F21F4807021680C3141E800022C
:10266000002AF3D100BF00BF00BF2168143151E838
:10267000001F21F001002168143141E80002002A06
:10268000F3D100BF00BF00BF2168143151E8001F23
:1026900021F040002168143141E80002002AF3D102
:1026A00000BF202084F83E00206B01280ED100BF1F
:1026B00000BF21680C3151E8001F21F01000216893
:1026C0000C3141E80002002AF3D100BF206B012841
:1026D00004D1A18D2046FEF7A3FF02E02046FFF7BC
:1026E000FCF970BD70B50546AC6B206B012805D1B7
:1026F000A08D41082046FEF793FF02E02046FFF739
:10270000EDF970BD70B50546AC6B2868006800F443
:102710008070F8B90020E08400BF00BF2168143148
:1027200051E8001F21F080002168143141E80002C7
:10273000002AF3D100BF00BF00BF21680C3151E86F
:10274000001F41F0400021680C3141E80002002ADE
:10275000F3D102E02046FFF719FA70BD70B50446C8
:10276000A56B2846FFF713FA70BD00BF00BF0268D3
:102770000C3252E8002F22F4907102680C3242E8C9
:102780000013002BF3D100BF00BF00BF026814325A
:1027900052E8002F22F001010268143242E80013CF
:1027A000002BF3D100BF016B01290ED100BF00BF88
:1027B00002680C3252E8002F22F0100102680C323D
:1027C00042E80013002BF3D100BF202180F83E1017
:1027D00000210163704710B504462068C06820F0EE
:1027E00040002168C860202084F83D002046FFF7A3
:1027F000CDF9002010BD00BF00BF02680C3252E8C6
:10280000002F22F0C00102680C3242E80013002BB6
:10281000F3D100BF202180F83D107047F8B5044681
:1028200094F83E00222873D1A068B0F5805F0CD1E7
:10283000206950B90025A66A20684068C0F30800E6
:102840003080A06A801CA06215E0A56A0026A068FE
:10285000B0F5805F03D0A06828B9206918B9206856
:102860004068287004E02068406800F07F0028700D
:10287000A06A401CA062E08D401E80B2E085002866
:1028800044D12068C06820F020002168C86020681A
:10289000C06820F480702168C8602068406920F01A
:1028A000010021684861202084F83E00206B012847
:1028B00026D10020206300BF00BF21680C3151E801
:1028C000001F21F0100021680C3141E80002002AAD
:1028D000F3D100BF2068006800F0100010280AD172
:1028E00000BF0020009020680068009020684068C9
:1028F000009000BF00BFA18D2046FEF791FE02E0D0
:102900002046FFF7EAF80020F8BD01E00020FBE7D1
:102910000220F9E72DE9F84F04462068006920F409
:102920004050E1680843216808612169A0680843B4
:1029300061690843E169084300902068C06849F272
:102940000C618843009908432168C8602068406989
:1029500020F44070A16908432168486176492068E5
:10296000884203D075492068884203D1FEF774FB82
:10297000814602E0FEF760FB8146E069B0F5004F5A
:102980006CD102206168A0FB015003461920A9FB0D
:10299000007001462A463846FDF7B2FC6421B0FBC0
:1029A000F1F04FEA001A02206168A0FB01510B46CA
:1029B0001920A9FB00712A463846FDF7A1FC834681
:1029C00002206168A0FB015003461920A9FB007199
:1029D0002A463846FDF794FC6421B0FBF1F000EB89
:1029E000C00101EB0010ABEB8000322101EBC00015
:1029F0006421B0FBF1F000F0F8000AEB400A02207D
:102A00006168A0FB015003461920A9FB0070014634
:102A10002A463846FDF774FC834602206168A0FB15
:102A2000015003461920A9FB00712A463846FDF7DC
:102A300067FC6421B0FBF1F000EBC00101EB00107A
:102A4000ABEB8000322101EBC0006421B0FBF1F060
:102A500000F007005044216888606AE00420616843
:102A6000A0FB015003461920A9FB007001462A462D
:102A70003846FDF745FC824604206168A0FB015002
:102A800003461920A9FB007001462A463846FDF787
:102A900037FC6421B0FBF1F000EBC00101EB00104A
:102AA000AAEB8000322101EB00106421B0FBF1F0B1
:102AB00000F0F00A04206168A0FB017003461920B1
:102AC000A9FB00513A462846FDF71AFC6421B0FBE9
:102AD000F1F00AEB001A04206168A0FB01510B46DB
:102AE0001920A9FB00712A463846FDF709FC8346E8
:102AF00004206168A0FB015003461920A9FB007067
:102B000001462A463846FDF7FBFB6421B0FBF1F095
:102B100000EBC00101EB0010ABEB8000322101EBB8
:102B200000106421B0FBF1F000F00F005044216868
:102B30008860BDE8F88F00000010014000140140DB
:102B400077B581B0044615460298A062A58500209D
:102B50002064222084F83E002A48A16BC8632A48DA
:102B6000A16B08642948A16BC8640020A16B0865AB
:102B700002AE32682368191D2B46A06BFDF766FF75
:102B800000BF002000902068006800902068406826
:102B9000009000BF00BF00BF002084F83C0000BFD1
:102BA000206970B100BF00BF21680C3151E8001FDF
:102BB00041F4807021680C3141E80002002AF3D111
:102BC00000BF00BF00BF2168143151E8001F41F071
:102BD00001002168143141E80002002AF3D100BF4E
:102BE00000BF00BF2168143151E8001F41F04000D0
:102BF0002168143141E80002002AF3D100BF00200F
:102C000004B070BD35260008E5260008E52500085B
:102C1000014691F83D00212828D18868B0F5805FF1
:102C20000BD1086948B90A6A1088C0F308000B681C
:102C30005860086A801C086205E00B6A581C08622C
:102C400018780B685860C88C401E80B2C88458B988
:102C50000868C06820F080000B68D8600868C06809
:102C600040F040000B68D860002070470220FCE76D
:102C700010B5174800681749884205D915485438D7
:102C8000006800F010001BE01148006812498842FB
:102C900005D910485838006800F0100010E00C48C2
:102CA00000680D496039884205D90B48B83840683A
:102CB00000F0100004E00848B838006800F0100088
:102CC00010B1002001F0AEFF0448FEF7ABFC10BDD0
:102CD0000401002058640240B8600240C000002097
:102CE00000BFFEE702480068C0F302207047000002
:102CF0000CED00E010B5002804DB0A07130E054AAE
:102D0000135406E00A07140E034A00F00F031B1FBA
:102D1000D45410BD00E400E018ED00E0014609B90C
:102D200000207047C8B220B1C8B20E4A105C401CE7
:102D3000F7E701F47F4028B10A48C1F30722805C1D
:102D40000930EEE701F47F0028B10648C1F30742DD
:102D5000805C1130E5E7034800EB11600078193022
:102D6000DFE70000884E000802E008C8121F08C113
:102D7000002AFAD170477047002001E001C1121FFC
:102D8000002AFBD17047000070B504460648006871
:102D9000FFF7C4FF451E054850F83500A0F11406A2
:102DA0002560304670BD000060000020440F002008
:102DB00070B50446A06A0078232809D1A16AE069A9
:102DC000884205D9D4E90A010844E16988420AD257
:102DD00021460AA000F0D0FDFDF7F4F9054600BF3A
:102DE000002DFDD108E0A06A2030E169814203D8BE
:102DF000214609A000F0C0FD70BD00007468726536
:102E000061643A257320737461636B206F76657219
:102E1000666C6F770A0000007761726E696E673AC0
:102E200020257320737461636B20697320636C6F5A
:102E3000736520746F20656E64206F662073746103
:102E4000636B20616464726573732E0A0000000076
:102E500070B501F001F90446FDF7B4F905462046C6
:102E600000F05AFF04F1440001F03CFA042084F819
:102E70003400204601F064F82846FDF7A7F900F079
:102E800053FE70BD2DE9FC5F04468B4615461E4679
:102E9000DDE90C9ADDE90E7804F114004060006071
:102EA00000BF1C346560A660C4F80C90C4F810A084
:102EB0002321D4E9030200F09DFDD4E9033C6344DF
:102EC0001A1F144BD4E9010100F014FD2060A7760D
:102ED00067760020E061C4F82080C4F82480606137
:102EE00020766065A0651C3C009023460A4A214676
:102EF000019004F1440001F009FA00BF074800689E
:102F000018B1204605490968884700BF0020BDE880
:102F1000FC9F0000512E0008212F00088000002097
:102F200070B504462546FDF74DF906466FF00100E1
:102F3000286305F1140000F04BFD284600F09EFECA
:102F40003046FDF743F900F0EFFD70BD2DE9F04785
:102F500004460E4617469846DDF8209084F80990FE
:102F6000607A20F001006072E66127620020A062B2
:102F7000C4F82480002506E004F1140101EBC5002B
:102F800000F014FD6D1C012DF6DBBDE8F08770B577
:102F90000546002406E005F1140101EBC40000F031
:102FA00020FD641C012CF6DB70BD000070B50446EA
:102FB0000D460F480068C06840F010000C490968D1
:102FC000C8600C480068006840F0100009490968B2
:102FD000086008480068006840F008000549096872
:102FE0000860AAB221460248FEF756FD70BD0000F7
:102FF000C00000200401002070B504460D460748BB
:103000000068006840F01000044909680860AAB22E
:1030100021460348FEF764FD70BD000064010020F6
:10302000C000002002480068406880B2704700007D
:103030000401002000F10C0343F82120704770B513
:1030400004462079A16888470546E07800F007002B
:10305000002802DD2088401C2080E078B5EBD01FDE
:1030600013D0E078C008401CE17860F3C501E1703E
:10307000C1F3C20003280CDBE07865F3C710E070F1
:10308000E07820F03800E07003E0E07820F03800CD
:10309000E070E07800F00700062876D2DFE800F064
:1030A0000326529DE7C6E078C0F38010E178B0EBCC
:1030B000D11F15D1A07820F0F000A070E06810B109
:1030C0002046E168884700202080A07820F00F008B
:1030D000401CA070E07820F00700401CE07004E085
:1030E000A07820F0F0008030A070C5E0E078C0F358
:1030F0008010E178B0EBD11F11D0A07820F0F00063
:103100001030A070206910B1204621698847002046
:103110002080E07820F00700801CE07011E020881B
:10312000C8280EDDA07820F0F0005030A070206A92
:1031300010B12046216A8847E07820F00700401D42
:10314000E07099E0E078C0F38010E178B0EBD11F37
:103150001CD1A07820F0F000A070E06810B12046EB
:10316000E1688847A078401CA17860F30301A17052
:10317000606910B120466169884700202080E078AE
:1031800020F00700C01CE07026E070E020883C289A
:1031900022DDA07800F00F0001280AD1A07820F0ED
:1031A000F0003030A070A06990B12046A169884736
:1031B0000EE0A07800F00F00022809D1A07820F0DE
:1031C000F0004030A070E06910B12046E169884706
:1031D000E07820F00700E0704EE0E078C0F3801067
:1031E000E178B0EBD11F19D0A07820F0F0001030BA
:1031F000A070206910B120462169884720883C28AA
:1032000007DA00202080E07820F00700801CE070C2
:103210000BE0E07820F00700E07006E020883C2812
:1032200003DDE07820F00700E07025E0E078C0F3EF
:103230008010E178B0EBD11F0AD1A07820F0F00027
:103240006030A070606A88B12046616A88470DE0EE
:10325000A07820F0F0001030A070206910B1204656
:1032600021698847E07820F00700E07004E0E0780A
:1032700020F00700E07000BF00BF70BD2DE9F041F5
:1032800004460E4617461D462C212046FDF770F8D1
:10329000A07820F0F0008030A070A6602846A168D9
:1032A0008847E17860F3C711E170E07867F3861032
:1032B000E0702571BDE8F08101460948026805E02B
:1032C0008A4202D14FF0FF307047926A002AF7D14C
:1032D000034800688862024801600020F4E70000AB
:1032E000BC00002010B50548046803E02046FFF745
:1032F000A6FEA46A002CF9D110BD0000BC0000207D
:1033000000B502460AB9002000BD104600F004F8DE
:1033100051680B1A1846F7E7014609B900207047B3
:103320008868FCE772B670472DE9F04104460E4606
:1033300015464FF0000800270DB104B116B9002062
:10334000BDE8F0812046FFF7E7FF07460FB90020F0
:10335000F6E7AF4200D23D46606908B16069804738
:10336000A84610E02169481C2061087806F8010B86
:10337000D4E9000108442169884201D8206820610D
:10338000A068401EA060B8F10000A8F10108E9D1D2
:10339000A06908B1A06980472846D1E730B5039CF1
:1033A000426001600568C5600568056100258560AB
:1033B0004361846130BD62B670472DE9F041044637
:1033C0000E4615464FF0000800270DB104B116B99E
:1033D0000020BDE8F0812046FFF792FF07460FB9B5
:1033E0000020F6E7AF4200D23D46A846606908B12A
:1033F0006069804710E016F8011BE268501CE0602D
:103400001170D4E900010844E168884201D82068BD
:10341000E060A068401CA060B8F10000A8F10108BD
:10342000E9D1A06908B1A06980472846D1E700002A
:103430000CE0002405E0064850F8245005B1A847E8
:10344000641C042CF7D300F00DF900BFF1E7000075
:10345000B40E002005E0002001F098FC052000F0EB
:103460007DFDF8E710B5044600F0EEF8FFF7F2FF37
:1034700010BD00002DE9F04F89B00D461E46DDE974
:103480001374B946129B04F0400ABAF1000F02D03F
:10349000DFF86CA101E0DFF86CA1CDF800A004F02A
:1034A000100ABAF1000F01D024F0010404F0010A5F
:1034B000BAF1000F02D04FF0300A01E04FF0200ABD
:1034C000D0464FF0000C04F0020ABAF1000F14D0FD
:1034D000002A03DA4FF02D0C52420EE004F0040AE9
:1034E000BAF1000F02D04FF02B0C06E004F0080AEE
:1034F000BAF1000F01D04FF0200C002142B94FF07B
:10350000300B8A46491C0DF1040E0EF80AB014E087
:1035100011E000BFB2FBF6FB06FB1B2AB2FBF6F282
:1035200000BFDDF800B01BF80AB08A46491C0DF157
:10353000040E0EF80AB0002AEBD1B94200DD0F46A6
:10354000DB1B04F0110ABAF1000F12D1BCF1000F1D
:1035500002D0002B00DD5B1E06E0A84203D24FF034
:10356000200A80F800A0401CB3F1000AA3F1010377
:10357000F3DCBCF1000F05D0A84201D280F800C0F6
:103580005B1E401C04F0100ABAF1000F0AD104E0DF
:10359000A84201D280F80080401CB3F1000AA3F1D8
:1035A0000103F5DC06E0A84203D24FF0300A80F8B0
:1035B00000A0401CBA467F1E8A45F4DC08E0A84201
:1035C00005D20DF1040A1AF801A080F800A0401CF1
:1035D000B1F1000AA1F1010102DDB9F1000FEED154
:1035E00006E0A84203D24FF0200A80F800A0401C59
:1035F000B3F1000AA3F10103F3DC09B0BDE8F08FD9
:10360000994F0008884F00087FB50A4C1420032109
:103610004FF40062084BCDE90032CDE902100023DF
:10362000064A07A1204600F0D3FC0546204600F0DC
:1036300040FD7FBDC4090020C4010020653400089E
:103640006D61696E0000000010B5044C02E0206856
:103650008047241D02488442F9D310BDF44F00086E
:10366000FC4F000870B512E000F04CFC044604B9B1
:103670000EE0256F204600F04DFA0646012E02D1DD
:10368000204600F0E3F90DB12046A84700BFEBE764
:1036900000BF70BD10B5FDF73DFBFEF77DFDFEF7E9
:1036A00065FCFEF73FFCFEF7E3FCFEF721FD002082
:1036B00001F0F8F910BD70B504462046FCF763FE32
:1036C00085B22A462146002001F0BAFB70BD0000F9
:1036D0002DE9F041054605F128062C1D314800680A
:1036E00040B130462F490968884707460FB9BDE801
:1036F000F08100BF2CA0216C00F03EF92EA0616A81
:1037000000F03AF930A0A16A00F036F932A0E16A7F
:1037100000F032F934A0216B00F02EF936A0616878
:1037200000F02AF938A0A16800F026F93AA0E16873
:1037300000F022F93CA0216900F01EF93EA0616969
:1037400000F01AF940A0A16900F016F942A0E16961
:1037500000F012F944A0216A00F00EF946A0616B56
:1037600000F00AF948A0A16B00F006F94AA0E16B4D
:1037700000F002F9287800F0040038B100F06CFC89
:103780000746394648A000F0F7F802E04EA000F0E6
:10379000F3F8287800F0100010B952A000F0ECF80F
:1037A00000BFFEE7A40000207073723A2030782535
:1037B0003038780A000000007230303A2030782526
:1037C0003038780A000000007230313A2030782515
:1037D0003038780A000000007230323A2030782504
:1037E0003038780A000000007230333A20307825F3
:1037F0003038780A000000007230343A20307825E2
:103800003038780A000000007230353A20307825D0
:103810003038780A000000007230363A20307825BF
:103820003038780A000000007230373A20307825AE
:103830003038780A000000007230383A203078259D
:103840003038780A000000007230393A203078258C
:103850003038780A000000007231303A2030782584
:103860003038780A000000007231313A2030782573
:103870003038780A000000007231323A2030782562
:103880003038780A00000000206C723A2030782529
:103890003038780A000000002070633A2030782524
:1038A0003038780A00000000686172642066617533
:1038B0006C74206F6E207468726561643A202573A1
:1038C0000D0A0D0A000000006861726420666175CF
:1038D0006C74206F6E2068616E646C65720D0A0DE9
:1038E0000A00000046505520616374697665210D19
:1038F0000A000000F0B504460D461646301D20F0C3
:10390000070044380146002203E00D4F41F82270C1
:10391000521C112AF9D34D624FF0000CC1F828C097
:10392000C1F82CC0C1F830C0C1F834C08B63CC637F
:103930004FF0807CC1F840C000270F60F0BD000050
:10394000EFBEADDE10B5FCF73DFC0446084800783C
:10395000401C0749087000BF0648006810B10548C0
:103960000068804700BF2046FCF730FC10BD000017
:1039700028000020200000200FB438B505A80090D2
:103980007F210948009B049A00F084FD04467F2CA7
:1039900000D97F240448FFF78EFE002000902046C7
:1039A00038BC5DF814FB0000C40E002040600060CD
:1039B00070470268516002680A60016048607047A1
:1039C00001460868884201D1012070470020FCE7C9
:1039D000D0E900215160D0E9001211604060006020
:1039E0007047D0E900215160D0E9001211604060B9
:1039F00000607047F8B50C460546E6B2042A1DD3B0
:103A000000F00307D7B90146002302E00DF8036078
:103A10005B1C042BFAD308E0009F80C1009F80C18B
:103A2000009F80C1009F80C1103A102AF4D202E0AA
:103A3000009F80C1121F042AFAD20D4601E005F84A
:103A4000016B171EA2F10102F9D1F8BD70B5044651
:103A500000BF0E48006818B120460C490968884725
:103A600000BF00202072FCF7ADFB054604F10C00FE
:103A7000D0E900215160D0E900121160406000607F
:103A800000BF2846FCF7A2FB70BD000050000020DC
:103A9000024600210AE0074800EB0110007890423E
:103AA00003D1044800EB01107047491C0229F2DBE6
:103AB0000020F9E72C0000202DE9F04104460D46D6
:103AC00016462846FFF7E4FF074645F080002072BF
:103AD00008223146204600F0BCF900BF0C480068BF
:103AE00018B120460A490968884700BFFCF76AFBFD
:103AF0008046381D04F10C010268516002680A60BA
:103B00000160486000BF4046FCF760FBBDE8F08103
:103B10004C0000200146087A00F0800008B1012026
:103B200070470020FCE70000F8B5FCF74BFB0646A9
:103B30004B480088002872D14A48006800286FD09E
:103B400000276846FFF720F904464748006890F8C8
:103B5000340000F00700032825D14348006890F89E
:103B600035000099884202D23F48046811E03E487F
:103B7000006890F835000099884209D13A480068F9
:103B800090F8340000F0080010B93748046800E0ED
:103B900001273548006890F8340020F008003249C9
:103BA000096881F8340030480068844240D02F49C9
:103BB000009808702C480568046000BF2C48006815
:103BC00020B1214628462A4A1268904700BF17B103
:103BD000284600F053F8204600F09EF894F8340090
:103BE00020F0070040F0030084F834002046FFF77F
:103BF000DFF820480078A0B900BF1F48006818B15E
:103C000028461D490968884700BF04F11C0105F1D9
:103C10001C00FCF7DEFA3046FCF7D8FA1EE019E08B
:103C200017E004F11C0105F11C00FCF7D2FA0FE0CB
:103C30000D48006800F070F80B48006890F83400F8
:103C400020F0070040F003000749096881F83400BC
:103C500000BF00BF3046FCF7B9FA00BFF8BD000056
:103C60006400002060000020680000206C0000203C
:103C700070000020280000207400002070B5044669
:103C8000FCF7A0FA054621480068844208D194F860
:103C9000340020F0070040F0030084F8340030E0E6
:103CA00014F8340F20F0070040F00100207014F8E1
:103CB000340900F0080070B194F83520144B03EB80
:103CC000C20004F114014268116042684A60416018
:103CD000086000BF0EE094F835200D4B03EBC200E6
:103CE00004F114010268516002680A6001604860D2
:103CF00000BF00BF0749A06B096808430549086079
:103D000000BF2846FCF762FA70BD00006800002082
:103D1000440F00206000002070B50446FCF752FA02
:103D2000054604F11400D0E900215160D0E90012E9
:103D300011604060006000BF94F83510094A02EB42
:103D4000C1000168814201D1012100E0002129B1B7
:103D50000548A16B00688843034908602846FCF7C2
:103D600035FA70BD440F0020600000201CB50AA089
:103D7000FFF702FE0BA0FFF7FFFD13A015A1002324
:103D80001A46CDE90010052115A0FFF7F5FD1DA08D
:103D9000FFF7F2FD1CBD00000A205C207C202F0AEA
:103DA000000000002D205254202D202020202054DF
:103DB0006872656164204F7065726174696E672016
:103DC00053797374656D0A0031383A33313A3230C1
:103DD000000000004665622031322032303233006C
:103DE000202F207C205C202020202025642E25648C
:103DF0002E2564206275696C642025732025730A62
:103E0000000000002032303036202D203230323297
:103E100020436F7079726967687420627920525408
:103E20002D546872656164207465616D0A0000003C
:103E30000FB438B5044606A800902046009A0599AC
:103E400000F0D0FC054600200090284638BC5DF804
:103E500014FB70B50346A2B118460C4600BF14F817
:103E6000016B00F8016B3EB902E0002500F8015B30
:103E7000551E2A1EF9D102E0551E2A1EEFD100BFA1
:103E800000BF184670BD00000020094A108001469E
:103E900007E0084A02EBC1004060006000BF481C18
:103EA00001462029F5DB0020034A1060704700001E
:103EB00064000020440F00206000002038B56846F0
:103EC000FEF762FF0446064804602046FFF724FF21
:103ED000032084F8340004F11C00FCF7C0F938BD5D
:103EE0006800002010B5002405E0044901EBC4007F
:103EF000FFF75CFD641C002CF7D010BD840000208F
:103F00007047000070B500250C4C2068A04213D00B
:103F10002068A0F11405FCF755F9064605F11400D8
:103F2000D0E900215160D0E90012116040600060CA
:103F300000BF3046FCF74AF9284670BD1800002043
:103F40000246054802F114010368596003680B60DA
:103F50000160486000BF70471800002010B504469B
:103F6000204600F07FF810BD10B586B0002420E098
:103F7000224612A104A8FFF75BFF20211F224B015C
:103F8000104800EB8420CDE9013203910090C4EB8E
:103F900004110D4A02EBC10000230C4A04A900F0F1
:103FA00017F8C4EB0411084A02EBC10000F081F8D5
:103FB000641C002CDCD006B010BD00007469646C79
:103FC00065256400B40A00203C0A00203134000852
:103FD0002DE9FF5F05460C4616461F46DDE910AB8E
:103FE000DDE90E89224601212846FFF765FD3B46A3
:103FF0003246214628468DE8000FFEF743FF04B005
:10400000BDE8F09F70B5044694F8340000F0070056
:10401000022802D04FF0FF3070BDFCF7D3F8054600
:1040200004F11400FFF7D4FC04F1440000F00EFA90
:104030002046FFF723FE2846FCF7C8F800BF0548D6
:10404000006818B1204603490968884700BF00206E
:10405000E2E700007C000020014800687047000093
:104060006800002031B5009810B96FF0090038BD24
:10407000FFF7F2FF0446FCF7A5F805460020206391
:10408000204600F02BF86A46002104F1440000F0BD
:10409000F5F804F1440000F051F92846FCF796F8D1
:1040A000FFF742FD206B801C08B900202063206BC5
:1040B000DDE710B5044694F8351001208840A06370
:1040C000022084F834002046FFF79CFFFFF7C4FF6E
:1040D00008B1FFF729FD002010BD000070B50446AF
:1040E00094F8340000F00705012D04D0032D02D010
:1040F0004FF0FF3070BDFCF765F806462046FFF72D
:104100000BFE94F8340020F0070040F0020084F821
:10411000340004F1440000F099F93046FCF756F8F9
:1041200000BF0548006818B1204603490968884760
:1041300000BF0020DEE70000780000200148006892
:10414000704700001000002070B500BF15480068DF
:1041500010B114480068804700BFFCF733F80546EB
:1041600011480068401C10490860FFF775FF0446BD
:10417000206C401E2064206C68B9E06B206494F8C9
:10418000340040F0080084F834002846FCF71EF89C
:10419000FFF7CAFC02E02846FCF718F800F006F822
:1041A00070BD000014000020100000207CB568469F
:1041B000FFF7FCFBFFF7C2FF0546FCF703F80646D6
:1041C0004CE02B480068A0F11404A06A281A6FF094
:1041D0000041884240D200BF2648006818B12046FE
:1041E00024490968884700BF2046FEF7D0FE607A60
:1041F00000F0020018B9607A20F00100607204F14A
:1042000014016846FFF7D5FBD4E907108847FFF78C
:1042100095FF054600BF1848006818B120461649AA
:104220000968884700BF6846FFF7CAFB00B115E080
:1042300004F11400FFF7D5FB607A00F0020060B1D2
:10424000607A00F0010040B1607A20F001006072F5
:10425000204600F073F800E005E000BF0448FFF7D7
:10426000AFFB0028ADD000BF3046FBF7AFFF7CBDF1
:10427000840000208C000020900000202DE9F041F7
:1042800004460E461546FBF79DFF0746062E21D233
:10429000DFE806F00603090E131D606A28601AE0C5
:1042A0002868606217E0607A20F00200607212E015
:1042B000607A40F0020060720DE0607A00F0010068
:1042C00010B10120286001E00020286003E0A06A0E
:1042D000286000E000BF00BF3846FBF777FF0020F2
:1042E000BDE8F08170B50446FBF76CFF054620463B
:1042F000FEF74DFE607A20F0010060722846FBF761
:1043000065FF2046FFF7A2FB002070BD2DE9F843B2
:1043100007460C4615461E46DDE9088922460A2155
:104320003846FFF7C9FB4346324629463846CDF8A2
:104330000090FEF70BFEBDE8F88300002DE9F8437E
:1043400005464FF00008FBF73DFF81462846FEF783
:104350001EFE687A20F00100687200BF38480068CD
:1043600018B1284636490968884700BFFFF7E6FEBE
:10437000696A0844A862334E009600242AE019E0D6
:104380005DF824201168142202EBC402881A826AA4
:10439000AB6AD21A00D108E0826AAB6AD21A6FF017
:1043A00000439A4200D20CE000BF5DF82400006890
:1043B0004DF824005DF8240006EBC40149688842EA
:1043C000DED100BF2CB15DF824000830611C4DF82F
:1043D0002100641C002CD2D01B480068401C1A49E4
:1043E00008600846076805F114010098FFF7E1FA34
:1043F000022412E007F0030060B9C4F1010305F1E3
:10440000140202EBC301C4F101025DF82200FFF7C0
:10441000D0FA00E003E0BF08641C012CEAD900BF19
:10442000687A40F0010068724846FBF7CFFEB8F1A9
:10443000000F01D0FFF778FB0020BDE8F8830000F3
:1044400058000020840000209400002070B504462D
:10445000607A00F0010010B94FF0FF3070BD00BF6E
:104460000B48006818B1204609490968884700BF11
:10447000FBF7A8FE05462046FEF789FD607A20F08E
:10448000010060722846FBF7A1FE0020E6E700006D
:104490005C0000202DE9FF4F89B081464C460A9808
:1044A00009EB00064E4504D24FF0FF36A6EB09009B
:1044B0000A907EE10B980078252806D0B44202D2FB
:1044C0000B9800782070641C70E1002526E00B98A2
:1044D000401C0B900B9800782D2802D145F0100558
:1044E0001CE00B9800782B2802D145F0040515E05C
:1044F0000B980078202802D145F008050EE00B98B3
:104500000078232802D145F0200507E00B980078B9
:10451000302802D145F0010500E000E0D7E700BFF8
:104520004FF0FF370B98007830380A2804D20BA8D8
:1045300000F080F907460EE00B9800782A280AD18F
:104540000B98401C0B900C9880C80C90002F02DA3E
:104550007F4245F010054FF0FF3A0B9800782E2867
:104560001CD10B98401C0B900B98007830380A280F
:1045700004D20BA800F05EF982460AE00B9800789E
:104580002A2806D10B98401C0B900C9850F804ABCD
:104590000C90BAF1000F01DA4FF0000A00200490ED
:1045A0000B980078682803D00B9800786C2805D108
:1045B0000B98007804900B98401C0B900A200590F3
:1045C0000B980078692877D00CDC622875D004DC61
:1045D000252873D0582872D19CE063280FD0642816
:1045E000F9D19DE073282BD004DC6F2868D07028A7
:1045F000F1D171E075286ED07828ECD18DE005F00E
:10460000100040B904E0B44201D220202070641CA4
:10461000781E071EF7DC0C9810F8041B0C90C8B22B
:104620000790B44201D207982070641C04E0B442A1
:1046300001D220202070641C781E071EF7DCB5E034
:104640000C98006806900C98001D0C90069808B90C
:1046500062A006904FF0000801E008F10108B8459B
:1046600004D0069810F808000028F6D1BAF1000F1F
:1046700002DDD04500DDD04605F0100048B904E069
:10468000B44201D220202070641C38467F1E404571
:10469000F6DC002008900BE0B44202D206980078C5
:1046A0002070641C0698401C06900898401C0890D6
:1046B00008984045F0DB09E033E025E01EE034E0F7
:1046C00025E0B44201D220202070641C38467F1EB1
:1046D0004045F6DC6AE027E0781C10B9082745F071
:1046E0000105CDE9007A02950C9804C810233146E3
:1046F0000C902046FEF7BEFE044657E0B44201D2BD
:1047000025202070641C51E00220059020E0082044
:1047100005901DE045F0400500BF1020059017E012
:1047200000BF45F0020500BF12E0B44201D22520CF
:104730002070641C0B98007830B1B44202D20B9800
:1047400000782070641C02E00B98401E0B902DE056
:1047500000BF04986C2807D10C9850F804BB0C904B
:1047600005F00200B8B116E0049868280BD10C9847
:1047700030F8041B1FFA81FB0C9005F0020050B1C9
:104780000FFA8BFB07E00C9850F804BB0C9005F077
:10479000020000B100BFCDE9007A02955A463146C9
:1047A0002046059BFEF766FE044600BF0B98401CA2
:1047B0000B900B98007800287FF47CAE0A9838B1F3
:1047C000B44202D20020207002E0002006F8010C62
:1047D000A4EB09000DB0BDE8F08F0000284E554C49
:1047E0004C29000037B505460C4622464FF0FF31F4
:1047F0002846029BFFF74EFE3EBD0020704700207A
:104800007047002070470020704710B5FBF7DAFCB6
:10481000FEF740FFFFF7AAFAFFF764FBFFF734FB50
:10482000FEF7F2FEFFF76CFBFFF79EFBFFF746FB80
:10483000002010BD0146002009E00B685A1C0A60E8
:104840001A7800EB800302EB4302A2F130000A6801
:104850001278303A0A2AF0D37047FDF7FFFD04E0E2
:10486000FDF7F4FD0520FFF779FBF9E7FDF712FEF0
:1048700004E0FDF707FE0520FFF770FBF9E7FDF701
:1048800025FE04E0FDF71AFE0520FFF767FBF9E7B8
:10489000FDF738FE04E0FDF72DFE0520FFF75EFB77
:1048A000F9E7FDF74BFEFDF773F904E0FDF73EFE77
:1048B0000520FFF753FBF9E71FB505204FF4007201
:1048C0003D4BCDE901200093039000233B4A3CA1DE
:1048D0003D48FFF77DFB04461CB93B48FFF7E9FB69
:1048E00003E0214639A0FFF747F805200A214FF4DD
:1048F00000723C4BCDE90032CDE9021000233A4A68
:104900003AA13C48FFF764FB04461CB93948FFF75D
:10491000D0FB03E0214638A0FFF72EF805200F2139
:104920004FF400723A4BCDE90032CDE9021000237A
:10493000384A39A13A48FFF74BFB04461CB93848BE
:10494000FFF7B7FB03E0214636A0FFF715F8052077
:1049500014214FF40072394BCDE90032CDE9021039
:104960000023374A37A13948FFF732FB04461CB908
:104970003648FFF79EFB03E0214635A0FEF7FCFF1B
:10498000052019214FF40072374BCDE90032CDE9F3
:1049900002100023354A36A13748FFF719FB0446B9
:1049A0001CB93548FFF785FB03E0214633A0FEF72D
:1049B000E3FF002004B010BDE03E00205B4800088B
:1049C0007468726561643100683E002074687265C5
:1049D00061643120696E6974206661696C20257597
:1049E0000D0A0000584100206D4800087468726587
:1049F00061643200E04000207468726561643220B6
:104A0000696E6974206661696C2025750D0A000065
:104A1000D04300207F4800087468726561643300E9
:104A2000584300207468726561643320696E69744C
:104A3000206661696C2025750D0A0000484600203B
:104A4000914800087468726561643400D0450020A4
:104A50007468726561643420696E69742066616986
:104A60006C2025750D0A0000C0480020A3480008EE
:104A70007468726561643500484800207468726526
:104A800061643520696E6974206661696C202575E2
:104A90000D0A000070B504460D4629462046FEF773
:104AA00085FA70BD38B50446002C58D104EB44019A
:104AB00001EB0411504A02EB81010090081D002314
:104AC0004FF480524D49FEF769FC4D4804EB440118
:104AD00001EB0411484A02EB8101009001F1200032
:104AE000484B4FF480524849FEF758FC474804EBC6
:104AF000440101EB0411404A02EB8101C8634FF409
:104B0000806004EB440101EB041102EB8101A1F888
:104B100040003F4804EB440101EB041102EB81012A
:104B200048644FF4806004EB440101EB041102EB94
:104B30008101A1F8480004EB440101EB041102EBF0
:104B40008101C86B4FF48061FFF7A4FF002004EBE4
:104B5000440101EB0411284A02F821004AE0012C2B
:104B600048D1274804EB440101EB0411224A02EB2F
:104B700081010090081D234BA2022649FEF70EFC7E
:104B80001F4804EB440101EB04111B4A02EB8101B5
:104B9000009001F120001B4B7C221F49FEF7FEFB19
:104BA0001E4804EB440101EB0411134A02EB81019E
:104BB000C863802004EB440101EB041102EB810186
:104BC000A1F84000164804EB440101EB041102EB8C
:104BD00081014864802004EB440101EB041102EBE5
:104BE0008101A1F84800002004EB440101EB04110D
:104BF00002F8210038BD0000C03D00204410002014
:104C0000B73300082533000844200020443000203A
:104C10004434002044380020443C0020C03C0020A4
:104C2000403D002070B5044604EB440000EB041046
:104C3000224901EB8000B0F8400004EB440101EB95
:104C400004111E4A02EB8101B1F84A10401A85B2E4
:104C5000012000EB44001A4951F8200028440121AA
:104C600001EB4401164A42F8210004EB440202EB36
:104C70000412124B03EB8202D26B04EB440303EBEE
:104C800004130E4E06EB8303B3F84A30D11804EB3D
:104C9000440202EB0412334603EB820202F12000CD
:104CA0002A46FEF78AFB002004EB440101EB0411C5
:104CB000324602EB8101A1F84A0070BDC03D0020E0
:104CC000583E00202DE9F04104466CB9FEF7AAF9E0
:104CD00004EB440101EB0411244A02EB8101B1F819
:104CE0004010081A85B200E000BF04EB440000EB5E
:104CF00004101E4901EB8000B0F84A00281A86B261
:104D0000012000EB44001A4951F8200030440121F1
:104D100001EB4401164A42F8210004EB440202EB85
:104D20000412124B03EB8202D26B04EB440303EB3D
:104D300004130E4F07EB8303B3F84A30D11804EB8A
:104D4000440202EB04123B4603EB820202F1200014
:104D50003246FEF732FB04EB440000EB0410394608
:104D600001EB8000A0F84A50BDE8F081C03D002072
:104D7000583E0020002100EB400202EB0012024BE3
:104D800003F8221070470000C03D002070B50446B3
:104D9000002504EB440000EB0410274911F8200023
:104DA000012800D170BD04EB440303EB0413224E31
:104DB00006EB8303B3F8482004EB440303EB04132E
:104DC00006EB8303596C04EB440303EB041306EB7B
:104DD0008303181DFEF7A8FA85B2FDB1002000EB91
:104DE0004400164951F820002844002101EB4401F9
:104DF000124A42F8210094B9012004EB440101EB6E
:104E00000411324602F8210004EB440101EB0411C5
:104E100002EB8101486C2946FEF7EEF809E0012C0F
:104E200007D1012004EB440101EB0411024A02F80E
:104E3000210000BFB6E70000C03D0020583E002022
:104E400070B504460D46164604EB440101EB04110F
:104E5000044A02EB8101081D32462946FEF7ADFAED
:104E600080B270BDC03D002000061016000610166E
:104E7000000000000000000001020304060708090A
:104E80000000000001020304000001000200010014
:104E90000300010002000100040001000200010003
:104EA00003000100020001000500010002000100F2
:104EB00003000100020001000400010002000100E3
:104EC00003000100020001000600010002000100D1
:104ED00003000100020001000400010002000100C3
:104EE00003000100020001000500010002000100B2
:104EF00003000100020001000400010002000100A3
:104F0000030001000200010007000100020001008F
:104F10000300010002000100040001000200010082
:104F20000300010002000100050001000200010071
:104F30000300010002000100040001000200010062
:104F40000300010002000100060001000200010050
:104F50000300010002000100040001000200010042
:104F60000300010002000100050001000200010031
:104F70000300010002000100040001000200010022
:104F8000030001000200010030313233343536377E
:104F900038396162636465660030313233343536E6
:104FA000373839414243444546000000C04A00209A
:104FB0006D250008D44A002081250008E84A002019
:104FC00095250008FC4A0020A9250008104B002068
:104FD000BD250008244B002065250008384B002023
:104FE000644B0020904B0020BC4B00200748000879
:104FF000FF470008FB470008B948000803480008BD
:105000002050000800000020C0000000682D0008AB
:10501000E0500008C0000020284F0000782D000854
:105020000000000010000000010000000024F40057
:105030000000000000000000180000201800002000
:10504000000000000000000000000000010000005F
:105050003000002030000020780000000A0000002E
:1050600040000020400000202C0000000000000054
:105070000000000000000000000000000000000030
:105080000000000000000000000000000000000020
:105090000000000000000000000000000000000010
:1050A0000000000000000000000000000000000000
:1050B00000000000000000000000000000000000F0
:1050C00000000000000000000000000000000000E0
:1050D00000000000000000000000000000000000D0
:040000050800018965
:00000001FF
