:020000040800F2
:1000000018AD0020A101000809240008AD02000875
:1000100005240008E1080008F93400080000000089
:10002000000000000000000000000000D9250008CA
:100030007B0B000800000000F30100087D2600088B
:10004000BB010008BB010008BB010008BB010008A0
:10005000BB010008BB010008BB010008BB01000890
:10006000BB010008BB010008BB010008BB01000880
:10007000BB010008BB010008BB010008BB01000870
:1000800041090008050A0008BB010008BB0100087F
:10009000BB010008BB010008BB010008BB01000850
:1000A000BB010008BB010008BB010008BB01000840
:1000B000BB010008BB010008BB010008BB01000830
:1000C000BB010008BB010008BB010008BB01000820
:1000D000BB010008BB01000889340008BB0100080F
:1000E000BB010008BB010008BB010008BB01000800
:1000F000BB010008BB010008BB010008BB010008F0
:10010000BB010008BB010008BB010008BB010008DF
:10011000BB010008BB010008BB010008BB010008CF
:10012000BB010008BB010008BB010008BB010008BF
:10013000BB010008BB010008BB010008BB010008AF
:10014000BB010008BB010008BB010008BB0100089F
:10015000BB010008BB010008BB010008BB0100088F
:10016000BB010008BB010008BB010008BB0100087F
:10017000BB010008BB010008BB0100080000000033
:10018000BB010008BB010008DFF810D000F022FB23
:1001900000480047D7080008AFF3008018AD0020E2
:1001A0000648804706480047FEE7FEE7FEE7FEE711
:1001B000FEE7FEE7FEE7FEE7FEE7FEE7A927000809
:1001C00089010008EFF3108072B6704780F3108841
:1001D0007047444A1368012B04D04FF001031360A9
:1001E000414A1060414A116041484FF0805101601E
:1001F0007047EFF3108272B63A48016851B34FF07E
:10020000000101603848016891B1EFF309811EF0E7
:10021000100F08BF21ED108B21E9F00F4FF0000403
:100220001EF0100F08BF012441F8044D0068016062
:100230002E490968096808C9B1E8F00F002B18BFFA
:10024000B1EC108B81F309884EF0100E002B18BF13
:100250002EF0100E82F310884EF0040E70472349E2
:100260000860EFF3148222F0040282F314881E491E
:100270004FF0000008601B494FF0010008601D4866
:100280001D49D0F8002041EA0201016018484FF0F2
:100290008051016019480068006880F3088861B6E1
:1002A00062B6BFF34F8FBFF36F8F70471EF0040F1E
:1002B0000CBFEFF30880EFF3098020E9F00F40F85E
:1002C00004ED40F804ED1EF0040F0CBF80F3088825
:1002D00080F3098800B504F09FFF5DF804EB4EF051
:1002E000040E7047B0000020A8000020AC000020E1
:1002F00004ED00E020ED00E00000FFFF08ED00E06D
:100300002DE9F05F0546002092469B46884606464A
:10031000814640241BE0284641464746224600F0DD
:1003200091F853465A46C01A914110D311461846C7
:10033000224600F078F82D1A67EB01084F46224656
:100340000120002100F06FF817EB00094E41201E3C
:10035000A4F10104DFDC484631462A464346BDE8A5
:10036000F09F40EA01039B0703D009E008C9121F70
:1003700008C0042AFAD203E011F8013B00F8013B5F
:10038000521EF9D27047D2B201E000F8012B491E8B
:10039000FBD270470022F6E710B513460A46044622
:1003A0001946FFF7F0FF204610BD30B505462A4636
:1003B0000B4612F8010B13F8014B08B1A042F8D01C
:1003C0001CB1002802D06D1CF1E7284630BD421C4C
:1003D00010F8011B0029FBD1801A704730B5054683
:1003E0000020034600E05B1C934205D2EC5CC85C35
:1003F000201A01D1002CF6D130BD30B50B46014694
:1004000000202022012409E021FA02F59D4205D3B3
:1004100003FA02F5491B04FA02F52844151EA2F15D
:100420000102F1DC30BD202A04DB203A00FA02F19F
:10043000002070479140C2F1200320FA03F31943D2
:1004400090407047202A04DB203A21FA02F0002174
:10045000704721FA02F3D040C2F1200291400843D4
:10046000194670472DE9FE4F804681EA0300C00F10
:100470000C46009021F0004123F00045B8EB02004B
:10048000A94105D24046214690461C460B460246ED
:1004900023F00040104347D0270DC7F30A00C3F3F1
:1004A0000A510290401A019040286BDAC3F31300FE
:1004B00040F4801B0098924620B10023D2EB030A3F
:1004C00063EB0B0B01985946C0F140025046FFF711
:1004D000AAFF06460D4650465946019A00F08CF98F
:1004E00010EB08006141002487EA115284EAE773A7
:1004F0001A4340D0009A62B3019A012A4FEA075288
:1005000015DC001B61EB02014FF0004202EA0752CA
:10051000CDE90042001C41F5801132462B4600F027
:100520008CF903B0BDE8F08F40462146F9E7001B87
:1005300061EB0201001C41F5801300185B4120189B
:10054000A2F5001747EB030140EAD570B6196D41DB
:1005500011E06D084FEA360645EAC0754FEA0752CA
:10056000001B61EB0201001C41F5801149084FEAB4
:1005700030000019514132462B4603B0BDE8F04F20
:1005800000F04CB90098012240000023D0EB020299
:1005900063EBE073009821464FEAE074B8EB00008B
:1005A00061EB0401E9E783F000435BE781F0004180
:1005B00058E72DE9FE4F81EA030404F0004421F0DE
:1005C000004100944FF0000B23F0004350EA010477
:1005D0005ED052EA03045BD0C3F30A54C1F30A5558
:1005E0002C44A4F2F3340194A0FB0254C1F3130190
:1005F00041F48011C3F3130343F4801301FB02445D
:1006000000FB034E840A970A44EA815447EA835761
:10061000A4FB076802958D0A05FB07854FEA932C1A
:1006200004FB0C542705029D4FEA065847EA16378B
:10063000B5EB08056EEB070C870E920E47EA8117A3
:1006400042EA8312A7FB0201B6EB0B0164EB000444
:100650002B0D43EA0C335E1844EB1C50DA4651462E
:10066000E7FB0201C5F313044FEA0B3343EA1453CB
:100670004FEA0432019C43EA0603A4F10C040294FD
:10068000009CCDE900B400F0D8F803B0BDE8F08FCD
:1006900000200146F9E72DE9F04D81EA030404F05A
:1006A000004B21F0004514464FF0000A23F00041B2
:1006B00050EA050220D054EA01021DD0C5F30A57C2
:1006C0000246C5F31303C1F31300C1F30A5640F405
:1006D000801543F48013A7EB0608101BD64608F2DA
:1006E000FD3873EB050002D308F1010801E0921810
:1006F0005B41B8F1000F03DA00200146BDE8F08D40
:1007000000204FF48011064684460EE0171B73EB61
:10071000050705D3121B63EB050306434CEA010CE6
:1007200049084FEA300092185B4150EA0107EDD1C9
:1007300052EA030012D082EA040083EA050108436A
:1007400005D0101BAB4106D20122002306E0002297
:100750004FF0004302E06FF0010253101AEB060065
:100760004CEB085110EB0A0041EB0B01BDE8F04DDA
:1007700000F054B8C1F30A52C1F3130140F2FF3341
:1007800041F480119A4202DA00200146704740F29B
:1007900033439A42A2F2334202DC5242FFF752BE86
:1007A000FFF741BE30B5041E71F1000404DB4FF0C9
:1007B0000044404264EB0101141E73F1000405DBA8
:1007C0001C464FF00043524263EB0403994208BFBA
:1007D000904230BD064C074D06E0E06840F0010352
:1007E00094E8070098471034AC42F6D3FFF7D0FCEA
:1007F000846E0008A46E0008202A06DBCB17203A7E
:1008000041FA02F043EAE07306E041FA02F3D04015
:10081000C2F12002914008431946704710B5141EDA
:1008200073F1000408DA401C41F1000192185B41A9
:100830001A4301D120F0010010BD2DE9F04D924680
:100840009B4611B1B1FA81F202E0B0FA80F2203297
:100850009046FFF7E8FD04460F4640EA0A0041EAE9
:100860000B0153465A46084313D0114653EA010080
:1008700019D0C8F140025046FFF7E4FD05460E4688
:10088000504659464246FFF7CEFD084305D00120A9
:1008900004E020463946BDE8F08D0020054346EAD5
:1008A000E0762C4337430A986305E40AA0EB08007E
:1008B0000022FD0A44EA47540A3002D500200146CE
:1008C000E9E7010510196941DDE9084500196941A9
:1008D000BDE8F04DA2E710B505F073FD002010BD96
:1008E00000BFFEE77047000010B5022001F0A6FD32
:1008F000044602F056F8022001F0A0FD044605234C
:100900001A46024902F08CF810BD0000086C00087D
:100910007047704710B5042001F090FD044602F0C6
:1009200040F8042001F08AFD044605231A460249D6
:1009300002F076F810BD0000206C0008704700003F
:1009400010B52D4800682D49884205D92B485438E8
:10095000006800F480601BE027480068284988424E
:1009600005D926485838006800F4806010E0224815
:10097000006823496039884205D92148B838406861
:1009800000F4806004E01E48B838006800F480601D
:1009900010B1002005F0C4FF1748006817498842CD
:1009A00005D916485438006800F400601BE012486E
:1009B00000681349884205D910485838006800F487
:1009C000006010E00C4800680D496039884205D984
:1009D0000B48B838406800F4006004E00848B838B4
:1009E000006800F4006010B1002005F049FF0248E3
:1009F00000F0F8F910BD00004001002058640240EA
:100A0000B860024010B5174800681749884205D9F8
:100A100015485438006800F400101BE011480068C5
:100A20001249884205D910485838006800F400106F
:100A300010E00C4800680D496039884205D90B4820
:100A4000B838406800F4001004E00848B83800687E
:100A500000F4001010B1002005F0BAFF014800F0CA
:100A6000C1F910BDA001002058640240B8600240E6
:100A70000146087810381823B0FBF3F20848805C70
:100A8000C865032A05D908686FF30900001D886549
:100A900003E008686FF309008865886D70470000FF
:100AA000C46A0008014600208A6A8B69CBB932B15A
:100AB000012A0DD0022A03D0032A10D10EE000BF74
:100AC000CB6A03F08073B3F1807F00D1012007E08F
:100AD000CB6AB3F1C07F00D1012001E000E000BF8C
:100AE00034E08B69B3F5005F1AD132B1012A07D027
:100AF000022A03D0032A11D10AE000BF01200EE030
:100B0000CB6A03F08073B3F1807F00D1012006E04F
:100B1000CB6AB3F1C07F00D1012000E000BF15E037
:100B200032B1012A05D0022A04D0032A0CD103E0F5
:100B300000BF00BF012008E0CB6A03F08073B3F16F
:100B4000807F00D1012000E000BF00BF704730B5BA
:100B50000468246824F4802405682C6004686360B9
:100B60008468402C04D10468A2600468E16003E05A
:100B70000468A1600468E26030BD704772B600BFCF
:100B8000FEE72DE9F0470446894616461D46A06853
:100B900000F1010AE768A0680540012F03D07D43FA
:100BA0000AFB07FA7E43AAEB0501304604F0EDF894
:100BB00080462169481942464946FFF7D2FBA6EB19
:100BC000080209EB08012069FFF7CBFBBDE8F087BD
:100BD0002DE9F0470446894616461D46A06800F1F7
:100BE000010AE76860698047A0680540012F03D0CB
:100BF0007D430AFB07FA7E43AAEB0501304604F069
:100C0000C4F880462069411942464846FFF7A9FBCF
:100C1000A6EB080209EB08002169FFF7A2FBA06917
:100C20008047BDE8F0872DE9F04104460F461546A0
:100C30006069804700BFD4E90001411AA068401CE8
:100C4000401A0646B54200D935462A46394620465E
:100C50002368FFF796FF206828442060A06980473A
:100C60002846BDE8F0812DE9F04704460F461546B9
:100C70001E46DDE90889B5FBF6F515B1681E28406A
:100C800018B1284601F00FFC054600202060606086
:100C9000E6602761022D04D2A0606FF01500BDE868
:100CA000F087681EA060C4F81480C4F81890002073
:100CB000F5E770B504460E4615462A4631462046ED
:100CC00000F006F80546606828446060284670BD5C
:100CD0002DE9F04104460F461546D4E90001461AB5
:100CE000B54200D935462A46394620466368FFF7A3
:100CF0006FFF2846BDE8F0810146052903DA034865
:100D000000EB411070470020FCE7000084990020B0
:100D100070B50446A56D00F045FB064694F8350015
:100D2000022808D08020606500BF002084F83400CD
:100D300000BF012070BD2068006820F01600216807
:100D400008602068406920F0800021684861206CBC
:100D500008B9A06C28B12068006820F0080021685C
:100D600008602068006820F001002168086010E039
:100D700000F018FB801B05280BD92020606503209C
:100D800084F8350000BF002084F8340000BF032041
:100D9000D0E72068006800F001000028E8D194F84E
:100DA0005C103F208840A860012084F8350000BF17
:100DB000002084F8340000BF00BFBBE7014691F873
:100DC0003500022803D080204865012070470520A7
:100DD00081F835000868006820F001000A6810609A
:100DE0000020F3E7F8B50446002000908C48006826
:100DF0004FF41651B0FBF1F7A56D2E6894F85C1016
:100E000008208840304098B12068006800F0040055
:100E100070B12068006820F004002168086094F830
:100E20005C1008208840A860606D40F0010060659B
:100E300094F85C1001208840304068B12068406917
:100E400000F0800040B194F85C1001208840A86058
:100E5000606D40F00200606594F85C1004208840EA
:100E6000304068B12068006800F0020040B194F89A
:100E70005C1004208840A860606D40F0040060654C
:100E800094F85C1010208840304078B320680068E7
:100E900000F0080050B394F85C1010208840A8605F
:100EA0002068006800F4802080B12068006800F4A9
:100EB000002028B9206CC8B12046216C884715E075
:100EC000A06C98B12046A16C88470FE020680068AC
:100ED00000F4807028B92068006820F008002168BC
:100EE0000860206C10B12046216C884794F85C1093
:100EF000202088403040002865D02068006800F03D
:100F0000100000285FD094F85C1020208840A86072
:100F100094F83500052828D12068006820F01600D4
:100F2000216808602068406920F0800021684861DD
:100F3000206C08B9A06C28B12068006820F0080077
:100F40002168086094F85C103F208840A860012068
:100F500084F8350000BF002084F8340000BF206D05
:100F600010B12046216D8847F8BD2068006800F464
:100F7000802080B12068006800F4002028B9606CEF
:100F800010B12046616C88471DE0E06BD8B1204667
:100F9000E16B884717E02068006800F4807068B94A
:100FA0002068006820F0100021680860012084F8A3
:100FB000350000BF002084F8340000BFE06B10B1A2
:100FC0002046E16B8847606D38B3606D00F001002A
:100FD000F0B1052084F835002068006820F0010099
:100FE0002168086000BF0098401C0090B84200D9FA
:100FF00005E02068006800F001000028F3D100BF80
:10100000012084F8350000BF002084F8340000BFC0
:10101000E06C10B12046E16C884700BFA4E70000F7
:101020000C0000202DE9F0410446002500F0BAF93B
:10103000074614B90120BDE8F081606A00B100BF25
:10104000022084F8350000BF002084F8340000BF7F
:101050002068006820F00100216808600AE000F0C4
:10106000A1F9C01B052805D920206065032084F85C
:101070003500E0E72068006800F001000028EED1AC
:101080002068056821480540D4E901010843E1686A
:1010900008432169084361690843A1690843E1697C
:1010A0000843216A08430543606A042803D1D4E950
:1010B0000B0108430543206805602068456925F059
:1010C0000705606A0543606A04280DD1A06A0543DC
:1010D000E06A48B12046FFF7E5FC28B14020606592
:1010E000012084F83500A6E7206845612046FFF717
:1010F000BFFC064694F85C103F208840B06000209A
:101100006065012084F83500002094E73F8010F0EE
:101110002DE9F04704460D4616461F464FF00008DD
:10112000D4F8589000BF94F83400012802D102206E
:10113000BDE8F087012084F8340000BF94F8350042
:10114000012825D1022084F83500002060653B4647
:10115000324629462046FFF7FAFC94F85C103F20FF
:101160008840C9F808002068006840F0160021682F
:101170000860206C28B12068006840F008002168F1
:1011800008602068006840F001002168086006E0FF
:1011900000BF002084F8340000BF4FF00208404632
:1011A000C6E70000F8B502460B46002500240020E3
:1011B0000021D6E0012606FA01F51E6806EA0504BC
:1011C000AC4274D11E7906F00306012E04D01E79BC
:1011D00006F00306022E13D190684F000326BE408E
:1011E000B0434F00DE68BE40304390605068012637
:1011F0008E40B0431E79C6F300168E4030435060D7
:101200001E7906F00306032E09D0D0684F0003268E
:10121000BE40B0434F009E68BE403043D0601E7950
:1012200006F00306022E13D1CF0802F1200656F86D
:1012300027004E07F70E0F26BE40B0434F07FF0EA4
:101240001E69BE403043CF0802F1200646F8270051
:1012500010684F000326BE40B0431E7906F0030617
:101260004F00BE40304310605E6806F44036002EEA
:1012700076D000BF002600963C4E366846F4804685
:101280003A4F3E603E46366806F48046009600BF00
:1012900000BF374E8F0856F827008E07370F0F26EE
:1012A000BE40B043334EB24202D1002624E057E0A4
:1012B000314EB24201D101261EE0304EB24201D180
:1012C000022619E02E4EB24201D1032614E02D4E23
:1012D000B24201D104260FE02B4EB24201D10526C5
:1012E0000AE02A4EB24201D1062605E0284EB2425B
:1012F00001D1072600E008268F073F0FBE4030438C
:101300001B4E8F0846F82700224E3068A0435E68C7
:1013100006F4801606B120431E4E3060361D30683C
:10132000A0435E6806F4001606B12043194E361D30
:101330003060184E361F3068A0435E6806F40036F1
:1013400006B12043134E361F3060361F3068A0436D
:101350005E6806F4803606B120430E4E083E3060CB
:10136000491C1029FFF426AFF8BD000044380240A4
:10137000083801400000024000040240000802401A
:10138000000C02400010024000140240001802400D
:10139000001C0240083C01400AB1816101E00B04DD
:1013A000836170470148006870470000000000201A
:1013B00003480068034909780844014908607047F8
:1013C000000000200800002010B50D48006840F41F
:1013D00000700B4908600846006840F480600860AF
:1013E0000846006840F480700860032000F0A2F80E
:1013F0000F2000F007F800F02BF8002010BD0000CF
:10140000003C024070B504460E4800784FF47A71F3
:10141000B1FBF0F00C490968B1FBF0F5284600F08B
:101420003FFC08B1012070BD102C07D200222146DC
:10143000501E00F041F80548046001E00120F2E789
:101440000020F0E7080000200C000020040000202D
:1014500008B500BF002000900E48006840F48040AE
:101460000C4908600846006800F48040009000BF06
:1014700000BF00BF00200090081F006840F08050AF
:10148000091F08600846006800F08050009000BF07
:1014900000BF08BD4438024001460846002809DB69
:1014A00000F01F0301229A4043099B0003F1E0234F
:1014B000C3F8002100BF70472DE9F05F80460D465C
:1014C0001646002702F052F8074639462A463346A8
:1014D00001F00700C0F1070ABAF1040F02D94FF07A
:1014E000040A01E0C0F1070AD14600F1040ABAF18A
:1014F000070F02D24FF0000A01E0A0F1030AD44620
:101500004FF0010A0AFA09FAAAF1010A0AEA020AE4
:101510000AFA0CFA4FF0010B0BFA0CFBABF1010BC2
:101520000BEA030B4AEA0B042146404602F026F878
:10153000BDE8F09F00BF00F00702064B19684FF6A8
:10154000FF031940044B0B4343EA0221014B19608E
:1015500000BF70470CED00E00000FA0570B50446CE
:101560000D460CB9012070BD5848006800F0070016
:10157000A84209D255490D700846006800F00700DE
:10158000A84201D00120EEE7207800F002000228F6
:101590001DD1207800F00400042805D14C480068D3
:1015A00040F4E0504A490860207800F0080008281C
:1015B00005D14748006840F4604045490860444808
:1015C000006820F0F000A1680843414908602078D5
:1015D00000F00100A8B36068012807D13C48083832
:1015E0000068C0F34040B8B90120BCE76068022839
:1015F00002D06068032807D1354808380068C0F376
:10160000406048B90120AEE7314808380068C0F3AF
:10161000400008B90120A6E72D48006820F003002B
:10162000616808432A490860FFF7BCFE064609E0E6
:10163000FFF7B8FE801B41F28831884202D90320AF
:1016400091E707E02248006800F00C006168B0EB09
:10165000810FEDD11D48006800F00700A84209D9AC
:101660001A490D700846006800F00700A84201D032
:10167000012078E7207800F00400042807D11448FE
:10168000006820F4E050E1680843114908602078C0
:1016900000F00800082808D10D48006820F46040D8
:1016A000216940EAC1000A49086000F03FF8084992
:1016B0000968C1F30311074A515CC8400649086034
:1016C00006480068FFF79EFE00204CE7003C024001
:1016D00008380240CC6A00080C00002004000020FA
:1016E00001480068704700000C00002000B5FFF7BB
:1016F000F7FF04490968C1F38221034A515CC840DD
:1017000000BD000008380240DC6A000800B5FFF7A1
:10171000E7FF04490968C1F34231034A515CC840FC
:1017200000BD000008380240DC6A00082DE9F047DF
:10173000002400250026A1462548006800F00C0082
:1017400020B1042805D008283AD105E0DFF88490BC
:1017500039E0DFF8849036E01D48001F006800F093
:101760003F041B48001F006800F4800078B11A484D
:101770001749091F0968C1F38811A0FB01700146D0
:10178000224600233846FEF7BBFD05460EE0114811
:101790000F49091F0968C1F38811A0FB01700146B8
:1017A000224600233846FEF7ABFD05460848001FD9
:1017B0000068C0F30140401C4600B5FBF6F902E0AA
:1017C000DFF8109000BF00BF4846BDE8F08700007A
:1017D000083802400024F40000127A00F8B50446EC
:1017E0000CB90120F8BD207800F00100002874D069
:1017F000F948006800F00C0004280DD0F648006895
:1018000000F00C00082813D1F348001F006800F412
:101810008000B0F5800F0BD1EF4808380068C0F3A6
:101820004040002859D06068002856D10120D9E7EF
:1018300000BF6068B0F5803F08D1E748083800680D
:1018400040F48030E449083908601EE06068B0F573
:10185000A02F0DD1E0480838006840F48020DE4910
:10186000083908600846006840F4803008600CE0E1
:10187000D9480838006820F48030D7490839086012
:101880000846006820F48020086000BF606890B1BE
:10189000FFF788FD054606E0FFF784FD401B64283E
:1018A00001D903209EE7CC4808380068C0F34040C7
:1018B0000028F1D011E0FFF775FD054606E0FFF7BF
:1018C00071FD401B642801D903208BE7C24808380A
:1018D0000068C0F340400028F1D1207800F00200F9
:1018E00002285FD1BC48006800F00C0058B1BA482B
:1018F000006800F00C0008281CD1B748001F0068E1
:1019000000F48000B0B9B44808380068C0F3400063
:1019100020B1E068012801D0012063E7AE48083813
:10192000006820F0F800216940EAC100AA4908399E
:10193000086037E0E06800B30120A8490860FFF7BD
:1019400031FD054606E0FFF72DFD401B022801D9B9
:10195000032047E7A04808380068C0F3400000288B
:10196000F1D09D480838006820F0F800216940EA6D
:10197000C10099490839086014E0002097490860BF
:10198000FFF710FD054606E0FFF70CFD401B02289F
:1019900001D9032026E7904808380068C0F34000CA
:1019A0000028F1D1207800F0080008282CD16069C7
:1019B000A8B101208A490860FFF7F4FC054606E05B
:1019C000FFF7F0FC401B022801D903200AE78248F8
:1019D0006C300068C0F340000028F1D014E0002013
:1019E0007F490860FFF7DEFC054606E0FFF7DAFCFA
:1019F000401B022801D90320F4E677486C300068C8
:101A0000C0F340000028F1D1207800F00400042841
:101A100070D1002770483830006800F0805090B9CD
:101A200000BF002000906C483830006840F08050C3
:101A30006949383108600846006800F0805000901D
:101A400000BF00BF01276748006800F48070B0B98C
:101A50006448006840F4807062490860FFF7A2FCA7
:101A6000054606E0FFF79EFC401B022801D9032033
:101A7000B8E65C48006800F480700028F2D000BF2F
:101A8000A068012808D154486830006840F001007F
:101A90005149683108601DE0A06805280DD14E4805
:101AA0006830006840F004004B496831086008461F
:101AB000006840F0010008600CE0474868300068AA
:101AC00020F001004449683108600846006820F0B1
:101AD0000400086000BFA068A8B1FFF763FC0546DA
:101AE00009E0FFF75FFC401B41F28831884202D9D0
:101AF000032077E626E0384868300068C0F34000ED
:101B00000028EED013E0FFF74DFC054608E0FFF794
:101B100049FC401B41F28831884201D9032061E62B
:101B20002D4868300068C0F340000028EFD1012F35
:101B300007D129483830006820F0805026493831D4
:101B4000086000BFA069002845D02348006800F065
:101B50000C0008285DD0A069022845D100201F494B
:101B60000866FFF71FFC054606E0FFF71BFC401B5D
:101B7000022801D9032035E6174808380068C0F369
:101B800040600028F1D1D4E907010843616A40EAC6
:101B900081110122A06AC2EB500041EA00412C20D1
:101BA000005D41EA00600C49091F086001200B49F3
:101BB0000866FFF7F7FB054606E0FFF7F3FB401B5F
:101BC000022801D903200DE6034808380068C0F355
:101BD00040600028F1D049E0083802400000474248
:101BE000800E474200700040002021490866FFF740
:101BF000D9FB054606E0FFF7D5FB401B022801D9BB
:101C00000320EFE51B480068C0F340600028F2D1D4
:101C10002CE0A069012800D1E4E51648001D066803
:101C2000A069012820D006F48001E06981421BD11F
:101C300006F03F01206A814216D147F6C07030405D
:101C4000616AB0EB811F0FD106F440310122A06A16
:101C5000C2EB5000B1EB004F06D106F070612C20B2
:101C6000005DB1EB006F01D00120BBE50020B9E5BC
:101C70000000474200380240042808D14FF0E0211C
:101C8000096941F004014FF0E022116107E04FF0D3
:101C9000E021096921F004014FF0E0221161704751
:101CA00070B504462546681EB0F1807F01D301203F
:101CB0000FE0681E4FF0E02148610F214FF0FF3028
:101CC00001F05CFC00204FF0E021886107200861F2
:101CD000002070BD704770472DE9F84F044620681A
:101CE00005682068C668206847694FF00009CA4641
:101CF00005F00F09B9F1000F0AD105F0200038B145
:101D000006F0200020B1204601F094F9BDE8F88FDC
:101D1000B9F1000F7CD007F0010018B906F49070FB
:101D2000002875D005F0010030B106F4807018B1BC
:101D3000206C40F00100206405F0040030B107F091
:101D4000010018B1206C40F00200206405F0020090
:101D500030B107F0010018B1206C40F0040020649D
:101D600005F0080048B106F0200010B907F00100A6
:101D700018B1206C40F008002064206C002846D088
:101D800005F0200028B106F0200010B1204601F037
:101D900051F920684069C0F3801A206C00F00800F7
:101DA00010B9BAF1000F2DD0204601F0EAF82068F2
:101DB000406900F04000402820D100BF00BF2168EA
:101DC000143151E8001F21F040002168143141E82E
:101DD0000002002AF3D100BFA06B50B17548A16B7F
:101DE0000865A06BFEF7EAFF88B1A06B016D88471C
:101DF0000DE02046FFF76FFF09E009E02046FFF7FE
:101E00006AFF04E02046FFF766FF002020647DE7BC
:101E1000206B012876D105F01000002872D006F062
:101E200010000028FAD000BF002000902068006851
:101E3000009020684068009000BF00BF20684069A3
:101E400000F0400040285ED1A06B006840681FFA97
:101E500080F8B8F1000F54D0A08D404551DDA4F8B2
:101E60002E80A06BC069B0F5807F43D000BF00BF5B
:101E700021680C3151E8001F21F4807021680C3179
:101E800041E80002002AF3D100BF00BF00BF216873
:101E9000143151E8001F21F001002168143141E89C
:101EA0000002002AF3D100BF00BF00BF2168143137
:101EB00051E8001F21F040002168143141E8000280
:101EC000002AF3D100BF202084F83E0000202063C8
:101ED00000BF00BF21680C3151E8001F21F0100045
:101EE00021680C3141E80002002AF3D100BFA06B49
:101EF000FEF70EFFA08DE28D801A81B22046FFF71B
:101F0000E9FE03E740E0A08DE18D401A1FFA80F85A
:101F1000E08DC0B3B8F1000F35D000BF00BF21681D
:101F20000C3151E8001F21F4907021680C3141E818
:101F30000002002AF3D100BF00BF00BF21681431A6
:101F400051E8001F21F001002168143141E800022E
:101F5000002AF3D100BF202084F83E000020206337
:101F600000BF00BF21680C3151E8001F21F01000B4
:101F700021680C3141E80002002AF3D100BF41463C
:101F80002046FFF7A7FEC1E605F0800030B106F05D
:101F9000800018B1204601F047FAB7E605F040008E
:101FA00030B106F0400018B1204601F020F8ADE64F
:101FB00000BFABE6E92D000810B504460CB90120BE
:101FC00010BDA06900B100E000BF94F83D0028B941
:101FD000002084F83C00204600F028F8242084F8F3
:101FE0003D002068C06820F400502168C860204689
:101FF00001F09CF82068006920F490402168086195
:102000002068406920F02A00216848612068C06883
:1020100040F400502168C86000202064202084F82B
:102020003D0084F83E000020CAE7000010B586B0ED
:102030000446142101A8FEF7ADF93E492068884204
:1020400076D100BF002000903B48006840F400308B
:10205000394908600846006800F40030009000BF6D
:1020600000BF00BF0020009033481038006840F0E7
:1020700001003149103908600846006800F001008D
:10208000009000BF00BF0C200190022002900020B1
:102090000390032004900720059001A92748FFF72B
:1020A00081F82748274908604FF000604860002108
:1020B00024488160C1604FF4806101610021416169
:1020C00081614FF48071C161002101624162FEF7BC
:1020D000A9FF08B1FEF752FD00BF1A48A063846350
:1020E00000BF17481830184908604FF0006048607A
:1020F0004021154881600021C1604FF48061016179
:10210000002141618161C16101624162FEF78AFF84
:1021100008B1FEF733FD00BF0B486063846300BF66
:10212000002211462620FFF7C7F92620FFF7B4F951
:1021300006B010BD0044004040380240000002409C
:102140008860024040010020A001002070B50446D4
:102150000D46164694F83E00202816D105B10EB95A
:10216000012070BD00BF94F83C00012801D102207D
:10217000F7E7012084F83C0000BF002020633246CE
:102180002946204601F0E8F8EBE70220E9E770472E
:1021900070470000F7B50446154694F83D00202826
:1021A00046D1019800B10DB90120FEBD00BF94F8E1
:1021B0003C00012801D10220F7E7012084F83C000F
:1021C00000BF01982062A584E584002020642120BE
:1021D00084F83D001748616BC8631748616B086459
:1021E0001648616BC8640020616B086501AE236806
:1021F0001A1D31682B46606BFEF78AFF6FF04000B6
:102200002168086000BF002084F83C0000BF00BFC8
:1022100000BF2168143151E8001F41F0800021689F
:10222000143141E80002002AF3D100BF0020BCE7CE
:102230000220BAE71D2F0008752F0008FD2D0008A9
:102240007047704710B502F05BF8FF21002002F0E4
:102250004BFB0721012002F047FB0721022002F07F
:1022600043FB0721032002F03FFBA721042002F0DB
:102270003BFBA721052002F037FB02F011FC10BD4B
:1022800008B500BF002000900E48006840F4001020
:102290000C4908600846006800F40010009000BF78
:1022A00000BF002211461020FFF706F91020FFF7AB
:1022B000F3F8002211461120FFF7FEF81120FFF776
:1022C000EBF808BD3038024000B587B0142102A8F1
:1022D000FEF760F800BF002001903848006840F029
:1022E0001000364908600846006800F010000190B0
:1022F00000BF00BF00BF002001900846006840F00A
:10230000040008600846006800F00400019000BF67
:1023100000BF00BF002001900846006840F0200088
:1023200008600846006800F02000019000BF00BF70
:1023300000BF002001900846006840F0800008605F
:102340000846006800F08000019000BF00BF00BF99
:10235000002001900846006840F00100086008462F
:10236000006800F00100019000BF00BF01224FF49F
:10237000C0611348FFF710F81C2002900020039062
:102380000120049002A90F48FEF70CFF4FF4C06033
:1023900002900120039004900220059002A90848B1
:1023A000FEF700FF0120029000200390022004901D
:1023B00002A90548FEF7F6FE07B000BD303802401E
:1023C00000140240001002400000024010B50B480B
:1023D0000B4908604FF4E1304860002108488160F3
:1023E000C16001610C21416100218161C161FFF780
:1023F000E3FD08B1FEF7C2FB10BD00000044004041
:10240000FC00002000BFFEE700BFFEE770470000B1
:1024100010B5012000F012F8044600F0C2FA0120C5
:1024200000F00CF8044605231A46024900F0F8FAB9
:1024300010BD00003C6C0008704700000146002001
:1024400005290ED2DFE801F0030507090B00064855
:1024500008E0064806E0064804E0064802E00648B0
:1024600000E000BF00BF7047CC000020D00000207B
:10247000D4000020D8000020DC00002010B5FFF7B9
:102480002FF94FF47A71B0FBF1F42046FFF708FC06
:102490000420FFF7F1FB00221146501EFFF70CF855
:1024A00010BD70477047014600224B1E01E05B10D3
:1024B000521C002BFBD10120904070472DE9F041C8
:1024C000064600243068046801F04CF820E094F8D7
:1024D0000302401E84F8030294F801521F2D02DA11
:1024E000681CC5B200E0002584F8015201F03CF8F8
:1024F000306950B104EB0517FA6804EB0517398908
:1025000004EB051778683369984701F02BF800BF92
:1025100094F803020028DADC01F026F8BDE8F08127
:1025200000B5014600200A68106801F01BF800227F
:1025300080F8002280F80122202280F80222002266
:1025400080F8032201F010F800BD000010B505214D
:10255000044800F0EFF9002000F06EF8044600F0A7
:1025600058F810BDCC00002010B50121044800F03F
:10257000E1F9012000F060F8044600F04AF810BDCF
:10258000D400002010B50521044800F0D3F9022042
:1025900000F052F8044600F03CF810BDD0000020D6
:1025A00010B50521044800F0C5F9032000F044F8F7
:1025B000044600F02EF810BDD800002010B505210B
:1025C000044800F0B7F9042000F036F8044600F0A3
:1025D00020F810BDDC000020704770B500250024F5
:1025E00009E0204600F03EF8054615B1284600F007
:1025F00009F8601CC4B2052CF3D370BD10B5FFF709
:10260000ECFF10BD10B5044614B12046FFF788FF5B
:1026100010BD10B5044614B12046FFF74FFF10BDA2
:1026200070B505460024284600F006F804460CB1B3
:10263000A068804770BD0000024600210BE00848FA
:1026400050F821000079904203D1054850F821004C
:102650007047481CC1B20529F1D30020F8E70000FB
:10266000D46C00080146052903D2034850F8210024
:1026700070470020FCE70000D46C000870B502F041
:1026800005FF0024FEF794FE03F03AFBFEF78AFEF6
:102690000521B0FBF1F201FB120038BB0020FEF770
:1026A0002BFB0546012102F029FD04460120FEF71F
:1026B00023FB0546022102F021FD04460220FEF71D
:1026C0001BFB0546042102F019FD04460320FEF71A
:1026D00013FB0546082102F011FD04460420FEF715
:1026E0000BFB0546102102F009FD044602F0E8FE4E
:1026F00070BD000000B593B0302107A8FDF74AFE79
:10270000142102A8FDF746FE00BF002001902448D6
:10271000006840F08050224908600846006800F0D8
:102720008050019000BF00BF00BF002001901D48F5
:10273000006840F480401B4908600846006800F4C7
:102740008040019000BF00BF012007900004089066
:1027500002200D9041050E9104210F91A8211091A6
:10276000022111910421129107A8FFF737F808B14F
:10277000FEF704FA0F20029002200390002004903C
:102780004FF4A05005904FF480500690052102A808
:10279000FEF7E4FE08B1FEF7F1F913B000BD00004A
:1027A00040380240007000400348006840F4700068
:1027B000014908607047000088ED00E070470000A4
:1027C00010B50020FFF73AFE044600F0EAF80020BA
:1027D000FFF734FE044605231A46024900F020F9AB
:1027E00010BD0000546C00087047000070B5002058
:1027F000FEF782FA0546002220A102F0DDFB044626
:102800001CB121461FA002F075FE0120FEF774FAEC
:102810000546002223A102F0CFFB04461CB121464D
:1028200022A002F067FE0220FEF766FA05460022AB
:1028300025A102F0C1FB04461CB1214624A002F0F0
:1028400059FE0320FEF758FA0546002227A102F0A0
:10285000B3FB04461CB1214626A002F04BFE042027
:10286000FEF74AFA0546002229A102F0A5FB04461C
:102870001CB1214628A002F03DFE70BD74314D61AF
:10288000736B00007461736B3120696E697420652D
:1028900076656E74206661696C65642025750D0A25
:1028A0000000000074324D61736B00007461736B43
:1028B0003220696E6974206576656E742066616980
:1028C0006C65640D0A00000074334D61736B000089
:1028D0007461736B3320696E6974206576656E74FC
:1028E000206661696C65640D0A000000746B344DEC
:1028F00061736B007461736B3420696E6974206559
:1029000076656E74206661696C65640D0A0000006E
:1029100074354D61736B00007461736B3520696EA3
:102920006974206576656E74206661696C65640DF6
:102930000A0000002DE9F04105460F4600240DB9BC
:10294000BDE8F0812C6854B3206840B3206840682B
:10295000B84205D320684068C01B2168486002E087
:1029600000202168486015E02068866821462846D6
:1029700000F01DF81EB901202168087005E03346FB
:1029800032462146284600F04BF8606808B160687E
:1029900080472C681CB1206840680028E4D000BF44
:1029A000CEE700B970470021016000BFFAE710B11F
:1029B00009B10A6802B970470A681278012A02D080
:1029C000022A29D103E000220B681A7025E00A6868
:1029D000D26832B10A6812690B68DB681B681A6139
:1029E00002E00A68126902600A68126982B10A6824
:1029F000D2680B681B691B68DA600A681269126882
:102A000052680B685B681A440B681B691B685A6044
:102A100000220B681A7000E000BF00BF00BFCAE7C9
:102A20002DE9FF4106460C461F46002516B10CB1A4
:102A3000206808B9BDE8FF812068007810B101283E
:102A40002CD100E000BF356835B900202168C8608E
:102A500021680861346018E006E02868406802993F
:102A6000081A029028680569286840B128684068FB
:102A70000299884203D8286800690028EDD102AB8A
:102A80002A462146304600F00DF802982168486039
:102A90002068876002202168087000E000BF00BF46
:102AA00000BFC7E730B5146864681D68AC4202D93E
:102AB0001468E46824B3146864681D68AC420CD8D8
:102AC0000C68E26000240D682C61146821611C68A8
:102AD00015686D68641B1C6020E01468E4680D686C
:102AE000EC600C6822610C68E46824682161146859
:102AF000E160146864681D68641B15686C600DE013
:102B000000240D68EC600C6822611468E1601468B0
:102B100064681D68641B15686C60016030BD00004E
:102B20001CB505A01821064B06A2CDE900100FA187
:102B3000032001F00BFC1CBD63616E0D0A00000058
:102B4000106C00082E2E5C7061636B6167655C63BE
:102B50007573746F6D697A65645C7461736B5C73B3
:102B600072635C63616E2E630000000053797374BE
:102B7000656D00001CB505A01821074B07A2CDE923
:102B8000001010A1032001F0E1FB1CBD63757374FC
:102B90006F6D0D0A00000000286C00082E2E5C707E
:102BA00061636B6167655C637573746F6D697A658A
:102BB000645C7461736B5C7372635C637573746F74
:102BC0006D2E630053797374656D00001CB505A00C
:102BD0001821064B06A2CDE900100FA1032001F039
:102BE000B5FB1CBD6E61640D0A000000446C00085A
:102BF0002E2E5C7061636B6167655C637573746FC7
:102C00006D697A65645C7461736B5C7372635C6E2E
:102C100061642E630000000053797374656D0000D9
:102C20001CB505A01821074B07A2CDE9001010A183
:102C3000032001F08BFB1CBD73797374656D0D0A65
:102C4000000000005C6C00082E2E5C7061636B61FC
:102C500067655C637573746F6D697A65645C7461D4
:102C6000736B5C7372635C73797374656D2E630050
:102C700053797374656D00001CB505A07F21064B68
:102C800006A2CDE9001011A1032001F05FFB1CBDDD
:102C90007461736B320D0A001C6D00082E2E5C707F
:102CA00061636B6167655C706C6174666F726D5CAB
:102CB0006672616D65776F726B5C7379735F636663
:102CC000675C7379735F6366672E6300537973740F
:102CD000656D00001CB505A08521064B06A2CDE957
:102CE000001011A1032001F031FB1CBD7461736B56
:102CF000330D0A00306D00082E2E5C7061636B612D
:102D000067655C706C6174666F726D5C6672616D34
:102D100065776F726B5C7379735F6366675C7379F9
:102D2000735F6366672E630053797374656D00008B
:102D30001CB505A08B21064B06A2CDE9001011A100
:102D4000032001F003FB1CBD7461736B340D0A009A
:102D5000446D00082E2E5C7061636B6167655C706A
:102D60006C6174666F726D5C6672616D65776F72AF
:102D70006B5C7379735F6366675C7379735F6366BB
:102D8000672E630053797374656D00001CB505A050
:102D90009121064B06A2CDE9001011A1032001F0FC
:102DA000D5FA1CBD7461736B350D0A00586D0008AF
:102DB0002E2E5C7061636B6167655C706C6174661C
:102DC0006F726D5C6672616D65776F726B5C737943
:102DD000735F6366675C7379735F6366672E630016
:102DE00053797374656D000070B50546AC6B0020B7
:102DF000E085E0842046FEF76EFF70BD70B50646A4
:102E00000025B46B20684069C0F3C01594F83D00FC
:102E1000212805D125B10020E084204600F0F7F8F4
:102E200020684069C0F3801594F83E00222805D13F
:102E300025B10020E085204600F0A3F8206C40F08A
:102E4000100020642046FEF746FF70BD70B50546B1
:102E5000AC6B2868006800F48070002842D1E085DF
:102E600000BF00BF21680C3151E8001F21F48070C1
:102E700021680C3141E80002002AF3D100BF00BFF5
:102E800000BF2168143151E8001F21F001002168C2
:102E9000143141E80002002AF3D100BF00BF00BF97
:102EA0002168143151E8001F21F0400021681431DD
:102EB00041E80002002AF3D100BF202084F83E0040
:102EC000206B01280ED100BF00BF21680C3151E8F2
:102ED000001F21F0100021680C3141E80002002A97
:102EE000F3D100BF206B012804D1A18D2046FEF74D
:102EF000F1FE02E02046FFF74AF970BD70B50546C5
:102F0000AC6B206B012805D1A08D41082046FEF74F
:102F1000E1FE02E02046FFF73BF970BD70B50546C3
:102F2000AC6B2868006800F48070F8B90020E08479
:102F300000BF00BF2168143151E8001F21F080005C
:102F40002168143141E80002002AF3D100BF00BF1C
:102F500000BF21680C3151E8001F41F0400021689A
:102F60000C3141E80002002AF3D102E02046FFF7CD
:102F700067F970BD70B50446A56B2846FFF761F987
:102F800070BD00BF00BF02680C3252E8002F22F46F
:102F9000907102680C3242E80013002BF3D100BF9D
:102FA00000BF00BF0268143252E8002F22F0010176
:102FB0000268143242E80013002BF3D100BF016B0A
:102FC00001290ED100BF00BF02680C3252E8002F69
:102FD00022F0100102680C3242E80013002BF3D1FA
:102FE00000BF202180F83E1000210163704710B51A
:102FF00004462068C06820F040002168C860202096
:1030000084F83D002046FFF71BF9002010BD00BFEB
:1030100000BF02680C3252E8002F22F0C0010268A3
:103020000C3242E80013002BF3D100BF202180F8BE
:103030003D107047F8B5044694F83E00222873D13D
:10304000A068B0F5805F0CD1206950B90025A66A50
:1030500020684068C0F308003080A06A801CA0622D
:1030600015E0A56A0026A068B0F5805F03D0A068CF
:1030700028B9206918B920684068287004E02068E1
:10308000406800F07F002870A06A401CA062E08DBC
:10309000401E80B2E085002844D12068C06820F03E
:1030A00020002168C8602068C06820F48070216812
:1030B000C8602068406920F0010021684861202034
:1030C00084F83E00206B012826D10020206300BF39
:1030D00000BF21680C3151E8001F21F01000216869
:1030E0000C3141E80002002AF3D100BF20680068DB
:1030F00000F0100010280AD100BF002000902068C6
:103100000068009020684068009000BF00BFA18D5B
:103110002046FEF7DFFD02E02046FFF738F80020EA
:10312000F8BD01E00020FBE70220F9E72DE9F84FA8
:1031300004462068006920F44050E1680843216893
:1031400008612169A068084361690843E16908438F
:1031500000902068C06849F20C61884300990843D8
:103160002168C8602068406920F44070A169084364
:103170002168486176492068884203D075492068F3
:10318000884203D1FEF7C2FA814602E0FEF7AEFAAA
:103190008146E069B0F5004F6CD102206168A0FB68
:1031A000015003461920A9FB007001462A46384603
:1031B000FDF7A6F86421B0FBF1F04FEA001A0220F7
:1031C0006168A0FB01510B461920A9FB00712A463A
:1031D0003846FDF795F8834602206168A0FB015050
:1031E00003461920A9FB00712A463846FDF788F8E6
:1031F0006421B0FBF1F000EBC00101EB0010ABEB80
:103200008000322101EBC0006421B0FBF1F000F03E
:10321000F8000AEB400A02206168A0FB0150034657
:103220001920A9FB007001462A463846FDF768F8C8
:10323000834602206168A0FB015003461920A9FBC8
:1032400000712A463846FDF75BF86421B0FBF1F0C7
:1032500000EBC00101EB0010ABEB8000322101EB71
:10326000C0006421B0FBF1F000F007005044216879
:1032700088606AE004206168A0FB015003461920C1
:10328000A9FB007001462A463846FDF739F8824608
:1032900004206168A0FB015003461920A9FB0070BF
:1032A00001462A463846FDF72BF86421B0FBF1F0C1
:1032B00000EBC00101EB0010AAEB8000322101EB12
:1032C00000106421B0FBF1F000F0F00A0420616806
:1032D000A0FB017003461920A9FB00513A4628467D
:1032E000FDF70EF86421B0FBF1F00AEB001A0420A0
:1032F0006168A0FB01510B461920A9FB00712A4609
:103300003846FCF7FDFF834604206168A0FB0150AE
:1033100003461920A9FB007001462A463846FCF7EF
:10332000EFFF6421B0FBF1F000EBC00101EB0010F6
:10333000ABEB8000322101EB00106421B0FBF1F017
:1033400000F00F00504421688860BDE8F88F00004D
:10335000001001400014014077B581B004461546C5
:103360000298A062A58500202064222084F83E00F7
:103370002A48A16BC8632A48A16B08642948A16B3D
:10338000C8640020A16B086502AE32682368191D6D
:103390002B46A06BFDF7BCFE00BF0020009020680C
:1033A0000068009020684068009000BF00BF00BF28
:1033B000002084F83C0000BF206970B100BF00BF4E
:1033C00021680C3151E8001F41F4807021680C31F4
:1033D00041E80002002AF3D100BF00BF00BF21680E
:1033E000143151E8001F41F001002168143141E817
:1033F0000002002AF3D100BF00BF00BF21681431D2
:1034000051E8001F41F040002168143141E80002FA
:10341000002AF3D100BF002004B070BD4D2E00087B
:10342000FD2E0008FD2D0008014691F83D002128E1
:1034300028D18868B0F5805F0BD1086948B90A6A5D
:103440001088C0F308000B685860086A801C086286
:1034500005E00B6A581C086218780B685860C88C25
:10346000401E80B2C88458B90868C06820F0800047
:103470000B68D8600868C06840F040000B68D860EE
:10348000002070470220FCE710B517480068174974
:10349000884205D915485438006800F010001BE038
:1034A000114800681249884205D910485838006808
:1034B00000F0100010E00C4800680D4960398842A7
:1034C00005D90B48B838406800F0100004E00848FF
:1034D000B838006800F0100010B1002003F0D0F9F7
:1034E0000448FEF7F9FB10BD40010020586402407B
:1034F000B8600240FC00002000BFFEE70FB47CB5BE
:103500000C0009AD01D0611E00E00021CDE90001F1
:10351000064B6A462946089800F074F9002C02D040
:10352000009A002111707CBC5DF814FBD53F0008A7
:103530007CB50C001D461646014601D0601E00E019
:103540000020CDE90010064B6A462946304600F0BF
:1035500059F9002C02D0009A002111707CBD0000A6
:10356000D53F000872B6704762B6704702480068DF
:10357000C0F30220704700000CED00E010B50028F9
:1035800004DB0A07130E054A135406E00A07140E5B
:10359000034A00F00F031B1FD45410BD00E400E0E9
:1035A00018ED00E0014609B900207047C8B220B10B
:1035B000C8B20E4A105C401CF7E701F47F4028B106
:1035C0000A48C1F30722805C0930EEE701F47F006E
:1035D00028B10648C1F30742805C1130E5E7034893
:1035E00000EB116000781930DFE70000E46A0008A2
:1035F00002E008C8121F08C1002AFAD170477047BC
:10360000002001E001C1121F002AFBD17047000019
:103610002DE9FF5F82B00021DDE90430020DDDF805
:1036200040B0034318D044F61050A2F2FF32424398
:103630001514119801281FD0A5EB0B00401C5FEA60
:10364000000A4FF000064E4FDFF83891B046504662
:1036500015D5CAF1000413E0119801244AA30128EA
:1036600001D16FEA0B010298119AC0E90031C0E95B
:10367000024206B0BDE8F09FCBF10000DFE7044650
:103680000021404A491842EB0450CDE9001012E0F5
:10369000E00707D032463B4640464946FCF789FFE3
:1036A0008046894632463B4610461946FCF781FF64
:1036B00006460F466410002CEAD1DDE90401DDE97D
:1036C0000023BAF1000F06DAFCF773FF42464B46BF
:1036D000FCF76FFF05E0FCF7DEFF42464B46FCF7C8
:1036E000DAFF04460E460022284BFDF75BF803D8AC
:1036F0004FF0FF30014607E00022254B20463146BF
:10370000FCF7B0FEFDF736F8102409E0002C0ADBC8
:103710000A220023FCF7F4FD039B30321A55641E85
:1037200050EA0102F2D1641C039AC4F1110314445B
:10373000119A012A03D0012208430DD10AE008435F
:1037400004D000204FF0110B119072E7A3EB0B0592
:103750006D1E0DE05B4504DD4FF0000205F1010533
:1037600004E003DA4FF00002A5F10105002AECD0D5
:1037700002981199C0E90231C0E9004579E70000DB
:10378000000014400000F03F300000000000F04353
:103790000000E03F2DE9F04105460C4690462046EA
:1037A00002F078FAB8F1000F03D0B8F1010F23D17D
:1037B00005E004F11401284601F0C0FE1DE02E686A
:1037C0000FE0A6F1140794F8350097F835108842F9
:1037D00006DA04F1140107F1140001F0AFFE02E073
:1037E0003668AE42EDD100BFAE4204D104F11401FF
:1037F000284601F0A3FE00E000BF00BF0020BDE8A6
:10380000F08100002DE9FF4F95B09A4688460646A4
:103810000025EEE1252877D100242746F94A012129
:10382000039400E0044316F8013F203B01FA03F043
:103830001042F7D130782A2811D06FF02F0330785A
:10384000A0F13002092A16D8039A44F0020402EBD0
:10385000820203EB42021044761C0390EFE758F813
:10386000042B0392002A03DA504244F400540390DC
:1038700044F00204761C30782E2816D116F8010F79
:1038800044F004042A280DD06FF02F023078A0F104
:103890003003092B09D807EB870302EB4303C71852
:1038A000761CF3E758F8047B761C30786C280FD030
:1038B00006DC4C2817D068280DD06A2814D104E003
:1038C000742810D07A280FD10DE044F400140AE0D7
:1038D00044F4801401E044F440147278824202D12E
:1038E00004F58014761C761C307866280BD013DC27
:1038F000582877D009DC002875D04528F6D046280E
:10390000F4D047281AD193E118E0632835D0642811
:1039100079D0652812D18BE1702873D008DC672834
:10392000F1D069286FD06E280DD06F2806D1ACE099
:1039300073282CD0752874D0782853D05246179904
:1039400090476D1C54E1C4F30250022809D00328AB
:103950000DD0D8F8001004280DD00D6008F104082F
:1039600046E1D8F80010EA17C1E90052F6E7D8F8A6
:1039700000100D80F2E70D70F0E718F8041B8DF8C9
:10398000001000208DF80100EB46012003E058F8FC
:1039900004BB4FF0FF3061074FF0000102D40DE08F
:1039A00009F101018946B9420FDA8145F8DB1BF8BC
:1039B00009100029F4D108E009F10101894681428A
:1039C000FADB1BF809100029F6D103985346A0EB47
:1039D000090721463846179A00F080FA284400EB80
:1039E000090507E044E008E10DE01BF8010B524631
:1039F00017999047B9F10109F7D253462146384645
:103A0000179AF2E039E00A21C4F302524FF0000B9A
:103A10000091022A06D058F8040BC117032A09D0D6
:103A20000AE023E008F1070020F00702F2E80201B3
:103A3000904605E000B2C117042A01D140B2C11777
:103A4000002906DA0A460021404261EB02012D22DC
:103A500002E0220504D52B228DF80420012203E088
:103A6000E20701D02022F7E7914657E00A2100E063
:103A700010214FF0000B00910BE010214FF0000BD4
:103A800044F004040827009103E008204FF0000BE5
:103A90000090C4F30252022A05D058F8040B00210A
:103AA000032A08D008E008F1070020F00702F2E836
:103AB0000201904603E080B2042A00D1C0B24FF068
:103AC000000922072AD53278702A07D0DDF800C015
:103AD0008CF0100C5CEA0B0C05D00EE040228DF847
:103AE0000420012208E050EA010306D030238DF8BB
:103AF00004308DF8052002229146009B83F00803D4
:103B000053EA0B030AD150EA010201D1620705D53D
:103B100030228DF804204FF001097F1E3278582A98
:103B200004D039A20C920CAA02920BE03BA2F9E756
:103B30005B46009AFCF7E4FB0C9B9B5C029A521ECE
:103B40000292137050EA0102F2D1029804A9081AF5
:103B500000F1200B600702D524F4803400E0012737
:103B60005F4502DDA7EB0B0000E0002000EB0B013E
:103B7000009003984944401A0390E00306D453464A
:103B80002146179A039800F0A9F90544002706E09A
:103B900001A85246C05D179990476D1C7F1C4F4588
:103BA000F6DBE0030CD553462146179A039800F044
:103BB00095F9054404E030205246179990476D1C52
:103BC0000099481E00900029F5DC08E0029802994F
:103BD00052460078491C0291179990476D1CBBF121
:103BE0000001ABF1010BF1DC5BE100F065F905448C
:103BF000761C307800287FF40DAE19B02846BDE859
:103C0000F08F000009280100303132333435363767
:103C10003839616263646566000000003031323318
:103C200034353637383941424344454600000000B8
:103C3000600700D4062708F1070020F00700F0E82D
:103C40000223804603F0004C5FEA0C0001D097A0ED
:103C500009E0200501D596A005E0E00701D095A078
:103C600001E0AFF24C001390307823F00043652858
:103C70000CD006DC452809D046281DD047287FD126
:103C80003BE0662818D067287AD136E00021112F52
:103C900001DB112000E0781CCDE9000104A90CA88B
:103CA000FFF7B6FCDDE90D010C9A4FF0000B07F1B0
:103CB0000109109200914EE04FF000400097CDE9CD
:103CC000011004A90CA8FFF7A3FCDDE90D020C9B71
:103CD0000F994FF0000B91461093009211B9791C87
:103CE00000EB0109B7EB090003D4C0F1FF3B07F17A
:103CF0000109A9EB0700019042E0012F00DA01273A
:103D00000021112F01DD112000E03846CDE900012E
:103D100004A90CA8FFF77CFCDDE90D010C9A0091C9
:103D20004FF0000BB946109221070FD4009A4A4574
:103D300003DA914601E0A9F10109B9F1010F05DDAE
:103D4000109AA9F10101515C3029F4D0B84202DA8D
:103D500010F1040F03DA0121CDE9011010E0002871
:103D600003DC8344A9EB000102E0411C494500DD6E
:103D70008946A0EB0B00401C01904FF000400290E0
:103D8000200705D40198484502DB4FF0FF30019031
:103D900000208DF84B0002980DF14B07B0F1004F59
:103DA00025D002200C902B200D90029800280CDAD0
:103DB000404202902D200D9007E00A210298FCF766
:103DC0001CFB3031029007F8011D0C99481E0C9025
:103DD0000029F2DC02980028EFD1791E0D980870B6
:103DE000307800F0200040F0450007F8020D11A8DF
:103DF000C01BC01D02901398007800B1012000EB99
:103E00000901019801EBE071029801440398401AFE
:103E1000401E0390E00306D453462146179A0398A8
:103E200000F05CF805441398007818B152461799D1
:103E300090476D1CE00323D553462146179A0398FB
:103E400000F04CF805441BE0BBF1000F07DB0098C5
:103E5000584504DD1098179910F80B0001E01799E8
:103E600030205246904701980BF1010B401E05F19E
:103E70000105019004D12E205246179990476D1CE0
:103E8000B9F10001A9F10109DEDC05E017F8010B29
:103E90005246179990476D1C0299481E02900029BE
:103EA000F4DC53462146179A03989EE62D00000045
:103EB0002B000000200000002DE9F0410446002501
:103EC0001E461746880404D405E039462020B04732
:103ED0006D1C641EF9D52846BDE8F0812DE9F0413E
:103EE000044600251E469046C80301D5302700E051
:103EF0002027880404D505E041463846B0476D1CAC
:103F0000641EF9D52846BDE8F081000070B504466E
:103F100006480068FFF746FB451E054850F8350087
:103F2000A0F114062560304670BD0000700000202E
:103F30009017002070B50446A06A0078232809D1A4
:103F4000A16AE069884205D9D4E90A010844E16917
:103F500088420AD221460AA001F0CCFAFCF732F9D5
:103F6000054600BF002DFDD108E0A06A2030E169C0
:103F7000814203D8214609A001F0BCFA70BD0000BF
:103F80007468726561643A257320737461636B2091
:103F90006F766572666C6F770A0000007761726EEB
:103FA000696E673A20257320737461636B206973AF
:103FB00020636C6F736520746F20656E64206F667C
:103FC00020737461636B20616464726573732E0A7D
:103FD000000000004A68002A06D00A68531C0B60E3
:103FE00010704868401E4860704770B501F010FEC0
:103FF0000446FCF7E7F80546204601F05BFC04F1B7
:104000004C0001F04BFF042084F83400204601F0FE
:1040100077FD2846FCF7DAF801F054FB70BD00008C
:104020002DE9FC5F04468B4615461E46DDE90C9AD9
:10403000DDE90E7804F114004060006000BF1C341C
:104040006560A660C4F80C90C4F810A02321D4E9E0
:10405000030201F09CFAD4E9033C63441A1F154B98
:10406000D4E9010101F0EAF92060A7766776002023
:10407000E061206284F82400C4F82880C4F82C8011
:1040800060612076E06520661C3C009023460A4A69
:104090002146019004F14C0001F014FF00BF0748D5
:1040A000006818B1204605490968884700BF00200C
:1040B000BDE8FC9FEB3F0008C140000890000020D5
:1040C00070B504462546FCF77DF806466FF0010002
:1040D000286305F1140001F048FA284601F09CFB22
:1040E0003046FCF773F801F0EDFA70BD2DE9F047AA
:1040F00004460E4617469846DDF8209084F809904D
:10410000607A20F001006072E66127620020A06200
:10411000C4F82480002506E004F1140101EBC50079
:1041200001F002FA6D1C012DF6DBBDE8F08770B5D9
:104130000546002406E005F1140101EBC40001F07E
:104140001DFA641C012CF6DB70BD000070B504463E
:104150000D460F480068C06840F010000C4909681F
:10416000C8600C480068006840F010000949096800
:10417000086008480068006840F0080005490968C0
:104180000860AAB221460248FDF7E0FF70BD0000BA
:10419000FC0000204001002070B504460D46074891
:1041A0000068006840F01000044909680860AAB27D
:1041B00021460348FDF7EEFF70BD0000A00100207E
:1041C000FC00002002480068406880B27047000090
:1041D0004001002070B586B00646002E1CD129484B
:1041E0000068002811D14FF4EF70274927A22CA3B3
:1041F000CDE90310CDE9013200900B4631A23DA17B
:10420000002000F0A3F800BFFEE74FF4EF721E4954
:104210001EA01C4B1B68984700240525374890F8C2
:10422000780010B9284606B070BD00F05DFA002491
:1042300020E004EB840000EBC40130481D3008444A
:10424000007B012814D104EB840000EBC4022B484E
:104250001D301044411C0A223046FCF7BFF838B923
:1042600004EB840000EBC40124481D30455C03E0EE
:10427000601CC4B2052CDCDB00BF00F069FA2846E4
:10428000D1E70000F8000020E26D000874616720AB
:10429000213D202828766F6964202A2930290000D2
:1042A00028257329206861732061737365727420F7
:1042B0006661696C65642061742025733A256C64BD
:1042C0002E0000002E2E5C7061636B6167655C7070
:1042D0006C6174666F726D5C6672616D65776F722A
:1042E0006B5C6C6F675C7372635C656C6F672E638D
:1042F00000000000656C6F670000000088A40020CB
:1043000010B50024104890F87800012801D120460B
:1043100010BD00F045FA04460CB12046F8E7012034
:1043200000F0F6F90020084981F87B0081F87C0054
:10433000052000F04DFA00F0B3FA0120024981F89F
:1043400078002046E4E7000088A400202DE9F04F23
:104350008BB005460F46934698463846FCF737F82B
:10436000814600244FF0010A002009900A9007902E
:104370000890052D1CDDB1480068002811D14FF4CC
:104380000F70AF49AFA2B6A3CDE90310CDE901325A
:1043900000900B46BBA2C7A10020FFF7D7FF00BFCC
:1043A000FEE74FF40F72A649A6A0A44B1B689847DE
:1043B000C24890F8790010B90BB0BDE8F08FBF4843
:1043C0000078A84204DB3846FFF704FFA84200DA71
:1043D000F2E7BA49491C3846FBF7E7FF00B9EBE7BB
:1043E00016A8069000F080F90121284600F03CFC58
:1043F00040B1B34850F82520B2480119204600F0DA
:104400009FFB04440221284600F02EFCE8B1AD4891
:1044100001193A46204600F093FB0444B9F1050F18
:104420000CD8C9F10501202207A8FBF7ACFFA5486D
:10443000011907AA204600F083FB0444A148011992
:10444000A1A2204600F07CFB04441C21284600F079
:104450000BFC002852D09B4801199CA2204600F07A
:104460006FFB04440421284600F0FEFBA8B100F0D5
:1044700085F90590934801192046059A00F060FBE4
:1044800004441821284600F0EFFB30B18D48011993
:104490008DA2204600F054FB04440821284600F079
:1044A000E3FBA8B100F068F90590864801192046A1
:1044B000059A00F045FB04441021284600F0D4FB87
:1044C00030B18048011980A2204600F039FB044435
:1044D0001021284600F0C8FB48B100F04EF90590C5
:1044E000784801192046059A00F02AFB04447548D3
:1044F000011977A2204600F023FB0444E02128465E
:1045000000F0B2FB00285CD06E48011971A2204671
:1045100000F016FB04442021284600F0A5FBF8B16A
:10452000684801195A46204600F00AFB044440211D
:10453000284600F099FB38B16248011966A220466E
:1045400000F0FEFA04440BE08021284600F08CFBCA
:1045500030B15C4801195CA2204600F0F1FA044435
:104560008021284600F080FBC0B15CA2052109A88B
:10457000149BFEF7C3FF5348011909AA204600F017
:10458000DFFA04444021284600F06EFB30B14D486C
:1045900001194DA2204600F0D3FA044440212846D8
:1045A00000F062FB30B1474801194246204600F056
:1045B000C7FA04444348011949A2204600F0C0FA52
:1045C0000444C4F580613F4A1019069B159AFEF712
:1045D000AFFF064600200690A019B0F5806F03D803
:1045E000002E01DB344401E04FF4806404EB0A0048
:1045F000B0F5806F03D94FF48064A4EB0A042F4810
:10460000007B58B100202F4908552C490C312D480A
:10461000FBF7CBFE10B900F09BF8CDE62948011955
:1046200030A2204600F08CFA04442146254800F0D0
:10463000B9F800F08DF800BFBEE60000F8000020D9
:10464000FA6D00086C6576656C203C3D20454C4F4A
:10465000475F4C564C5F564552424F534500000051
:104660002825732920686173206173736572742033
:104670006661696C65642061742025733A256C64F9
:104680002E0000002E2E5C7061636B6167655C70AC
:104690006C6174666F726D5C6672616D65776F7266
:1046A0006B5C6C6F675C7372635C656C6F672E63C9
:1046B00000000000656C6F670000000088A4002007
:1046C000E000002008A50020200000005B000000A2
:1046D0005D200000280000003A000000256C640006
:1046E000290000000A00000010B5084890F87A0080
:1046F00030B100F065F80120044981F87C0003E046
:104700000120024981F87B0010BD000088A4002030
:1047100010B504460D4880F87A4090F87A00A0B1B0
:104720000A4890F87C0030B9084890F87B0010B136
:1047300000F046F809E0054890F87C0028B10348ED
:1047400090F87B0008B900F03FF810BD88A4002065
:1047500010B5084890F87A0030B100F035F8002024
:10476000044981F87C0003E00020024981F87B00C5
:1047700010BD000088A400207047704710B501F0FC
:10478000B9FA0446234603A21021044801F01EF999
:10479000024810BD253130640000000008A9002047
:1047A0000020704770B504460D462246294602A0F7
:1047B00000F0A0FE70BD0000252E2A73000000004E
:1047C00010B5FEF7CFFE10BD10B5FEF7CDFE10BD43
:1047D00010B586B00446052C1CDD10480068002882
:1047E00011D14FF4AC700E490EA215A3CDE9031000
:1047F000CDE9013200900B461AA226A10020FFF756
:10480000A5FD00BFFEE74FF4AC72054905A0034BC0
:104810001B6898472148047006B010BDF8000020BE
:10482000B66D00086C6576656C203C3D20454C4FAC
:10483000475F4C564C5F564552424F53450000006F
:104840002825732920686173206173736572742051
:104850006661696C65642061742025733A256C6417
:104860002E0000002E2E5C7061636B6167655C70CA
:104870006C6174666F726D5C6672616D65776F7284
:104880006B5C6C6F675C7372635C656C6F672E63E7
:1048900000000000656C6F670000000088A4002025
:1048A000002000BF1AE000EB800101EBC0020D49BF
:1048B0001144002241F8012F4A600A818A7200EBFC
:1048C000800101EBC0030749CA5400EB800101EBF2
:1048D000C003044919440A73411CC8B20528E2DB2D
:1048E00070470000A5A4002030B585B004460D46F1
:1048F000052C1CDD10480068002811D14FF49F7072
:104900000E490FA215A3CDE90310CDE901320090A5
:104910000B461BA226A10020FFF718FD00BFFEE7F3
:104920004FF49F72054906A0034B1B689847224825
:1049300040F8245005B030BDF8000020996D000803
:104940006C6576656C203C3D20454C4F475F4C566E
:104950004C5F564552424F534500000028257329AD
:104960002068617320617373657274206661696C7D
:1049700065642061742025733A256C642E00000064
:104980002E2E5C7061636B6167655C706C61746630
:104990006F726D5C6672616D65776F726B5C6C6F68
:1049A000675C7372635C656C6F672E630000000068
:1049B000656C6F6700000000E8A4002010B586B0A9
:1049C0000446002C1ED0012C1CD011480068002881
:1049D00011D140F213100F490FA219A3CDE9031012
:1049E000CDE9013200900B461EA22AA10020FFF75C
:1049F000ADFC00BFFEE740F21312064906A0044BCF
:104A00001B689847254880F8794006B010BD000023
:104A1000F8000020816D000828656E61626C656495
:104A2000203D3D2066616C736529207C7C202865D3
:104A30006E61626C6564203D3D207472756529006D
:104A4000282573292068617320617373657274204F
:104A50006661696C65642061742025733A256C6415
:104A60002E0000002E2E5C7061636B6167655C70C8
:104A70006C6174666F726D5C6672616D65776F7282
:104A80006B5C6C6F675C7372635C656C6F672E63E5
:104A900000000000656C6F670000000088A4002023
:104AA0000EB50B4890F8780000B90EBD0120FFF755
:104AB00085FF08A009A1F422124BCDE90021029044
:104AC00011A21DA10320FFF741FC00BFEDE700008C
:104AD00088A40020322E322E3939000045617379C6
:104AE0004C6F676765722056257320697320696E65
:104AF000697469616C697A65207375636365737342
:104B00002E0000006C6D00082E2E5C7061636B61DE
:104B100067655C706C6174666F726D5C6672616D06
:104B200065776F726B5C6C6F675C7372635C656CEE
:104B30006F672E6300000000656C6F670000000067
:104B4000F0B585B006460D4614462746002D1AD10D
:104B500025480068002810D12C20244924A225A330
:104B6000CDE90310CDE9013200900B462AA237A10E
:104B70000020FFF7EBFB00BFFEE72C221B491CA027
:104B8000194B1B689847002C1AD117480068002859
:104B900010D12D2015492FA216A3CDE90310CDE980
:104BA000013200900B461CA228A10020FFF7CEFB8B
:104BB00000BFFEE72D220D4926A00B4B1B6898472E
:104BC0000AE03046761CB0F5806F04D214F8010B71
:104BD00005F8010B00E002E020780028F1D100BFC9
:104BE000E01B05B0F0BD0000F8000020326E0008A8
:104BF00064737400282573292068617320617373BE
:104C0000657274206661696C656420617420257327
:104C10003A256C642E0000002E2E5C7061636B617F
:104C200067655C706C6174666F726D5C6672616DF5
:104C300065776F726B5C6C6F675C7372635C656CDD
:104C40006F675F7574696C732E630000656C6F67C6
:104C5000000000007372630010B5FEF783FC10BD06
:104C600010B5FEF781FC10BD30B585B004460D4689
:104C7000052C1CDD13480068002811D140F2DB2010
:104C8000114912A218A3CDE90310CDE90132009019
:104C90000B461EA229A10020FFF758FB00BFFEE72C
:104CA00040F2DB22084909A0064B1B6898472548BB
:104CB00050F82400284010B1012005B030BD00207C
:104CC000FBE70000F8000020066E00086C657665C2
:104CD0006C203C3D20454C4F475F4C564C5F564541
:104CE00052424F5345000000282573292068617304
:104CF00020617373657274206661696C65642061FC
:104D0000742025733A256C642E0000002E2E5C70F2
:104D100061636B6167655C706C6174666F726D5C1A
:104D20006672616D65776F726B5C6C6F675C7372D6
:104D3000635C656C6F672E6300000000656C6F67D5
:104D400000000000E8A400200CE0002405E0064874
:104D500050F8245005B1A847641C042CF7D300F088
:104D600013F900BFF1E700000017002005E0002064
:104D700001F03AFE052000F0D1FEF8E710B5044638
:104D800000F0F4F8FFF7F2FF10BD02468A4201D2AC
:104D9000104670470846FCE72DE9F04F89B00D46F4
:104DA0001E46DDE91374B946129B04F0400ABAF1BD
:104DB000000F02D0DFF86CA101E0DFF86CA1CDF8A4
:104DC00000A004F0100ABAF1000F01D024F0010491
:104DD00004F0010ABAF1000F02D04FF0300A01E0EE
:104DE0004FF0200AD0464FF0000C04F0020ABAF14E
:104DF000000F14D0002A03DA4FF02D0C52420EE0BF
:104E000004F0040ABAF1000F02D04FF02B0C06E0B8
:104E100004F0080ABAF1000F01D04FF0200C002175
:104E200042B94FF0300B8A46491C0DF1040E0EF8C2
:104E30000AB014E011E000BFB2FBF6FB06FB1B2A30
:104E4000B2FBF6F200BFDDF800B01BF80AB08A46EC
:104E5000491C0DF1040E0EF80AB0002AEBD1B9423C
:104E600000DD0F46DB1B04F0110ABAF1000F12D16E
:104E7000BCF1000F02D0002B00DD5B1E06E0A84253
:104E800003D24FF0200A80F800A0401CB3F1000AC2
:104E9000A3F10103F3DCBCF1000F05D0A84201D25D
:104EA00080F800C05B1E401C04F0100ABAF1000F2D
:104EB0000AD104E0A84201D280F80080401CB3F17E
:104EC000000AA3F10103F5DC06E0A84203D24FF08B
:104ED000300A80F800A0401CBA467F1E8A45F4DCE8
:104EE00008E0A84205D20DF1040A1AF801A080F8E2
:104EF00000A0401CB1F1000AA1F1010102DDB9F1ED
:104F0000000FEED106E0A84203D24FF0200A80F84D
:104F100000A0401CB3F1000AA3F10103F3DC09B0C7
:104F2000BDE8F08FF56B0008E46B00087FB50A4C14
:104F300005200D214FF48052084BCDE90032CDE918
:104F400002100023064A07A1204600F01DFE054678
:104F5000204600F08AFE7FBD0012002000020020E3
:104F60007D4D00086D61696E0000000010B5044CB5
:104F700002E020688047241D02488442F9D310BD16
:104F8000786E0008806E000870B512E000F09AFD9F
:104F9000044604B90EE0A56F204600F089FB0646E2
:104FA000012E02D1204600F01FFB0DB12046A8477C
:104FB00000BFEBE700BF70BD70B504460D46164656
:104FC0002A460421204600F045FB667200BF04F12A
:104FD00014004060006000BF00BF0020E06170BDB1
:104FE0002DE9FF4705460E461746DDF8308026B905
:104FF0004FF0FF3004B0BDE8F0874FF0FF3900F00C
:1050000007FE04460020206300BF3A48006818B13C
:10501000284638490968884700BFFBF7D3F882461D
:1050200007F0010030B1E8693040B0420AD14FF0DA
:10503000000907E007F0020020B1E869304008B13C
:105040004FF00009B9F1000F12D1B8F1000F03D0F1
:10505000E8693040C8F80000E8693040E06384F84F
:10506000407007F00400B0B3E869B043E86132E093
:10507000039840B96FF0010020635046FBF7A6F893
:105080006FF00100B6E7E66384F840706A7A214663
:1050900005F11400FEF77EFB0398002809DD03AA42
:1050A000002104F14C0000F0C5FE04F14C0000F0BA
:1050B00021FF5046FBF78AF800F004FB206B08B193
:1050C000206B97E7FBF77EF88246B8F1000F02D01D
:1050D000E06BC8F800005046FBF778F800BF0648C0
:1050E000006818B1284604490968884700BF206B4A
:1050F00080E7000064000020680000202DE9F047F0
:1051000004460F461FB94FF0FF30BDE8F0874FF05F
:105110000008FBF757F88246E0693843E06100BFBA
:105120002B48006818B1204629490968884700BF04
:1051300004F1140000F009FA00283FD1666939E053
:10514000A6F114054FF0FF3995F8400000F001007A
:1051500040B1E86BE1690840E96B884218D14FF033
:10516000000915E095F8400000F0020050B1E86B2E
:10517000E169084060B1E86BE1690840E8634FF01D
:10518000000905E05046FBF721F86FF00900BCE785
:105190003668B9F1000F0DD195F8400000F0040019
:1051A00018B1E069E96B8843E061284600F006FD2C
:1051B0004FF0010804F114008642C1D15046FBF7BC
:1051C00005F8B8F1010F01D100F07CFA00209CE74E
:1051D0006C00002010B5FCF7F7F8FDF78BFAFDF72F
:1051E00073F8FDF74DF8FDF7F1F8FDF747F90020EA
:1051F00001F080FAFDF726F8FDF700FA10BD70B552
:1052000004462046FBF7E3F885B22A4621460020F3
:1052100001F044FC70BD00002DE9F041054605F1A8
:1052200028062C1D3148006840B130462F490968D6
:10523000884707460FB9BDE8F08100BF2CA0216C5C
:1052400000F058F92EA0616A00F054F930A0A16A6C
:1052500000F050F932A0E16A00F04CF934A0216B63
:1052600000F048F936A0616800F044F938A0A16860
:1052700000F040F93AA0E16800F03CF93CA0216957
:1052800000F038F93EA0616900F034F940A0A1694E
:1052900000F030F942A0E16900F02CF944A0216A45
:1052A00000F028F946A0616B00F024F948A0A16B3A
:1052B00000F020F94AA0E16B00F01CF9287800F01A
:1052C000040038B100F0A4FC0746394648A000F0BD
:1052D00011F902E04EA000F00DF9287800F010005E
:1052E00010B952A000F006F900BFFEE7B40000209C
:1052F0007073723A203078253038780A0000000048
:105300007230303A203078253038780A00000000BA
:105310007230313A203078253038780A00000000A9
:105320007230323A203078253038780A0000000098
:105330007230333A203078253038780A0000000087
:105340007230343A203078253038780A0000000076
:105350007230353A203078253038780A0000000065
:105360007230363A203078253038780A0000000054
:105370007230373A203078253038780A0000000043
:105380007230383A203078253038780A0000000032
:105390007230393A203078253038780A0000000021
:1053A0007231303A203078253038780A0000000019
:1053B0007231313A203078253038780A0000000008
:1053C0007231323A203078253038780A00000000F7
:1053D000206C723A203078253038780A00000000BE
:1053E0002070633A203078253038780A00000000B9
:1053F00068617264206661756C74206F6E207468D9
:10540000726561643A2025730D0A0D0A00000000E0
:1054100068617264206661756C74206F6E206861CB
:105420006E646C65720D0A0D0A000000465055202E
:10543000616374697665210D0A000000F0B50446C9
:105440000D461646301D20F0070044380146002264
:1054500003E00D4F41F82270521C112AF9D34D621E
:105460004FF0000CC1F828C0C1F82CC0C1F830C002
:10547000C1F834C08B63CC634FF0807CC1F840C06E
:1054800000270F60F0BD0000EFBEADDE10B5FAF7EB
:1054900099FE044608480078401C0749087000BF80
:1054A0000648006810B105480068804700BF2046E4
:1054B000FAF78CFE10BD000028000020200000201C
:1054C00010B5FAF77FFE044600BF0848006810B127
:1054D00006480068804700BF05480078401E044920
:1054E00008702046FAF772FE10BD0000240000206C
:1054F000280000200FB438B505A800907F21094886
:10550000009B049A00F0A2FD04467F2C00D97F2462
:105510000448FFF774FE00200090204638BC5DF878
:1055200014FB000010170020406000607047026804
:10553000516002680A60016048607047426811600B
:1055400042684A60416008607047014608688842C6
:1055500001D1012070470020FCE70146086888421D
:1055600001D1012070470020FCE7D0E90021516003
:10557000D0E900121160406000607047D0E900215E
:105580005160D0E900121160406000607047F8B5CA
:105590000C460546E6B2042A1DD300F00307D7B92E
:1055A0000146002302E00DF803605B1C042BFAD3D4
:1055B00008E0009F80C1009F80C1009F80C1009FC4
:1055C00080C1103A102AF4D202E0009F80C1121F5D
:1055D000042AFAD20D4601E005F8016B171EA2F16C
:1055E0000102F9D1F8BD000070B5044600BF0E48B5
:1055F000006818B120460C490968884700BF0020A0
:105600002072FAF7DFFD054604F10C00D0E9002115
:105610005160D0E9001211604060006000BF284670
:10562000FAF7D4FD70BD00006000002002460021A2
:105630000AE0074800EB01100078904203D10448CB
:1056400000EB01107047491C0329F2DB0020F9E749
:105650002C0000202DE9F04104460D461646284650
:10566000FFF7E4FF074645F080002072082231462C
:10567000204600F0CFF900BF0C48006818B1204662
:105680000A490968884700BFFAF79CFD8046381D23
:1056900004F10C010268516002680A600160486010
:1056A00000BF4046FAF792FDBDE8F0815C000020A3
:1056B0000146087A00F0800008B101207047002000
:1056C000FCE70000F8B5FAF77DFD06464B48008878
:1056D000002872D14A48006800286FD00027684629
:1056E000FEF714FC04464748006890F8340000F0C8
:1056F0000700032825D14348006890F83500009939
:10570000884202D23F48046811E03E48006890F8A1
:1057100035000099884209D13A48006890F8340071
:1057200000F0080010B93748046800E00127354848
:10573000006890F8340020F008003249096881F8C8
:10574000340030480068844240D02F4900980870E7
:105750002C480568046000BF2C48006820B1214631
:1057600028462A4A1268904700BF17B1284600F021
:1057700053F8204600F09EF894F8340020F007001B
:1057800040F0030084F834002046FEF7D3FB2048A5
:105790000078A0B900BF1F48006818B128461D490D
:1057A0000968884700BF04F11C0105F11C00FAF7E5
:1057B00010FD3046FAF70AFD1EE019E017E004F18B
:1057C0001C0105F11C00FAF704FD0FE00D4800680C
:1057D00000F070F80B48006890F8340020F00700E3
:1057E00040F003000749096881F8340000BF00BF9A
:1057F0003046FAF7EBFC00BFF8BD00007400002053
:1058000070000020780000207C0000208000002034
:10581000280000208400002070B50446FAF7D2FC6E
:10582000054621480068844208D194F8340020F0ED
:10583000070040F0030084F8340030E014F8340F1F
:1058400020F0070040F00100207014F8340900F047
:10585000080070B194F83520144B03EBC20004F13A
:1058600014014268116042684A604160086000BFEC
:105870000EE094F835200D4B03EBC20004F1140147
:105880000268516002680A600160486000BF00BFA2
:105890000749A06B096808430549086000BF28460E
:1058A000FAF794FC70BD00007800002090170020EB
:1058B0007000002070B50446FAF784FC054604F138
:1058C0001400D0E900215160D0E90012116040605D
:1058D000006000BF94F83510094A02EBC10001686E
:1058E000814201D1012100E0002129B10548A16BCD
:1058F00000688843034908602846FAF767FC70BDD2
:1059000090170020700000201CB50AA0FFF7F2FDE0
:105910000BA0FFF7EFFD13A015A100231A46CDE958
:105920000010052115A0FFF7E5FD1DA0FFF7E2FD22
:105930001CBD00000A205C207C202F0A0000000013
:105940002D205254202D2020202020546872656183
:1059500064204F7065726174696E67205379737447
:10596000656D0A0032313A32303A343000000000BE
:105970004A756E202038203230323300202F207CB0
:10598000205C202020202025642E25642E256420E4
:105990006275696C642025732025730A000000007D
:1059A0002032303036202D203230323220436F709A
:1059B0007972696768742062792052542D54687234
:1059C000656164207465616D0A0000000FB4F8B56C
:1059D00004460D4609A8009029462046009B089AD7
:1059E00000F034FB0646002000903046F8BC5DF81D
:1059F00014FB0FB438B5044606A800902046009A60
:105A0000059900F0CBFC054600200090284638BCE4
:105A10005DF814FB70B50346A2B118460C4600BFF2
:105A200014F8016B00F8016B3EB902E0002500F8A4
:105A3000015B551E2A1EF9D102E0551E2A1EEFD128
:105A400000BF00BF184670BD0020094A1080014603
:105A500007E0084A02EBC1004060006000BF481C3C
:105A600001462029F5DB0020034A10607047000042
:105A700074000020901700207000002038B56846A0
:105A8000FEF744FA0446064804602046FFF712FF7A
:105A9000032084F8340004F11C00FAF7E0FB38BD61
:105AA0007800002010B5002405E0044901EBC40093
:105AB000FFF73AFD641C002CF7D010BD94000020C5
:105AC0007047000070B500250C4C2068A04213D030
:105AD0002068A0F11405FAF775FB064605F11400DD
