:020000040800F2
:10000000285B0020B1010008951D0008BD02000812
:10001000911D000869040008A925000800000000DF
:10002000000000000000000000000000BF1D0008EC
:10003000A70600080000000003020008C11D000818
:10004000CB010008CB010008CB010008CB01000860
:10005000CB010008CB010008CB010008CB01000850
:10006000CB010008CB010008CB010008CB01000840
:10007000CB010008CB010008CB010008CB01000830
:100080006D04000831050008CB010008CB01000811
:10009000CB010008CB010008CB010008CB01000810
:1000A000CB010008CB010008CB010008CB01000800
:1000B000CB010008CB010008CB010008CB010008F0
:1000C000CB010008CB010008CB010008CB010008E0
:1000D000CB010008CB01000839250008CB0100083E
:1000E000CB010008CB010008CB010008CB010008C0
:1000F000CB010008CB010008CB010008CB010008B0
:10010000CB010008CB010008CB010008CB0100089F
:10011000CB010008CB010008CB010008CB0100088F
:10012000CB010008CB010008CB010008CB0100087F
:10013000CB010008CB010008CB010008CB0100086F
:10014000CB010008CB010008CB010008CB0100085F
:10015000CB010008CB010008CB010008CB0100084F
:10016000CB010008CB010008CB010008CB0100083F
:10017000CB010008CB010008CB0100080000000003
:10018000CB010008CB010008DFF810D000F02AF9FD
:10019000004800475F040008AFF30080285B0020A0
:1001A000002804D090FAA0F0B0FA80F0401C70470C
:1001B0000648804706480047FEE7FEE7FEE7FEE701
:1001C000FEE7FEE7FEE7FEE7FEE7FEE7851E000826
:1001D00089010008EFF3108072B6704780F3108831
:1001E0007047444A1368012B04D04FF00103136099
:1001F000414A1060414A116041484FF0805101600E
:100200007047EFF3108272B63A48016851B34FF06D
:10021000000101603848016891B1EFF309811EF0D7
:10022000100F08BF21ED108B21E9F00F4FF00004F3
:100230001EF0100F08BF012441F8044D0068016052
:100240002E490968096808C9B1E8F00F002B18BFEA
:10025000B1EC108B81F309884EF0100E002B18BF03
:100260002EF0100E82F310884EF0040E70472349D2
:100270000860EFF3148222F0040282F314881E490E
:100280004FF0000008601B494FF0010008601D4856
:100290001D49D0F8002041EA0201016018484FF0E2
:1002A0008051016019480068006880F3088861B6D1
:1002B00062B6BFF34F8FBFF36F8F70471EF0040F0E
:1002C0000CBFEFF30880EFF3098020E9F00F40F84E
:1002D00004ED40F804ED1EF0040F0CBF80F3088815
:1002E00080F3098800B502F023FE5DF804EB4EF0C0
:1002F000040E70474C0100204401002048010020FA
:1003000004ED00E020ED00E00000FFFF08ED00E05C
:100310002DE9F05F0546002092469B46884606463A
:10032000814640241BE0284641464746224600F0CD
:1003300048F853465A46C01A914110D31146184600
:10034000224600F02FF82D1A67EB01084F4622468F
:100350000120002100F026F817EB00094E41201E75
:10036000A4F10104DFDC484631462A464346BDE895
:10037000F09FD2B201E000F8012B491EFBD270477A
:100380000022F6E710B513460A4604461946FFF761
:10039000F0FF204610BD421C10F8011B0029FBD1C4
:1003A000801A7047202A04DB203A00FA02F100206C
:1003B00070479140C2F1200320FA03F319439040A3
:1003C0007047202A04DB203A21FA02F0002170470E
:1003D00021FA02F3D040C2F12002914008431946AD
:1003E00070470000064C074D06E0E06840F001034E
:1003F00094E8070098471034AC42F6D3FFF7C8FEE4
:10040000C44B0008E44B000870B58C1810F8015B71
:1004100015F0070301D110F8013B2A1106D110F89D
:10042000012B03E010F8016B01F8016B5B1EF9D1A1
:100430002B0705D40023521E0DD401F8013BFAE727
:1004400010F8013BCB1A921C03E013F8015B01F892
:10045000015B521EF9D5A142D8D3002070BD10B562
:1004600003F0F3FF002010BD00BFFEE710B52D48DC
:1004700000682D49884205D92B485438006800F49B
:1004800080601BE0274800682849884205D9264833
:100490005838006800F4806010E022480068234962
:1004A0006039884205D92148B838406800F4806036
:1004B00004E01E48B838006800F4806010B10020E5
:1004C00004F004F9174800681749884205D916480E
:1004D0005438006800F400601BE0124800681349BB
:1004E000884205D910485838006800F4006010E0D0
:1004F0000C4800680D496039884205D90B48B83866
:10050000406800F4006004E00848B838006800F46F
:10051000006010B1002004F089F8024800F032F9C0
:1005200010BD00009801002058640240B8600240ED
:1005300010B5174800681749884205D9154854383E
:10054000006800F400101BE011480068124988425E
:1005500005D910485838006800F4001010E00C4825
:1005600000680D496039884205D90B48B8384068A1
:1005700000F4001004E00848B838006800F40010E7
:1005800010B1002004F0FAF8014800F0FBF810BDAB
:10059000F801002058640240B86002400146087823
:1005A00010381823B0FBF3F20848805CC865032AB2
:1005B00005D908686FF30900001D886503E0086825
:1005C0006FF309008865886D704700007048000867
:1005D000014600208A6A8B69CBB932B1012A0DD05D
:1005E000022A03D0032A10D10EE000BFCB6A03F029
:1005F0008073B3F1807F00D1012007E0CB6AB3F1B3
:10060000C07F00D1012001E000E000BF34E08B6931
:10061000B3F5005F1AD132B1012A07D0022A03D004
:10062000032A11D10AE000BF01200EE0CB6A03F0DB
:100630008073B3F1807F00D1012006E0CB6AB3F173
:10064000C07F00D1012000E000BF15E032B1012AD7
:1006500005D0022A04D0032A0CD103E000BF00BF5A
:10066000012008E0CB6A03F08073B3F1807F00D1F2
:10067000012000E000BF00BF704730B50468246867
:1006800024F4802405682C60046863608468402C2E
:1006900004D10468A2600468E16003E00468A1601A
:1006A0000468E26030BD704772B600BFFEE770B507
:1006B0000446A56D00F05AFB064694F83500022862
:1006C00008D08020606500BF002084F8340000BF9F
:1006D000012070BD2068006820F0160021680860C5
:1006E0002068406920F0800021684861206C08B9CA
:1006F000A06C28B12068006820F00800216808601C
:100700002068006820F001002168086010E000F017
:100710002DFB801B05280BD920206065032084F861
:10072000350000BF002084F8340000BF0320D0E76C
:100730002068006800F001000028E8D194F85C10FF
:100740003F208840A860012084F8350000BF0020C9
:1007500084F8340000BF00BFBBE7014691F83500C4
:10076000022803D08020486501207047052081F8C9
:1007700035000868006820F001000A681060002059
:10078000F3E70000F8B50446002000908C480068AC
:100790004FF41651B0FBF1F7A56D2E6894F85C107C
:1007A00008208840304098B12068006800F00400BC
:1007B00070B12068006820F004002168086094F897
:1007C0005C1008208840A860606D40F00100606502
:1007D00094F85C1001208840304068B1206840697E
:1007E00000F0800040B194F85C1001208840A860BF
:1007F000606D40F00200606594F85C100420884051
:10080000304068B12068006800F0020040B194F800
:100810005C1004208840A860606D40F004006065B2
:1008200094F85C1010208840304078B3206800684D
:1008300000F0080050B394F85C1010208840A860C5
:100840002068006800F4802080B12068006800F40F
:10085000002028B9206CC8B12046216C884715E0DB
:10086000A06C98B12046A16C88470FE02068006812
:1008700000F4807028B92068006820F00800216822
:100880000860206C10B12046216C884794F85C10F9
:10089000202088403040002865D02068006800F0A3
:1008A000100000285FD094F85C1020208840A860D9
:1008B00094F83500052828D12068006820F016003B
:1008C000216808602068406920F080002168486144
:1008D000206C08B9A06C28B12068006820F00800DE
:1008E0002168086094F85C103F208840A8600120CF
:1008F00084F8350000BF002084F8340000BF206D6C
:1009000010B12046216D8847F8BD2068006800F4CA
:10091000802080B12068006800F4002028B9606C55
:1009200010B12046616C88471DE0E06BD8B12046CD
:10093000E16B884717E02068006800F4807068B9B0
:100940002068006820F0100021680860012084F809
:10095000350000BF002084F8340000BFE06B10B108
:100960002046E16B8847606D38B3606D00F0010090
:10097000F0B1052084F835002068006820F00100FF
:100980002168086000BF0098401C0090B84200D960
:1009900005E02068006800F001000028F3D100BFE6
:1009A000012084F8350000BF002084F8340000BF27
:1009B000E06C10B12046E16C884700BFA4E700005E
:1009C0000C0000202DE9F0410446002500F0CEF98E
:1009D000074614B90120BDE8F081606A00B100BF8C
:1009E000022084F8350000BF002084F8340000BFE6
:1009F0002068006820F00100216808600AE000F02B
:100A0000B5F9C01B052805D920206065032084F8AE
:100A10003500E0E72068006800F001000028EED112
:100A20002068056821480540D4E901010843E168D0
:100A300008432169084361690843A1690843E169E2
:100A40000843216A08430543606A042803D1D4E9B6
:100A50000B0108430543206805602068456925F0BF
:100A60000705606A0543606A04280DD1A06A054342
:100A7000E06A48B12046FFF7ABFD28B14020606531
:100A8000012084F83500A6E7206845612046FFF77D
:100A900085FD064694F85C103F208840B060002039
:100AA0006065012084F83500002094E73F8010F055
:100AB0002DE9F04704460D4616461F464FF0000844
:100AC000D4F8589000BF94F83400012802D10220D5
:100AD000BDE8F087012084F8340000BF94F83500A9
:100AE000012825D1022084F83500002060653B46AE
:100AF000324629462046FFF7C0FD94F85C103F209F
:100B00008840C9F808002068006840F01600216895
:100B10000860206C28B12068006840F00800216857
:100B200008602068006840F001002168086006E065
:100B300000BF002084F8340000BF4FF00208404698
:100B4000C6E7000070B5044600F010F906462546D9
:100B5000681C10B104480078054400BF00F006F995
:100B6000801BA842FAD370BD08000020F8B50246E9
:100B70000B460025002400200021D6E0012606FABD
:100B800001F51E6806EA0504AC4274D11E7906F030
:100B90000306012E04D01E7906F00306022E13D19F
:100BA00090684F000326BE40B0434F00DE68BE4051
:100BB00030439060506801268E40B0431E79C6F3E2
:100BC00000168E40304350601E7906F00306032E57
:100BD00009D0D0684F000326BE40B0434F009E6846
:100BE000BE403043D0601E7906F00306022E13D1BA
:100BF000CF0802F1200656F827004E07F70E0F2601
:100C0000BE40B0434F07FF0E1E69BE403043CF08C1
:100C100002F1200646F8270010684F000326BE4068
:100C2000B0431E7906F003064F00BE40304310600B
:100C30005E6806F44036002E76D000BF002600968F
:100C40003C4E366846F480463A4F3E603E46366833
:100C500006F48046009600BF00BF374E8F0856F856
:100C600027008E07370F0F26BE40B043334EB242E7
:100C700002D1002624E057E0314EB24201D10126D4
:100C80001EE0304EB24201D1022619E02E4EB24291
:100C900001D1032614E02D4EB24201D104260FE00B
:100CA0002B4EB24201D105260AE02A4EB24201D1B2
:100CB000062605E0284EB24201D1072600E00826AC
:100CC0008F073F0FBE4030431B4E8F0846F827006A
:100CD000224E3068A0435E6806F4801606B12043B9
:100CE0001E4E3060361D3068A0435E6806F4001664
:100CF00006B12043194E361D3060184E361F30683D
:100D0000A0435E6806F4003606B12043134E361F3A
:100D10003060361F3068A0435E6806F4803606B146
:100D200020430E4E083E3060491C1029FFF426AFC8
:100D3000F8BD00004438024008380140000002407D
:100D40000004024000080240000C02400010024073
:100D50000014024000180240001C0240083C014000
:100D60000AB1816101E00B048361704701480068AA
:100D7000704700000000002003480068034909781C
:100D80000844014908607047000000200800002066
:100D900010B50D48006840F400700B490860084623
:100DA000006840F4806008600846006840F4807085
:100DB0000860032000F0A2F80F2000F007F800F010
:100DC0002BF8002010BD0000003C024070B5044626
:100DD0000E4800784FF47A71B1FBF0F00C490968C5
:100DE000B1FBF0F5284600F03FFC08B1012070BDD2
:100DF000102C07D200222146501E00F041F8054871
:100E0000046001E00120F2E70020F0E70800002084
:100E10000C0000200400002008B500BF0020009056
:100E20000E48006840F480400C490860084600689D
:100E300000F48040009000BF00BF00BF0020009081
:100E4000081F006840F08050091F086008460068CD
:100E500000F08050009000BF00BF08BD4438024041
:100E600001460846002809DB00F01F0301229A40D2
:100E700043099B0003F1E023C3F8002100BF704742
:100E80002DE9F05F80460D461646002701F08EFBE7
:100E9000074639462A46334601F00700C0F1070AE3
:100EA000BAF1040F02D94FF0040A01E0C0F1070AB9
:100EB000D14600F1040ABAF1070F02D24FF0000A3E
:100EC00001E0A0F1030AD4464FF0010A0AFA09FA38
:100ED000AAF1010A0AEA020A0AFA0CFA4FF0010B17
:100EE0000BFA0CFBABF1010B0BEA030B4AEA0B0408
:100EF0002146404601F062FBBDE8F09F00BF00F0D4
:100F00000702064B19684FF6FF031940044B0B43C9
:100F100043EA0221014B196000BF70470CED00E06D
:100F20000000FA0570B504460D460CB9012070BDED
:100F30005848006800F00700A84209D255490D70D2
:100F40000846006800F00700A84201D00120EEE743
:100F5000207800F0020002281DD1207800F0040063
:100F6000042805D14C48006840F4E0504A49086024
:100F7000207800F00800082805D14748006840F4B0
:100F80006040454908604448006820F0F000A168CE
:100F9000084341490860207800F00100A8B3606868
:100FA000012807D13C4808380068C0F34040B8B970
:100FB0000120BCE76068022802D06068032807D1DE
:100FC000354808380068C0F3406048B90120AEE7F2
:100FD000314808380068C0F3400008B90120A6E78E
:100FE0002D48006820F00300616808432A49086022
:100FF000FFF7BCFE064609E0FFF7B8FE801B41F292
:101000008831884202D9032091E707E0224800682E
:1010100000F00C006168B0EB810FEDD11D48006855
:1010200000F00700A84209D91A490D700846006867
:1010300000F00700A84201D0012078E7207800F0F6
:101040000400042807D11448006820F4E050E16847
:10105000084311490860207800F00800082808D1EA
:101060000D48006820F46040216940EAC1000A4947
:10107000086000F03FF808490968C1F30311074A06
:10108000515CC8400649086006480068FFF79EFEAC
:1010900000204CE7003C0240083802407848000835
:1010A0000C00002004000020014800687047000088
:1010B0000C00002000B5FFF7F7FF04490968C1F3F1
:1010C0008221034A515CC84000BD0000083802403C
:1010D0008848000800B5FFF7E7FF04490968C1F335
:1010E0004231034A515CC84000BD0000083802404C
:1010F000884800082DE9F047002400250026A14675
:101100002548006800F00C0020B1042805D008280C
:101110003AD105E0DFF8849039E0DFF8849036E0DA
:101120001D48001F006800F03F041B48001F0068B6
:1011300000F4800078B11A481749091F0968C1F303
:101140008811A0FB01700146224600233846FFF7B4
:10115000DFF805460EE011480F49091F0968C1F381
:101160008811A0FB01700146224600233846FFF794
:10117000CFF805460848001F0068C0F30140401C36
:101180004600B5FBF6F902E0DFF8109000BF00BFA3
:101190004846BDE8F0870000083802400024F4000B
:1011A00000127A00F8B504460CB90120F8BD207889
:1011B00000F00100002874D0F948006800F00C002D
:1011C00004280DD0F648006800F00C00082813D160
:1011D000F348001F006800F48000B0F5800F0BD1C9
:1011E000EF4808380068C0F34040002859D06068D4
:1011F000002856D10120D9E700BF6068B0F5803FD4
:1012000008D1E7480838006840F48030E4490839DC
:1012100008601EE06068B0F5A02F0DD1E0480838E6
:10122000006840F48020DE490839086008460068FC
:1012300040F4803008600CE0D9480838006820F499
:101240008030D749083908600846006820F48020BB
:10125000086000BF606890B1FFF788FD054606E0B2
:10126000FFF784FD401B642801D903209EE7CC488A
:1012700008380068C0F340400028F1D011E0FFF7C3
:1012800075FD054606E0FFF771FD401B642801D996
:1012900003208BE7C24808380068C0F340400028AC
:1012A000F1D1207800F0020002285FD1BC4800682C
:1012B00000F00C0058B1BA48006800F00C00082893
:1012C0001CD1B748001F006800F48000B0B9B448D2
:1012D00008380068C0F3400020B1E068012801D060
:1012E000012063E7AE480838006820F0F800216963
:1012F00040EAC100AA490839086037E0E06800B355
:101300000120A8490860FFF731FD054606E0FFF718
:101310002DFD401B022801D9032047E7A0480838CB
:101320000068C0F340000028F1D09D4808380068EC
:1013300020F0F800216940EAC100994908390860A5
:1013400014E0002097490860FFF710FD054606E00D
:10135000FFF70CFD401B022801D9032026E7904827
:1013600008380068C0F340000028F1D1207800F070
:10137000080008282CD16069A8B101208A490860BA
:10138000FFF7F4FC054606E0FFF7F0FC401B0228DF
:1013900001D903200AE782486C300068C0F340009E
:1013A0000028F1D014E000207F490860FFF7DEFC40
:1013B000054606E0FFF7DAFC401B022801D90320AE
:1013C000F4E677486C300068C0F340000028F1D1A3
:1013D000207800F00400042870D1002770483830CD
:1013E000006800F0805090B900BF002000906C4869
:1013F0003830006840F0805069493831086008464C
:10140000006800F08050009000BF00BF01276748CF
:10141000006800F48070B0B96448006840F48070DF
:1014200062490860FFF7A2FC054606E0FFF79EFC54
:10143000401B022801D90320B8E65C48006800F48C
:1014400080700028F2D000BFA068012808D154485D
:101450006830006840F001005149683108601DE0C3
:10146000A06805280DD14E486830006840F004009F
:101470004B49683108600846006840F00100086088
:101480000CE047486830006820F0010044496831AA
:1014900008600846006820F00400086000BFA068EB
:1014A000A8B1FFF763FC054609E0FFF75FFC401BAE
:1014B00041F28831884202D9032077E626E0384895
:1014C00068300068C0F340000028EED013E0FFF75A
:1014D0004DFC054608E0FFF749FC401B41F288310E
:1014E000884201D9032061E62D4868300068C0F3C6
:1014F00040000028EFD1012F07D12948383000687B
:1015000020F0805026493831086000BFA0690028CB
:1015100045D02348006800F00C0008285DD0A06981
:10152000022845D100201F490866FFF71FFC054629
:1015300006E0FFF71BFC401B022801D9032035E61B
:10154000174808380068C0F340600028F1D1D4E99A
:1015500007010843616A40EA81110122A06AC2EBD7
:10156000500041EA00412C20005D41EA00600C4936
:10157000091F086001200B490866FFF7F7FB0546C5
:1015800006E0FFF7F3FB401B022801D903200DE61C
:10159000034808380068C0F340600028F1D049E0F3
:1015A0000838024000004742800E47420070004069
:1015B000002021490866FFF7D9FB054606E0FFF742
:1015C000D5FB401B022801D90320EFE51B4800682A
:1015D000C0F340600028F2D12CE0A069012800D1BE
:1015E000E4E51648001D0668A069012820D006F42D
:1015F0008001E06981421BD106F03F01206A8142EF
:1016000016D147F6C0703040616AB0EB811F0FD130
:1016100006F440310122A06AC2EB5000B1EB004F4A
:1016200006D106F070612C20005DB1EB006F01D097
:101630000120BBE50020B9E5000047420038024028
:10164000042808D14FF0E021096941F004014FF06E
:10165000E022116107E04FF0E021096921F0040167
:101660004FF0E0221161704770B504462546681EB0
:10167000B0F1807F01D301200FE0681E4FF0E02120
:1016800048610F214FF0FF3000F098FF00204FF02D
:10169000E021886107200861002070BD7047704715
:1016A0002DE9F84F0446206805682068C668206860
:1016B00047694FF00009CA4605F00F09B9F1000F5C
:1016C0000AD105F0200038B106F0200020B12046F4
:1016D00000F008FDBDE8F88FB9F1000F7CD007F0ED
:1016E000010018B906F49070002875D005F00100CB
:1016F00030B106F4807018B1206C40F00100206415
:1017000005F0040030B107F0010018B1206C40F082
:101710000200206405F0020030B107F0010018B1AA
:10172000206C40F00400206405F0080048B106F089
:10173000200010B907F0010018B1206C40F008003B
:101740002064206C002846D005F0200028B106F067
:10175000200010B1204600F0C5FC20684069C0F3AD
:10176000801A206C00F0080010B9BAF1000F2DD0DB
:10177000204600F05EFC2068406900F040004028F0
:1017800020D100BF00BF2168143151E8001F21F0B3
:1017900040002168143141E80002002AF3D100BF63
:1017A000A06B50B17548A16B0865A06BFEF7D5FF23
:1017B00088B1A06B016D88470DE02046FFF76FFFF1
:1017C00009E009E02046FFF76AFF04E02046FFF742
:1017D00066FF002020647DE7206B012876D105F0AC
:1017E0001000002872D006F010000028FAD000BFC8
:1017F00000200090206800680090206840680090F9
:1018000000BF00BF2068406900F0400040285ED162
:10181000A06B006840681FFA80F8B8F1000F54D040
:10182000A08D404551DDA4F82E80A06BC069B0F5B5
:10183000807F43D000BF00BF21680C3151E8001FFA
:1018400021F4807021680C3141E80002002AF3D1B4
:1018500000BF00BF00BF2168143151E8001F21F014
:1018600001002168143141E80002002AF3D100BFD1
:1018700000BF00BF2168143151E8001F21F0400073
:101880002168143141E80002002AF3D100BF202072
:1018900084F83E000020206300BF00BF21680C31A7
:1018A00051E8001F21F0100021680C3141E80002CE
:1018B000002AF3D100BFA06BFEF7F9FEA08DE28DE8
:1018C000801A81B22046FFF7E9FE03E740E0A08DD1
:1018D000E18D401A1FFA80F8E08DC0B3B8F1000F17
:1018E00035D000BF00BF21680C3151E8001F21F442
:1018F000907021680C3141E80002002AF3D100BF4A
:1019000000BF00BF2168143151E8001F21F0010021
:101910002168143141E80002002AF3D100BF2020E1
:1019200084F83E000020206300BF00BF21680C3116
:1019300051E8001F21F0100021680C3141E800023D
:10194000002AF3D100BF41462046FFF7A7FEC1E6BB
:1019500005F0800030B106F0800018B1204600F09C
:10196000BBFDB7E605F0400030B106F0400018B10D
:10197000204600F094FBADE600BFABE6991E0008E0
:1019800010B504460CB9012010BDA06900B100E0FB
:1019900000BF94F83D0028B9002084F83C002046A0
:1019A00000F028F8242084F83D002068C06820F466
:1019B00000502168C860204600F010FC20680069D3
:1019C00020F49040216808612068406920F02A00D6
:1019D000216848612068C06840F400502168C860F0
:1019E00000202064202084F83D0084F83E00002080
:1019F000CAE7000010B586B00446142101A8FEF71E
:101A0000BFFC3E492068884276D100BF002000908C
:101A10003B48006840F400303949086008460068D7
:101A200000F40030009000BF00BF00BF0020009015
:101A300033481038006840F001003149103908601F
:101A40000846006800F00100009000BF00BF0C20B5
:101A500001900220029000200390032004900720B0
:101A6000059001A92748FFF781F827482749086012
:101A70004FF000604860002124488160C1604FF44D
:101A8000806101610021416181614FF48071C16118
:101A9000002101624162FEF795FF08B1FEF704FEE6
:101AA00000BF1A48A063846300BF17481830184964
:101AB00008604FF0006048604021154881600021B7
:101AC000C1604FF480610161002141618161C161A8
:101AD00001624162FEF776FF08B1FEF7E5FD00BF47
:101AE0000B486063846300BF002211462620FFF785
:101AF000C7F92620FFF7B4F906B010BD0044004036
:101B000040380240000002408860024098010020F6
:101B1000F801002070B504460D46164694F83E00C4
:101B2000202816D105B10EB9012070BD00BF94F870
:101B30003C00012801D10220F7E7012084F83C0095
:101B400000BF0020206332462946204600F05CFC9E
:101B5000EBE70220E9E7704770470000F7B504465D
:101B6000154694F83D00202846D1019800B10DB9E2
:101B70000120FEBD00BF94F83C00012801D10220E5
:101B8000F7E7012084F83C0000BF01982062A5849B
:101B9000E58400202064212084F83D001748616B13
:101BA000C8631748616B08641648616BC8640020FD
:101BB000616B086501AE23681A1D31682B46606BA6
:101BC000FEF776FF6FF040002168086000BF00203C
:101BD00084F83C0000BF00BF00BF2168143151E809
:101BE000001F41F080002168143141E80002002A02
:101BF000F3D100BF0020BCE70220BAE7CD1F0008E8
:101C000025200008AD1E00087047704708B500BFCA
:101C1000002000900E48006840F400100C49086055
:101C20000846006800F40010009000BF00BF0022CA
:101C300011461020FFF724F91020FFF711F90022B8
:101C400011461120FFF71CF91120FFF709F908BD13
:101C50003038024000B587B0142102A8FEF790FB8F
:101C600000BF002001903848006840F0100036495D
:101C700008600846006800F01000019000BF00BF37
:101C800000BF002001900846006840F00400086092
:101C90000846006800F00400019000BF00BF00BFCC
:101CA000002001900846006840F0200008600846C7
:101CB000006800F02000019000BF00BF00BF0020BE
:101CC00001900846006840F08000086008460068FF
:101CD00000F08000019000BF00BF00BF0020019015
:101CE0000846006840F0010008600846006800F0FF
:101CF0000100019000BF00BF01224FF4C0611348F2
:101D0000FFF72EF81C200290002003900120049081
:101D100002A90F48FEF72AFF4FF4C060029001208D
:101D2000039004900220059002A90848FEF71EFFC8
:101D300001200290002003900220049002A905488F
:101D4000FEF714FF07B000BD303802400014024017
:101D5000001002400000024010B50B480B4908601B
:101D60004FF4E1304860002108488160C1600161A2
:101D70000C21416100218161C161FFF701FE08B1C1
:101D8000FEF792FC10BD000000440040540100200A
:101D900000BFFEE700BFFEE710B5FFF785F94FF47F
:101DA0007A71B0FBF1F42046FFF75EFC0420FFF7E8
:101DB00047FC00220F21501EFFF762F810BD70474C
:101DC00010B501F0EFF9FEF7D7FF01F0FDFE10BDF1
:101DD00000B593B0302107A8FEF7D2FA142102A86B
:101DE000FEF7CEFA00BF002001902448006840F0C2
:101DF0008050224908600846006800F08050019039
:101E000000BF00BF00BF002001901D48006840F4E3
:101E100080401B4908600846006800F4804001903B
:101E200000BF00BF012007900004089002200D9021
:101E300041050E9104210F91A821109102211191C9
:101E40000421129107A8FFF7ADF908B1FEF72CFCA9
:101E50000F20029002200390002004904FF4A05025
:101E600005904FF480500690052102A8FFF75AF81C
:101E700008B1FEF719FC13B000BD00004038024065
:101E8000007000400348006840F470000149086099
:101E90007047000088ED00E070B50546AC6B00208F
:101EA000E085E0842046FFF7FAFB70BD70B506467A
:101EB0000025B46B20684069C0F3C01594F83D005C
:101EC000212805D125B10020E084204600F0F7F854
:101ED00020684069C0F3801594F83E00222805D19F
:101EE00025B10020E085204600F0A3F8206C40F0EA
:101EF000100020642046FFF7D2FB70BD70B5054688
:101F0000AC6B2868006800F48070002842D1E0853E
:101F100000BF00BF21680C3151E8001F21F4807020
:101F200021680C3141E80002002AF3D100BF00BF54
:101F300000BF2168143151E8001F21F00100216821
:101F4000143141E80002002AF3D100BF00BF00BFF6
:101F50002168143151E8001F21F04000216814313C
:101F600041E80002002AF3D100BF202084F83E009F
:101F7000206B01280ED100BF00BF21680C3151E851
:101F8000001F21F0100021680C3141E80002002AF6
:101F9000F3D100BF206B012804D1A18D2046FFF7AB
:101FA0007DFB02E02046FFF7D6FD70BD70B505460B
:101FB000AC6B206B012805D1A08D41082046FFF7AE
:101FC0006DFB02E02046FFF7C7FD70BD70B505460A
:101FD000AC6B2868006800F48070F8B90020E084D9
:101FE00000BF00BF2168143151E8001F21F08000BC
:101FF0002168143141E80002002AF3D100BF00BF7C
:1020000000BF21680C3151E8001F41F040002168F9
:102010000C3141E80002002AF3D102E02046FFF72C
:10202000F3FD70BD70B50446A56B2846FFF7EDFDC6
:1020300070BD00BF00BF02680C3252E8002F22F4CE
:10204000907102680C3242E80013002BF3D100BFFC
:1020500000BF00BF0268143252E8002F22F00101D5
:102060000268143242E80013002BF3D100BF016B69
:1020700001290ED100BF00BF02680C3252E8002FC8
:1020800022F0100102680C3242E80013002BF3D159
:1020900000BF202180F83E1000210163704710B579
:1020A00004462068C06820F040002168C8602020F5
:1020B00084F83D002046FFF7A7FD002010BD00BFBB
:1020C00000BF02680C3252E8002F22F0C001026803
:1020D0000C3242E80013002BF3D100BF202180F81E
:1020E0003D107047F8B5044694F83E00222873D19D
:1020F000A068B0F5805F0CD1206950B90025A66AB0
:1021000020684068C0F308003080A06A801CA0628C
:1021100015E0A56A0026A068B0F5805F03D0A0682E
:1021200028B9206918B920684068287004E0206840
:10213000406800F07F002870A06A401CA062E08D1B
:10214000401E80B2E085002844D12068C06820F09D
:1021500020002168C8602068C06820F48070216871
:10216000C8602068406920F0010021684861202093
:1021700084F83E00206B012826D10020206300BF98
:1021800000BF21680C3151E8001F21F010002168C8
:102190000C3141E80002002AF3D100BF206800683A
:1021A00000F0100010280AD100BF00200090206825
:1021B0000068009020684068009000BF00BFA18DBB
:1021C0002046FFF76BFA02E02046FFF7C4FC002030
:1021D000F8BD01E00020FBE70220F9E72DE9F84F08
:1021E00004462068006920F44050E16808432168F3
:1021F00008612169A068084361690843E1690843EF
:1022000000902068C06849F20C6188430099084337
:102210002168C8602068406920F44070A1690843C3
:102220002168486176492068884203D07549206852
:10223000884203D1FEF74EFF814602E0FEF73AFFE7
:102240008146E069B0F5004F6CD102206168A0FBC7
:10225000015003461920A9FB007001462A46384662
:10226000FEF756F86421B0FBF1F04FEA001A0220A5
:102270006168A0FB01510B461920A9FB00712A4699
:102280003846FEF745F8834602206168A0FB0150FE
:1022900003461920A9FB00712A463846FEF738F894
:1022A0006421B0FBF1F000EBC00101EB0010ABEBDF
:1022B0008000322101EBC0006421B0FBF1F000F09E
:1022C000F8000AEB400A02206168A0FB01500346B7
:1022D0001920A9FB007001462A463846FEF718F877
:1022E000834602206168A0FB015003461920A9FB28
:1022F00000712A463846FEF70BF86421B0FBF1F076
:1023000000EBC00101EB0010ABEB8000322101EBD0
:10231000C0006421B0FBF1F000F0070050442168D8
:1023200088606AE004206168A0FB01500346192020
:10233000A9FB007001462A463846FDF7E9FF8246B0
:1023400004206168A0FB015003461920A9FB00701E
:1023500001462A463846FDF7DBFF6421B0FBF1F069
:1023600000EBC00101EB0010AAEB8000322101EB71
:1023700000106421B0FBF1F000F0F00A0420616865
:10238000A0FB017003461920A9FB00513A462846DC
:10239000FDF7BEFF6421B0FBF1F00AEB001A042048
:1023A0006168A0FB01510B461920A9FB00712A4668
:1023B0003846FDF7ADFF834604206168A0FB01505D
:1023C00003461920A9FB007001462A463846FDF74E
:1023D0009FFF6421B0FBF1F000EBC00101EB0010A6
:1023E000ABEB8000322101EB00106421B0FBF1F077
:1023F00000F00F00504421688860BDE8F88F0000AD
:10240000001001400014014077B581B00446154624
:102410000298A062A58500202064222084F83E0056
:102420002A48A16BC8632A48A16B08642948A16B9C
:10243000C8640020A16B086502AE32682368191DCC
:102440002B46A06BFEF734FB00BF002000902068F5
:102450000068009020684068009000BF00BF00BF87
:10246000002084F83C0000BF206970B100BF00BFAD
:1024700021680C3151E8001F41F4807021680C3153
:1024800041E80002002AF3D100BF00BF00BF21686D
:10249000143151E8001F41F001002168143141E876
:1024A0000002002AF3D100BF00BF00BF2168143131
:1024B00051E8001F41F040002168143141E800025A
:1024C000002AF3D100BF002004B070BDFD1E00083B
:1024D000AD1F0008AD1E0008014691F83D002128FF
:1024E00028D18868B0F5805F0BD1086948B90A6ABD
:1024F0001088C0F308000B685860086A801C0862E6
:1025000005E00B6A581C086218780B685860C88C84
:10251000401E80B2C88458B90868C06820F08000A6
:102520000B68D8600868C06840F040000B68D8604D
:10253000002070470220FCE710B5174800681749D3
:10254000884205D915485438006800F010001BE097
:10255000114800681249884205D910485838006867
:1025600000F0100010E00C4800680D496039884206
:1025700005D90B48B838406800F0100004E008485E
:10258000B838006800F0100010B1002002F0F6F832
:102590000448FFF785F810BD9801002058640240F8
:1025A000B86002405401002000BFFEE70248006806
:1025B000C0F30220704700000CED00E010B50028C9
:1025C00004DB0A07130E054A135406E00A07140E2B
:1025D000034A00F00F031B1FD45410BD00E400E0B9
:1025E00018ED00E002E008C8121F08C1002AFAD165
:1025F00070477047002001E001C1121F002AFBD183
:102600007047000070B5044606480068FDF7C8FD35
:10261000451E054850F83500A0F1140625603046E7
:1026200070BD00000C0100200028002070B5044699
:1026300024B95F22134914A000F06EFBA06A007851
:10264000232809D1A16AE069884205D9D4E90A01A1
:102650000844E16988420AD2214610A000F0CCFD6E
:10266000FDF7B8FD054600BF002DFDD108E0A06ACA
:102670002030E169814203D821460FA000F0BCFD63
:1026800070BD0000D449000874687265616420213F
:102690003D2052545F4E554C4C00000074687265EA
:1026A00061643A257320737461636B206F76657281
:1026B000666C6F770A0000007761726E696E673A28
:1026C00020257320737461636B20697320636C6FC2
:1026D000736520746F20656E64206F66207374616B
:1026E000636B20616464726573732E0A00000000DE
:1026F00070B501F0FFF90446FDF76CFD0546204674
:1027000000F0E4FF04F1580001F0FEFA042084F820
:102710003400204601F01AF92846FDF75FFD00F06D
:10272000C5FE70BD2DE9FC5F04468B4616461F466C
:10273000DDE90C9ADDE90E5804F1140000F082FD89
:1027400026626762C4F82890C4F82CA02321D4E93B
:102750000A0200F09EFDD4E90A3C63441A1F1D4B97
:10276000D4E9080100F0F6FCE061202D04DBBE2274
:1027700019491AA000F0D0FA84F8365084F8355080
:102780000020A06304F13C0000F05CFD0020303428
:102790006061A0612077C4F82080C4F824802060A4
:1027A00020716065A065303C00902346144A2146A4
:1027B000019004F1580001F017FB00BF11480068B8
:1027C00018B120460F490968884700BF0020BDE8BE
:1027D000FC9F0000F12600082F4A00087072696F04
:1027E00072697479203C2052545F544852454144E8
:1027F0005F5052494F524954595F4D4158000000B3
:10280000092800082C01002070B505462C4624B983
:102810008722164916A000F07FFA94F8340000F0E1
:102820000700022804D08822104916A000F074FA8C
:10283000204600F0A3FD012804D089220B4920483E
:1028400000F06AFAFDF7C6FC06466FF0010020634F
:1028500004F1140000F00BFD204600F0D5FE3046D8
:10286000FDF7BCFC00F022FE70BD00001F4A00080E
:1028700074687265616420213D2052545F4E554C4E
:102880004C000000287468726561642D3E737461A9
:102890007420262052545F5448524541445F53549B
:1028A00041545F4D41534B29203D3D2052545F54CC
:1028B00048524541445F53555350454E4400000033
:1028C000704B00082DE9F04704460E46174698461F
:1028D000DDF8209084F80990607A20F001006072A1
:1028E000E66127620020A062C4F82480002506E08B
:1028F00004F1140101EBC50000F0A7FC6D1C012DD3
:10290000F6DBBDE8F08770B50546002406E005F16A
:10291000140101EBC40000F0B3FC641C012CF6DBD5
:1029200070BD000070B504460D460F480068C068D1
:1029300040F010000C490968C8600C480068006845
:1029400040F01000094909680860084800680068FC
:1029500040F00800054909680860AAB2214602480B
:10296000FFF7D8F870BD0000540100209801002046
:1029700070B504460D4607480068006840F0100036
:10298000044909680860AAB221460348FFF7E6F83F
:1029900070BD0000F80100205401002002480068CA
:1029A000406880B2704700009801002000B50246E0
:1029B0000AB9002000BD104600F004F851680B1A57
:1029C0001846F7E7014609B9002070478868FCE718
:1029D00072B670472DE9F04104460E4615464FF099
:1029E000000800270DB104B116B90020BDE8F08140
:1029F0002046FFF7E7FF07460FB90020F6E7AF4292
:102A000000D23D46606908B160698047A84610E081
:102A10002169481C2061087806F8010BD4E90001FF
:102A200008442169884201D820682061A068401EBE
:102A3000A060B8F10000A8F10108E9D1A06908B1CF
:102A4000A06980472846D1E730B5039C4260016009
:102A50000568C5600568056100258560436184617E
:102A600030BD62B670472DE9F04104460E4615466A
:102A70004FF0000800270DB104B116B90020BDE8E1
:102A8000F0812046FFF792FF07460FB90020F6E7D6
:102A9000AF4200D23D46A846606908B160698047F0
:102AA00010E016F8011BE268501CE0601170D4E9D8
:102AB00000010844E168884201D82068E060A0680D
:102AC000401CA060B8F10000A8F10108E9D1A0699C
:102AD00008B1A06980472846D1E700000CE0002437
:102AE00005E0064850F8245005B1A847641C042CA2
:102AF000F7D300F059F900BFF1E70000702700207C
:102B000005E0002001F046FE6420FEF71BF8F8E720
:102B100010B5044600F03AF9FFF7F2FF10BD0000CF
:102B20002DE9F04F89B00D461E46DDE91374B94614
:102B3000129B04F0400ABAF1000F02D0DFF86CA13A
:102B400001E0DFF86CA1CDF800A004F0100ABAF1A2
:102B5000000F01D024F0010404F0010ABAF1000FC3
:102B600002D04FF0300A01E04FF0200AD0464FF07B
:102B7000000C04F0020ABAF1000F14D0002A03DAA4
:102B80004FF02D0C52420EE004F0040ABAF1000F8F
:102B900002D04FF02B0C06E004F0080ABAF1000F47
:102BA00001D04FF0200C002142B94FF0300B8A4683
:102BB000491C0DF1040E0EF80AB014E011E000BF3C
:102BC000B2FBF6FB06FB1B2AB2FBF6F200BFDDF8F8
:102BD00000B01BF80AB08A46491C0DF1040E0EF82D
:102BE0000AB0002AEBD1B94200DD0F46DB1B04F02E
:102BF000110ABAF1000F12D1BCF1000F02D0002B64
:102C000000DD5B1E06E0A84203D24FF0200A80F8E8
:102C100000A0401CB3F1000AA3F10103F3DCBCF1F6
:102C2000000F05D0A84201D280F800C05B1E401CF6
:102C300004F0100ABAF1000F0AD104E0A84201D250
:102C400080F80080401CB3F1000AA3F10103F5DC19
:102C500006E0A84203D24FF0300A80F800A0401CE2
:102C6000BA467F1E8A45F4DC08E0A84205D20DF181
:102C7000040A1AF801A080F800A0401CB1F1000A73
:102C8000A1F1010102DDB9F1000FEED106E0A84289
:102C900003D24FF0200A80F800A0401CB3F1000AD4
:102CA000A3F10103F3DC09B0BDE8F08F6749000828
:102CB000564900087FB50D4C14200A214FF40052EC
:102CC0000B4BCDE90032CDE902100023094A0AA1DD
:102CD000204600F081FE054625B1DB22084909A007
:102CE00000F01AF8204600F00BFF7FBD58220020AC
:102CF00058020020112B00086D61696E0000000071
:102D000090480008726573756C74203D3D205254E4
:102D10005F454F4B00000000F8B504460D461646CF
:102D2000002000900A48006858B933462A462146D8
:102D300008A000F061FA00BF9DF800000028FBD059
:102D400005E0324629462046014B1B689847F8BDEE
:102D500064000020282573292061737365727469EB
:102D60006F6E206661696C65642061742066756EA3
:102D70006374696F6E3A25732C206C696E65206EE2
:102D8000756D6265723A2564200A000010B5044C26
:102D900002E020688047241D02488442F9D310BD18
:102DA000BC4B0008C04B000870B513E000F0B0FD4C
:102DB000044604B90FE0D4F88450204600F058FBD4
:102DC0000646012E02D1204600F090FA0DB12046B1
:102DD000A84700BFEAE700BF70BD00002DE9F04141
:102DE00004460D4616461F462CB940F26B12144994
:102DF00014A0FFF791FF204600F0C0FA092805D083
:102E00004FF4B6720E4913A0FFF786FFA07E30B9CB
:102E10004FF0FF3000F09AFC0020BDE8F081606BBD
:102E200038B13B46324629462046D4F834C0E04704
:102E3000F3E76FF0050000F089FC0020EDE70000EB
:102E4000F648000864657620213D2052545F4E55B7
:102E50004C4C000072745F6F626A6563745F6765F3
:102E6000745F7479706528266465762D3E70617292
:102E7000656E7429203D3D2052545F4F626A656340
:102E8000745F436C6173735F4465766963650000CA
:102E900010B5FDF79FF9044604480088401C00B2B5
:102EA000024908802046FDF799F910BD1001002065
:102EB00010B5FDF78FF904460C480088401E00B29B
:102EC0000A4908800846B0F9000000280ADC002002
:102ED00008802046FDF782F90548006828B100F017
:102EE000E5FA02E02046FDF779F910BD1001002057
:102EF0001401002010B5FDF74BFFFEF769FFFEF748
:102F0000A9FEFEF783FEFEF727FFFEF745FF002030
:102F100001F0CCFA10BD70B504462046FDF73BFA2F
:102F200085B22A462146002001F08EFC70BD0000CB
:102F30002DE9F041054605F128062C1D31480068B1
:102F400040B130462F490968884707460FB9BDE8A8
:102F5000F08100BF2CA0216C00F04EF92EA0616A18
:102F600000F04AF930A0A16A00F046F932A0E16A07
:102F700000F042F934A0216B00F03EF936A0616800
:102F800000F03AF938A0A16800F036F93AA0E168FB
:102F900000F032F93CA0216900F02EF93EA06169F1
:102FA00000F02AF940A0A16900F026F942A0E169E9
:102FB00000F022F944A0216A00F01EF946A0616BDE
:102FC00000F01AF948A0A16B00F016F94AA0E16BD5
:102FD00000F012F9287800F0040038B100F08AFD02
:102FE0000746394648A000F007F902E04EA000F07D
:102FF00003F9287800F0100010B952A000F0FCF896
:1030000000BFFEE7500100207073723A203078252F
:103010003038780A000000007230303A20307825CD
:103020003038780A000000007230313A20307825BC
:103030003038780A000000007230323A20307825AB
:103040003038780A000000007230333A203078259A
:103050003038780A000000007230343A2030782589
:103060003038780A000000007230353A2030782578
:103070003038780A000000007230363A2030782567
:103080003038780A000000007230373A2030782556
:103090003038780A000000007230383A2030782545
:1030A0003038780A000000007230393A2030782534
:1030B0003038780A000000007231303A203078252C
:1030C0003038780A000000007231313A203078251B
:1030D0003038780A000000007231323A203078250A
:1030E0003038780A00000000206C723A20307825D1
:1030F0003038780A000000002070633A20307825CC
:103100003038780A000000006861726420666175DA
:103110006C74206F6E207468726561643A20257348
:103120000D0A0D0A00000000686172642066617576
:103130006C74206F6E2068616E646C65720D0A0D90
:103140000A00000046505520616374697665210DC0
:103150000A000000F0B504460D461646301D20F06A
:10316000070044380146002203E00D4F41F8227069
:10317000521C112AF9D34D624FF0000CC1F828C03F
:10318000C1F82CC0C1F830C0C1F834C08B63CC6327
:103190004FF0807CC1F840C000270F60F0BD0000F8
:1031A000EFBEADDE10B5FDF715F80446094800780E
:1031B000401C0849087000BF0748006810B1064865
:1031C0000068804700BF2046FDF708F800BF00BF39
:1031D00010BD0000280000202000002070B5FCF782
:1031E000F9FF0546034804782846FCF7F7FF204618
:1031F00070BD0000280000200FB438B505A800906D
:103200007F210E48009B049A00F064FF04467F2C47
:1032100000D97F240A48006818B90848FFF77BFEE8
:1032200006E02346054A002105480068FFF7D6FD61
:1032300000200090204638BC5DF814FB8027002059
:1032400030000020406000607047406000607047C0
:103250000268516002680A60016048607047014678
:103260000868884201D1012070470020FCE7D0E9BE
:1032700000215160D0E90012116040600060704789
:10328000D0E900215160D0E9001211604060006077
:103290007047F8B50C460546E6B2042A1DD300F087
:1032A0000307D7B90146002302E00DF803605B1C59
:1032B000042BFAD308E0009F80C1009F80C1009FCB
:1032C00080C1009F80C1103A102AF4D202E0009F12
:1032D00080C1121F042AFAD20D4601E005F8016BE5
:1032E000171EA2F10102F9D1F8BD000070B5044625
:1032F0002CB94FF4CA72104910A0FFF70DFD00BFA2
:103300001348006818B1204611490968884700BF72
:1033100000202072FCF75EFF054604F10C00D0E9A6
:1033200000215160D0E9001211604060006000BFD0
:103330002846FCF753FF70BD874900086F626A6535
:10334000637420213D2052545F4E554C4C000000C8
:10335000FC000020024600210AE0074800EB0110B3
:103360000078904203D1044800EB01107047491CDB
:103370000929F2DB0020F9E76800002010B50446B7
:103380002CB94FF40B72044904A0FFF7C5FC207A56
:1033900020F0800010BD0000B24900086F626A652D
:1033A000637420213D2052545F4E554C4C00000068
:1033B0002DE9F04704460E46904600273046FFF7B9
:1033C000C9FF05462DB94FF4AC721D491DA0FFF78A
:1033D000A3FCFFF75DFD6F680AE0A7F10C0AA245A8
:1033E00005D140F2671216491CA0FFF795FC3F6813
:1033F000281D8742F1D1FFF75BFD46F08000207267
:1034000008224146204600F028FA00BF174800680D
:1034100018B1204615490968884700BFFCF7DAFE55
:103420008146281D04F10C010268516002680A609F
:103430000160486000BF4846FCF7D0FEBDE8F08759
:1034400078490008696E666F726D6174696F6E20ED
:10345000213D2052545F4E554C4C00006F626A2053
:10346000213D206F626A656374000000F80000204F
:1034700010B504462CB940F21922064906A0FFF700
:103480004BFC207A00F0800008B1012010BD002024
:10349000FCE70000984900086F626A6563742021A8
:1034A0003D2052545F4E554C4C000000F8B5FCF7DF
:1034B00091FE06464D480088002874D14C480068AB
:1034C000002871D000276846FFF79CF80446494859
:1034D000006890F8340000F00700032825D1454823
:1034E000006890F835000099884202D2414804688B
:1034F00011E04048006890F835000099884209D1F1
:103500003C48006890F8340000F0080010B93948D1
:10351000046800E001273748006890F8340020F084
:1035200008003449096881F8340032480068844250
:1035300044D03149009808702E480568046000BFE7
:103540002E48006820B1214628462C4A1268904730
:1035500000BF17B1284600F057F8204600F0B6F833
:1035600094F8340020F0070040F0030084F83400A1
:1035700000BF00BF2046FFF759F821480078A0B9E6
:1035800000BF2048006818B128461E4909688847CE
:1035900000BF04F11C0105F11C00FCF722FE3046BF
:1035A000FCF71CFE20E01BE019E000BF00BF04F1A7
:1035B0001C0105F11C00FCF714FE0FE00D4800682B
:1035C00000F084F80B48006890F8340020F0070001
:1035D00040F003000749096881F8340000BF00BFCC
:1035E0003046FCF7FBFD00BFF8BD000010010020D5
:1035F0000C01002014010020180100201C010020F3
:10360000280000202001002070B504462CB940F2AB
:10361000E722254925A0FFF77FFBFCF7DBFD0546E8
:1036200027480068844208D194F8340020F007004D
:1036300040F0030084F8340032E014F8340F20F036
:10364000070040F00100207014F8340900F0080071
:1036500070B194F835201B4B03EBC20004F1140148
:103660004268116042684A604160086000BF0EE035
:1036700094F83520134B03EBC20004F114010268E7
:10368000516002680A600160486000BF00BF00BF6F
:1036900000BF0D49A06B096808430B49086000BFD3
:1036A0002846FCF79BFD70BDEB4900087468726505
:1036B000616420213D2052545F4E554C4C00000067
:1036C00014010020002800200C01002070B50446E1
:1036D0002CB940F25132154915A0FFF71DFBFCF73C
:1036E00079FD054600BF00BF04F11400D0E90021B8
:1036F0005160D0E9001211604060006000BF94F892
:103700003510104A02EBC1000168814201D101214C
:1037100000E0002129B10C48A16B006888430A49E8
:1037200008602846FCF75AFD70BD0000054A0008F5
:1037300074687265616420213D2052545F4E554C7F
:103740004C000000002800200C01002070B5044649
:10375000FFF744FD10B10648046070BD00F0CAF9DF
:10376000054615B902480460F7E72C6300BFF4E78B
:103770002C0000201CB50AA0FFF73EFD0BA0FFF7B0
:103780003BFD13A015A100231A46CDE90010052129
:1037900015A0FFF731FD1DA0FFF72EFD1CBD000099
:1037A0000A205C207C202F0A000000002D205254AB
:1037B000202D2020202020546872656164204F70E5
:1037C00065726174696E672053797374656D0A0060
:1037D00032323A30393A3039000000004665622012
:1037E0002038203230323300202F207C205C2020F3
:1037F00020202025642E25642E2564206275696CA6
:10380000642025732025730A000000002032303028
:1038100036202D203230323220436F707972696742
:1038200068742062792052542D5468726561642056
:103830007465616D0A0000000FB438B5044606A82F
:1038400000902046009A059900F0ECFD0546002006
:103850000090284638BC5DF814FB70B50346A2B151
:1038600018460C4600BF14F8016B00F8016B3EB916
:1038700002E0002500F8015B551E2A1EF9D102E086
:10388000551E2A1EEFD100BF00BF184670BD0000B4
:1038900000210A4A118000BF00BF002007E0084A4B
:1038A00002EBC0014960096000BF411C08462028A6
:1038B000F5DB0021034A1160704700001001002071
:1038C000002800200C01002038B56846FEF79AFE5B
:1038D0000446064804602046FFF7F8FE032084F8FB
:1038E000340004F11C00FCF7C2FC38BD14010020B8
:1038F00010B5002405E0044901EBC400FFF7A5FC66
:10390000641C002CF7D010BD30010020704700006F
:1039100070B500250C4C2068A04213D02068A0F19F
:103920001405FCF757FC064605F11400D0E9002108
:103930005160D0E9001211604060006000BF304665
:10394000FCF74CFC284670BD1800002002460548D4
:1039500002F114010368596003680B60016048605C
:1039600000BF70471800002010B586B0002424E086
:10397000224614A104A8FFF75FFF20211F224B015C
:10398000124800EB8420CDE9013203910090C4EB92
:10399000C40101EB81010E4A02EB810000230D4AB4
:1039A00004A900F019F8C4EBC40101EB8101084A35
:1039B00002EB810000F0A4F8641C002CD8D006B003
:1039C00010BD00007469646C6525640070230020DC
:1039D000E4220020DD2A00082DE9FF5F04460D46A1
:1039E000174698460EAE96E8400E2CB94FF49D72DD
:1039F0000D490EA0FFF790F92EB940F23B120A498B
:103A00000FA0FFF789F92A4601212046FFF7D0FCD5
:103A100043463A46294620468DE8400EFEF782FE90
:103A200004B0BDE8F09F00003C4A0008746872656D
:103A3000616420213D2052545F4E554C4C000000E3
:103A4000737461636B5F737461727420213D2052E3
:103A5000545F4E554C4C000070B504462CB940F2F2
:103A60009D321C491CA0FFF757F92046FFF786FC42
:103A7000012805D040F29E3216491C48FFF74CF948
:103A800000BF00BF94F8340000F00700022804D003
:103A900000BF00BF4FF0FF3070BDFCF79BFB054639
:103AA00004F11400FFF7E3FB04F1580000F0B2FA50
:103AB0002046FFF7A9FD2846FCF790FB00BF0C4805
:103AC000006818B120460A490968884700BF0020ED
:103AD000E2E70000B84A000874687265616420215A
:103AE0003D2052545F4E554C4C000000704B000876
:103AF00028010020014800687047000014010020E0
:103B000010B504462CB940F26D12174917A0FFF703
:103B100003F994F8340000F0070028B14FF4B772AD
:103B2000114917A0FFF7F8F82046FFF727FC0128F6
:103B300005D040F26F120C491F48FFF7EDF894F8DA
:103B4000351001208840A06300BF00BF022084F828
:103B500034002046FFF780FFFFF7CCFF08B1FFF7E6
:103B6000A5FC002010BD00004B4A00087468726577
:103B7000616420213D2052545F4E554C4C000000A2
:103B8000287468726561642D3E7374617420262008
:103B900052545F5448524541445F535441545F4D21
:103BA00041534B29203D3D2052545F5448524541DA
:103BB000445F494E49540000704B000801480068BA
:103BC000704700001000002070B500BF1548006865
:103BD00010B114480068804700BFFCF7FBFA0546A7
:103BE00011480068401C10490860FFF783FF044635
:103BF000606D401E6065606D68B9206D606594F809
:103C0000340040F0080084F834002846FCF7E6FA57
:103C1000FFF74CFC02E02846FCF7E0FA00F006F85B
:103C200070BD000014000020100000207CB5684624
:103C3000FFF70BFB00BF00BFFFF7C0FF0546FCF717
:103C4000C9FA06464EE02D480068A0F11404A06AA7
:103C5000281A6FF00041884242D200BF284800680D
:103C600018B1204626490968884700BF2046FEF75C
:103C70004AFE607A00F0020018B9607A20F0010074
:103C8000607204F114016846FFF7E2FAD4E9071004
:103C90008847FFF793FF054600BF1A48006818B130
:103CA000204618490968884700BF00BF00BF684622
:103CB000FFF7D5FA00B115E004F11400FFF7E0FAC0
:103CC000607A00F0020060B1607A00F0010040B15B
:103CD000607A20F001006072204600F0D7F800E022
:103CE00005E000BF0548FFF7BAFA0028ABD000BFD7
:103CF0003046FCF773FA00BF00BF7CBD30010020E6
:103D0000380100203C01002070B504462CB940F277
:103D10002712154915A0FEF7FFFF2046FFF72EFBDF
:103D20000A2805D04FF494720F4915A0FEF7F4FF4E
:103D30002046FFF79DFB28B940F229120A491FA02F
:103D4000FEF7EAFFFCF746FA05462046FEF7DBFDE4
:103D5000607A20F0010060722846FCF73FFA2046A6
:103D6000FFF7C4FA002070BDD74A000874696D657A
:103D70007220213D2052545F4E554C4C00000000F3
:103D800072745F6F626A6563745F6765745F74798C
:103D90007065282674696D65722D3E706172656E5E
:103DA0007429203D3D2052545F4F626A6563745F01
:103DB000436C6173735F54696D65720072745F6FF9
:103DC000626A6563745F69735F73797374656D6F3D
:103DD000626A656374282674696D65722D3E706130
:103DE00072656E74290000002DE9F84305460E4601
:103DF00014461F46DDE908892DB94FF4887212492F
:103E000012A0FEF789FF2CB940F211120E4914A03E
:103E1000FEF782FF6FF00040804505D34FF48972B2
:103E2000094914A0FEF778FF32460A212846FFF719
:103E3000BFFA43463A4621462846CDF80090FEF7A1
:103E400041FDBDE8F8830000C94A000874696D654A
:103E50007220213D2052545F4E554C4C0000000012
:103E600074696D656F757420213D2052545F4E5505
:103E70004C4C000074696D65203C2052545F5449DD
:103E8000434B5F4D4158202F203200002DE9F8436D
:103E900005462DB94FF4D172464947A0FEF73CFFC5
:103EA0002846FFF76BFA0A2805D040F2A3124149D1
:103EB00046A0FEF731FF4FF00008FCF78BF9814672
:103EC0002846FEF720FD687A20F00100687200BFE6
:103ED0004D48006818B128464B490968884700BF1B
:103EE000FFF76CFE696A0844A862484E00960024F9
:103EF0002AE019E05DF824201168142202EBC402C4
:103F0000881A826AAB6AD21A00D108E0826AAB6A68
:103F1000D21A6FF000439A4200D20CE000BF5DF865
:103F2000240000684DF824005DF8240006EBC4016D
:103F300049688842DED100BF2CB15DF8240008300A
:103F4000611C4DF82100641C002CD2D03048006860
:103F5000401C2F4908600846076805F114010098C5
:103F6000FFF776F9022412E007F0030060B9C4F10C
:103F7000010305F1140202EBC301C4F101025DF873
:103F80002200FFF765F900E003E0BF08641C012C84
:103F9000EAD900BF687A40F0010068724846FCF731
:103FA0001DF9B8F1000F01D0FFF780FA0020BDE83D
:103FB000F8830000E74A000874696D657220213DAE
:103FC0002052545F4E554C4C0000000072745F6FDD
:103FD000626A6563745F6765745F747970652826CB
:103FE00074696D65722D3E706172656E7429203D35
:103FF0003D2052545F4F626A6563745F436C617326
:10400000735F54696D657200040100203001002067
:104010004001002070B504462CB940F21A2217491D
:1040200017A0FEF779FE2046FFF7A8F90A2805D069
:1040300040F21B22114917A0FEF76EFE607A00F0D5
:10404000010010B94FF0FF3070BD00BF204800687C
:1040500018B120461E490968884700BFFCF7BAF826
:1040600005462046FEF74FFC607A20F001006072A2
:104070002846FCF7B3F80020E6E70000F64A0008FF
:1040800074696D657220213D2052545F4E554C4C31
:104090000000000072745F6F626A6563745F676539
:1040A000745F74797065282674696D65722D3E7031
:1040B0006172656E7429203D3D2052545F4F626AE3
:1040C0006563745F436C6173735F54696D657200FF
:1040D000080100202DE9FF4F89B081464C460A981F
:1040E00009EB00064E4504D24FF0FF36A6EB09005F
:1040F0000A907EE10B980078252806D0B44202D2BF
:104100000B9800782070641C70E1002526E00B9865
:10411000401C0B900B9800782D2802D145F010051B
:104120001CE00B9800782B2802D145F0040515E01F
:104130000B980078202802D145F008050EE00B9876
:104140000078232802D145F0200507E00B9800787D
:10415000302802D145F0010500E000E0D7E700BFBC
:104160004FF0FF370B98007830380A2804D20BA89C
:1041700000F080F907460EE00B9800782A280AD153
:104180000B98401C0B900C9880C80C90002F02DA02
:104190007F4245F010054FF0FF3A0B9800782E282B
:1041A0001CD10B98401C0B900B98007830380A28D3
:1041B00004D20BA800F05EF982460AE00B98007862
:1041C0002A2806D10B98401C0B900C9850F804AB91
:1041D0000C90BAF1000F01DA4FF0000A00200490B1
:1041E0000B980078682803D00B9800786C2805D1CC
:1041F0000B98007804900B98401C0B900A200590B7
:104200000B980078692877D00CDC622875D004DC24
:10421000252873D0582872D19CE063280FD06428D9
:10422000F9D19DE073282BD004DC6F2868D070286A
:10423000F1D171E075286ED07828ECD18DE005F0D1
:10424000100040B904E0B44201D220202070641C68
:10425000781E071EF7DC0C9810F8041B0C90C8B2EF
:104260000790B44201D207982070641C04E0B44265
:1042700001D220202070641C781E071EF7DCB5E0F8
:104280000C98006806900C98001D0C90069808B9D0
:1042900062A006904FF0000801E008F10108B8455F
:1042A00004D0069810F808000028F6D1BAF1000FE3
:1042B00002DDD04500DDD04605F0100048B904E02D
:1042C000B44201D220202070641C38467F1E404535
:1042D000F6DC002008900BE0B44202D20698007889
:1042E0002070641C0698401C06900898401C08909A
:1042F00008984045F0DB09E033E025E01EE034E0BB
:1043000025E0B44201D220202070641C38467F1E74
:104310004045F6DC6AE027E0781C10B9082745F034
:104320000105CDE9007A02950C9804C810233146A6
:104330000C902046FEF7F4FB044657E0B44201D24D
:1043400025202070641C51E00220059020E0082008
:1043500005901DE045F0400500BF1020059017E0D6
:1043600000BF45F0020500BF12E0B44201D2252093
:104370002070641C0B98007830B1B44202D20B98C4
:1043800000782070641C02E00B98401E0B902DE01A
:1043900000BF04986C2807D10C9850F804BB0C900F
:1043A00005F00200B8B116E0049868280BD10C980B
:1043B00030F8041B1FFA81FB0C9005F0020050B18D
:1043C0000FFA8BFB07E00C9850F804BB0C9005F03B
:1043D000020000B100BFCDE9007A02955A4631468D
:1043E0002046059BFEF79CFB044600BF0B98401C33
:1043F0000B900B98007800287FF47CAE0A9838B1B7
:10440000B44202D20020207002E0002006F8010C25
:10441000A4EB09000DB0BDE8F08F0000284E554C0C
:104420004C29000037B505460C4622464FF0FF31B7
:104430002846029BFFF74EFE3EBD0020704700203D
:104440007047002070470020704710B5FBF7C2FE90
:10445000FEF750FDFFF78EF9FFF74AFAFFF718FA5B
:10446000FEF728FCFFF752FAFFF77EFAFFF72CFA67
:10447000002010BD0146002009E00B685A1C0A60AC
:104480001A7800EB800302EB4302A2F130000A68C5
:104490001278303A0A2AF0D3704770B504460D46B8
:1044A00029462046FEF73EFA70BD000038B50446A6
:1044B000002C58D104EB440101EB0411504A02EBEB
:1044C00081010090081D00234FF480524D49FEF7F2
:1044D000BBFA4D4804EB440101EB0411484A02EBDE
:1044E0008101009001F12000484B4FF4805248496F
:1044F000FEF7AAFA474804EB440101EB0411404AD5
:1045000002EB8101C8634FF4806004EB440101EBCE
:10451000041102EB8101A1F840003F4804EB440183
:1045200001EB041102EB810148644FF4806004EB5D
:10453000440101EB041102EB8101A1F8480004EBF6
:10454000440101EB041102EB8101C86B4FF480615F
:10455000FFF7A3FF002004EB440101EB0411284AFC
:1045600002F821004AE0012C48D1274804EB44011D
:1045700001EB0411224A02EB81010090081D234B3C
:10458000A2022649FEF760FA1F4804EB440101EB42
:1045900004111B4A02EB8101009001F120001B4B2A
:1045A0007C221F49FEF750FA1E4804EB440101EB40
:1045B0000411134A02EB8101C863802004EB44011B
:1045C00001EB041102EB8101A1F84000164804EB55
:1045D000440101EB041102EB81014864802004EBEB
:1045E000440101EB041102EB8101A1F84800002015
:1045F00004EB440101EB041102F8210038BD000076
:104600007C56002000290020632A0008D1290008D8
:104610000039002000490020004D002000510020FA
:10462000005500207C550020FC55002070B5044644
:1046300004EB440000EB0410224901EB8000B0F8C9
:10464000400004EB440101EB04111E4A02EB81011E
:10465000B1F84A10401A85B2012000EB44001A4913
:1046600051F820002844012101EB4401164A42F888
:10467000210004EB440202EB0412124B03EB820212
:10468000D26B04EB440303EB04130E4E06EB8303DF
:10469000B3F84A30D11804EB440202EB041233465B
:1046A00003EB820202F120002A46FEF7DCF900202B
:1046B00004EB440101EB0411324602EB8101A1F845
:1046C0004A0070BD7C560020145700202DE9F041AF
:1046D00004466CB9FEF762F904EB440101EB0411E6
:1046E000244A02EB8101B1F84010081A85B200E0BB
:1046F00000BF04EB440000EB04101E4901EB8000F6
:10470000B0F84A00281A86B2012000EB44001A498A
:1047100051F820003044012101EB4401164A42F8CF
:10472000210004EB440202EB0412124B03EB820261
:10473000D26B04EB440303EB04130E4F07EB83032C
:10474000B3F84A30D11804EB440202EB04123B46A2
:1047500003EB820202F120003246FEF784F904EBFB
:10476000440000EB0410394601EB8000A0F84A50E9
:10477000BDE8F0817C56002014570020002100EB9A
:10478000400202EB0012024B03F8221070470000B7
:104790007C56002070B50446002504EB440000EB75
:1047A0000410274911F82000012800D170BD04EB46
:1047B000440303EB0413224E06EB8303B3F84820B3
:1047C00004EB440303EB041306EB8303596C04EB83
:1047D000440303EB041306EB8303181DFEF7FAF8FA
:1047E00085B2FDB1002000EB4400164951F82000CD
:1047F0002844002101EB4401124A42F8210094B9F7
:10480000012004EB440101EB0411324602F82100BF
:1048100004EB440101EB041102EB8101486C2946D1
:10482000FEF7A6F809E0012C07D1012004EB4401B2
:1048300001EB0411024A02F8210000BFB6E70000B4
:104840007C5600201457002070B504460D461646CD
:1048500004EB440101EB0411044A02EB8101081D41
:1048600032462946FEF7FFF880B270BD7C56002024
:1048700000061016000610160000000000000000E0
:1048800001020304060708090000000001020304F6
:1048900072745F6170706C69636174696F6E5F6977
:1048A0006E69740072745F6465766963655F756EC6
:1048B00072656769737465720072745F64657669A6
:1048C00063655F696E69740072745F6465766963BD
:1048D000655F6F70656E0072745F646576696365AD
:1048E0005F636C6F73650072745F6465766963659E
:1048F0005F726561640072745F6465766963655FA9
:1049000077726974650072745F6465766963655F68
:10491000636F6E74726F6C0072745F646576696346
:10492000655F7365745F72785F696E6469636174F3
:10493000650072745F6465766963655F7365745F53
:1049400074785F636F6D706C6574650072745F6D11
:10495000656D73657400303132333435363738392C
:10496000616263646566003031323334353637381E
:10497000394142434445460072745F6F626A656321
:10498000745F696E69740072745F6F626A656374E4
:104990005F6465746163680072745F6F626A656307
:1049A000745F69735F73797374656D6F626A656351
:1049B000740072745F6F626A6563745F6765745FC9
:1049C000747970650072745F6F626A6563745F66A4
:1049D000696E64005F7363686564756C65725F73AC
:1049E0007461636B5F636865636B0072745F7363AC
:1049F000686564756C655F696E736572745F746811
:104A0000726561640072745F7363686564756C6578
:104A10005F72656D6F76655F746872656164005F73
:104A20007468726561645F74696D656F7574005F49
:104A30007468726561645F696E69740072745F7432
:104A400068726561645F696E69740072745F74682E
:104A5000726561645F737461727475700072745F03
:104A60007468726561645F64657461636800727420
:104A70005F7468726561645F736C65657000727401
:104A80005F7468726561645F64656C61795F756E9F
:104A900074696C0072745F7468726561645F636FDF
:104AA0006E74726F6C0072745F7468726561645FBB
:104AB00073757370656E640072745F74687265619B
:104AC000645F726573756D650072745F74696D659E
:104AD000725F696E69740072745F74696D65725F8C
:104AE0006465746163680072745F74696D65725F98
:104AF00073746172740072745F74696D65725F7350
:104B0000746F700072745F74696D65725F636F6E4D
:104B100074726F6C000000004F4B000045494E5608
:104B2000414C000045525346554C4C00454E4F4DAC
:104B3000454D000045494F004552524F520000007C
:104B4000454E4F535953000045494E54525054005E
:104B50004554494D4F55540045554E4B4E4F570007
:104B60004542555359000000455253455054590091
:104B700072745F6F626A6563745F6765745F74798E
:104B80007065282872745F6F626A6563745F742948
:104B900074687265616429203D3D2052545F4F6204
:104BA0006A6563745F436C6173735F5468726561B7
:104BB00064000000474400083F4400083B440008EC
:104BC00043440008E44B00080000002054010000AA
:104BD000080400086C4C000854010020D45900005F
:104BE000F425000841321042019324F422182A20AF
:104BF00004011413184B1B0838041A50041A240417
:104C00001A68041A2C041A40041A60041A34041A8C
:104C100048041A1C041A58044129601A6C502904CB
:104C2000328C32021A7C0C290429653203191829A6
:104C30001C33202C32041A9C0C2904292032051A1A
:104C4000AC0C2904323032061ABC0C2904323C293F
:104C5000651ACC0C2904323432091ADC0C290432CE
:0C4C600040320A1AEC0C29042960015CA7
:040000050800018965
:00000001FF
